:020000040800F2
:10000000F80F00208D0100089101000893010008FD
:100010009501000897010008990100080000000000
:100020000000000000000000000000009B0100082C
:100030009D010008000000009F010008DF1C00086F
:10004000A3010008A3010008A3010008A301000800
:10005000A3010008A3010008A3010008A3010008F0
:10006000A3010008A3010008A3010008A3010008E0
:10007000A3010008A3010008A3010008A3010008D0
:10008000A3010008A3010008A3010008A3010008C0
:10009000A3010008A3010008A3010008A3010008B0
:1000A000A3010008A3010008A3010008A3010008A0
:1000B000A3010008A3010008A3010008A301000890
:1000C000A3010008A3010008A3010008A301000880
:1000D000A3010008A3010008A3010008A301000870
:1000E000A3010008A3010008A301000800F002F822
:1000F00000F03CF80AA090E8000C82448344AAF186
:100100000107DA4501D100F031F8AFF2090EBAE883
:100110000F0013F0010F18BFFB1A43F0010318473B
:10012000782C0000982C0000103A24BF78C878C1C1
:10013000FAD8520724BF30C830C144BF04680C60ED
:10014000704700000023002400250026103A28BF35
:1001500078C1FBD8520728BF30C148BF0B60704739
:100160001FB502F0E4FD1FBD10B510BD02F0A4FDE7
:100170001146FFF7F5FF01F07EFE02F0C2FD03B469
:10018000FFF7F2FF03BC02F0CBFD00000848004778
:10019000FEE7FEE7FEE7FEE7FEE7FEE7FEE7FEE737
:1001A000FEE7FEE703480449024A044B704700009B
:1001B000ED000008F80D0020F80F0020F80D0020D9
:1001C00000BF4FF012002349086000BF00BF224863
:1001D000224948602248086000BF00BF1F480068ED
:1001E00010F0007FFAD000BF1C48406800F00C00FF
:1001F0000828F9D100BF00BF1A484FF0E02148613C
:100200004FF0060008614FF0000088610846006961
:1002100040F00100086100BF00BF1048806940F055
:1002200008000E4988614FF06E400F4908604FF496
:1002300040700E49C1F8040C0848806940F0100075
:10024000064988614FF0000009490860486000BF16
:10025000704700000020024002841200001002409B
:10026000820000017FA90300000C01400000014052
:100270000010014010B502F06BFC02F044FC0021BC
:10028000084602F02DFC10BD00EB8002114600BFB5
:10029000A1F101021100FBD17047FF48C06940F095
:1002A0000050FD49C8614FF00100FC4908607047EB
:1002B00030B502460B464FF000042046214609E0C7
:1002C000545C5D5CAC4202D04FF00104204601F169
:1002D000010421460829F3D330BD2DE9F04106463B
:1002E0000C464FF00000074646F04001084602F079
:1002F00082FB210E084602F07EFBC4F3074108464C
:1003000002F079FBC4F30721084602F074FBE0B267
:1003100002F071FB952002F06EFB00BFFF2002F09F
:100320006AFB054607F10100C0B20746FF2D01D167
:10033000FC2FF3DB2846BDE8F0812DE9F0410646AD
:100340000F4602F00BFB002002F04CFB314611205F
:10035000FFF7C3FF8046B8F1000F19D100BFFF209F
:1003600002F049FB0546FE2DF9D14FF0000407E0ED
:10037000FF2002F040FB385504F1010080B2044632
:10038000202CF5DBFF2002F036FBFF2002F033FBD0
:10039000012002F027FBFF2002F02DFB4046BDE8C4
:1003A000F08170B504460D4602F0D8FA002002F044
:1003B00019FB29462046FFF790FF06464FF0010043
:1003C00002F010FBFF2002F016FB304670BD2DE955
:1003D000FF5F0546884691469A46DDF838B008EB3F
:1003E00088004FEA400000B2AD4908804FF000009D
:1003F000AC4908800F9820B94FF00000AA49088046
:1004000009E0109800EB8000A5490988A1EB4000A5
:1004100000B2A5490880A548A0F800B0B9F1000FC6
:1004200007D1A348A0F800B04FF00000A149087020
:1004300015E04FF014009E4908804FF001009D49DF
:1004400008704FF064000AFB00F09849B1F9001001
:10045000A1F1140190FBF1F000B2974908802C46FD
:100460004FF030008DF800008DF801008DF802008B
:100470008DF803008DF804008DF805008DF8060056
:100480008DF807004FF000008DF808004FF00A00CB
:1004900094FBF0F100FB114000F13000C0B28DF888
:1004A00007004FF00A0094FBF0F000B204464FF052
:1004B0000A0094FBF0F100FB114000F13000C0B2E3
:1004C0008DF806004FF00A0094FBF0F000B20446ED
:1004D0004FF00A0094FBF0F100FB114000F13000F6
:1004E000C0B28DF805004FF00A0094FBF0F000B2A6
:1004F00004464FF00A0094FBF0F100FB114000F1BC
:100500003000C0B28DF80400684602F0B3FBC7B2F9
:100510004FF020014FF01000FFF743FF06460EB1E9
:10052000BDE8FF9F65494FF4DF70FFF706FF064601
:1005300006B1F5E76148C01EC07A614908705F489E
:10054000C01E007B48705D48C01E407B88705B48C1
:10055000C01E807BC870084600684FEA40200860D3
:10056000564957480068FFF7E8FE06465348A0F191
:100570000300007C534908705048A0F10300407C00
:10058000514908704D48A0F10300807C48704B48E9
:10059000A0F10300C07C4D4908704848A0F1030059
:1005A000808A4B4908804548A0F10300B0F8190043
:1005B00048490880424800684349098800EB4120C7
:1005C00045490860434800884FEA40214248006896
:1005D0003E4A127802FB0100404908600846006864
:1005E0003B49098800EB411036490978A0EB81208E
:1005F0003B4908604FF000003A49088014E0374951
:100600000968384A128801EB421108463649FFF75B
:1006100094FE69463448FFF74BFE07463148008890
:1006200000F101002F4908802E48008828490988D8
:10063000884201DA002FE2D12A480088FF2801DD34
:10064000002F76D12848007F284908702648407F2F
:1006500048702548807F88702348C07FC870224832
:10066000408B234908804FF0000022490870204841
:10067000008821490860084600681249097800FB93
:1006800001F01D490860084600681A4909780844C5
:1006900019490860084631E000100240007400402B
:1006A000D4000020D2000020D6000020DC00002072
:1006B000D80000203200002034000020630D00200C
:1006C000B0000020B4000020B6000020B8000020D8
:1006D000BA000020BC000020C0000020C4000020A0
:1006E000C8000020CE0000202E0D0020A000002019
:1006F000A8000020AA000020A400002000684FEA03
:100700004020086008460068FF4909680844FF491E
:1007100008604FF00100FE490860FE490860FE498C
:1007200008604FF0FA00FD4908804FF00000FC49D6
:10073000086000BFF4E6FB48008810B3F948B0F940
:100740000000F949B1F9001088421ADDF648008826
:1007500000F1010000B2F44908800846B0F9000039
:10076000F049B1F9001088420BDB4FF00000ED4971
:100770000880ED490880ED4908804FF00100E84904
:100780000860EB48008808B3E948B0F90000E64982
:10079000B1F90010884219D14FF0FF00E549087007
:1007A000E048B0F90000E249B1F90010A0EB010007
:1007B00000EB80004FEA4001DF48B0F90000A0F1F3
:1007C0000A0091FBF0F000B2DC49088070474FF05E
:1007D0000100D34908604FF00000D34908807047FA
:1007E00010B5D748006820F47040D649C1F8000819
:1007F0000846D0F8000840F40050C1F80008D2487C
:10080000008890B1D0480088A0F1010000B2CE4924
:100810000880CE48006840F00800CA49C1F80C08BA
:100820004FF00000CA49088006E0C848006820F080
:100830000800C449C1F80C08C648B0F90000401FC0
:1008400000EB8000C049B1F90010B1EB400F13D1AB
:10085000C148008800F1010000B2BF49088042F29F
:100860000F724FF00001BC4802F0F9F9BA48B0F934
:100870000010142001F06AFE10BD10B5B7480088C2
:1008800000F1010000B2B54908800846B0F9000047
:10089000AA49B1F90010884222DB4FF00000AF49AD
:1008A0000880A4480078012807D1A048008800F1FA
:1008B000010000B29D4908800BE09E4890F90000BD
:1008C000401C06D199480088A0F1010000B2974968
:1008D00008809948B0F900200021944802F0B4F94A
:1008E0009248B0F9000040434FF0640190FBF1F0F2
:1008F00000B29B49088010BD3EB59A480088F0B30D
:1009000099480088D8B39248008800F1010000B2ED
:100910008F4908800846B0F900009349B1F90010EA
:10092000884237DB4FF00000894908808F480088F3
:1009300000F1010000B28D4908808D48B0F9002017
:100940004FF00101894802F08AF98648B0F90000A9
:10095000052190FBF1F0C0B205468248B0F90000D5
:1009600090FBF1F0C0B2044601203221234602463A
:10097000CDE9010500917B48B0F9001000E005E0E9
:100980007A48B0F90000FFF722FD03E04FF00000C5
:100990006F4908803EBD7748006820F47F20694990
:1009A000C1F8040C0846D0F8040C40F40820C1F843
:1009B000040C0846D0F80C0C40F4C050C1F80C0CE4
:1009C0006D48006810F4006F12D16C4800780A2856
:1009D00012DA6A48007800F1010068490870084698
:1009E00000780A2808DB4FF001006549087003E031
:1009F0004FF00000614908705F48006810F4805FA4
:100A000012D1604800780A2812DA5E48007800F1B6
:100A100001005C490870084600780A2808DB4FF09E
:100A200001005949087003E04FF000005549087073
:100A300070470EB55248007868B34FF00000504937
:100A400008704448008800EB80004FEA400000B284
:100A50003D4908804D48008800F1010000B24B4933
:100A600008804348B0F900204FF00101474802F0E8
:100A7000F6F80A21012246480088C0B20523CDE9D4
:100A800001210090334800880A3001B23F48B0F994
:100A90000000FFF79CFC3C48007838B14FF00000A4
:100AA0003949087028490880FFF791FE0EBD70B5DE
:100AB0004FF000000446254601F050FF00BF012022
:100AC00001F090FF72B6FF2001F095FFFF2001F0CA
:100AD00092FFFF2001F08FFFFF2001F08CFF62B634
:100AE00072B6FF2001F087FFFF2001F084FFFF2096
:100AF00001F081FFFF2001F07EFF62B672B6FF2099
:100B000001F079FFFF2045E0C8000020A40000208C
:100B1000840000209400002090000020D0000020DD
:100B200088000020D4000020D2000020D80000203F
:100B3000D600002032000020DC000020340000201D
:100B40000008014000000140E20000200C080140C4
:100B5000360000207600002080000020DE0000200B
:100B6000DA000020780000207A000020E800002051
:100B70007C000020040C0140080C014072000020A1
:100B8000740000207300002075000020E6000020A3
:100B90007E00002001F02FFFFF2001F02CFFFF203E
:100BA00001F029FF62B600210846FFF7FAFB05466F
:100BB00004F1010004460A2C01D90A2070BD012D60
:100BC0007FF47DAF00213720FFF7EBFB05464FF0A8
:100BD00000014FF02900FFF7E4FB0546012D1ADC68
:100BE0004FF00000044600BF00213720FFF7D9FB7B
:100BF00005464FF000014FF02900FFF7D2FB0546F4
:100C000004F101000446B4F57A7F01D92046D5E706
:100C1000002DE9D112E04FF00000044600BF002192
:100C20000120FFF7BEFB054604F101000446B4F5C0
:100C30007A7F01D92046C1E7002DF0D100213B2069
:100C4000FFF7AFFB05464FF400714FF01000FFF7C0
:100C5000A8FB05464FF0010001F0B4FE2846ADE7C1
:100C600010B5FE48006820F00F00FD49C1F80008EB
:100C70000846D0F8000840F00800C1F8000808460F
:100C8000D0F80C0840F00100C1F80C08F5480068E5
:100C900010F0010F13D0F448008828B3F248008800
:100CA000A0F1010000B2F04908800846B0F9000048
:100CB000002819DC4FF00000EC49087014E0EA4805
:100CC000B0F9000014280FDAE748008800F10100AD
:100CD00000B2E54908800846B0F90000142803DB9B
:100CE0004FF00100E1490870E048007848B9E04859
:100CF000007830B100231A461946152001F0D3FBC5
:100D00001AE0DA480078012816D1D948007801287D
:100D100012D0FFF7CCFE30B100231A461946162038
:100D200001F0C1FB08E04FF00300D04908704FF01C
:100D30000001084601F098FBCC480078CC490870C7
:100D400010BD2DE9F04106460C4601F007FE0120DA
:100D500001F038FE002001F045FE31461120FFF77A
:100D6000BCFA0746A7B900BFFF2001F044FE0546C4
:100D7000FE2DF9D1FF2001F03EFE2070FF2001F092
:100D80003AFE6070FF2001F036FEFF2001F033FED6
:100D9000012001F027FEFF2001F02DFE3846BDE8BE
:100DA000F0812DE9F04106460F4601F0D7FD012004
:100DB00001F008FE002001F015FE31461120FFF77A
:100DC0008CFA8046B8F1000F19D100BFFF2001F066
:100DD00012FE0546FE2DF9D14FF0000406E0FF207B
:100DE00001F009FE385504F101000446B4F5007F16
:100DF000F5D3FF2001F0FFFDFF2001F0FCFD0120F5
:100E000001F0F0FDFF2001F0F6FD4046BDE8F08165
:100E100098490870704710B59648007860B19548B9
:100E20000078A0F10100934908700846007818B9CD
:100E30000021084601F018FB10BD10B59EB08E4889
:100E40000078002845D18D480088F0B98CA191A088
:100E500001F046FB9448B0F900003C2190FBF1F012
:100E600080B204460022212101F0B4FA8E48B0F984
:100E700000003C2190FBF1F201FB120080B204461D
:100E80000022402101F0A6FA88E288A18CA001F09E
:100E900027FB7A48B0F900000A2190FBF1F03C21D1
:100EA00090FBF1F080B20446002201F093FA7348FF
:100EB000B0F900000A2190FBF1F03C2190FBF1F227
:100EC00001FB120080B2044600223E2101F082FAAA
:100ED00064E26948007803287ED17EA0009082A059
:100EE000019086A002908AA003907AA004908DA021
:100EF000059091A0069095A0079099A008909DA0BC
:100F00000990A1A00A90A5A00B90A9A00C90ADA05B
:100F10000D90594A92F90120012303EB42025DF83A
:100F200022201146544A92F9012052005DF82220F5
:100F3000104601F0D5FA5C48B0F900003C2190FB66
:100F4000F1F080B204460022212101F043FA564814
:100F5000B0F900003C2190FBF1F201FB120080B2DD
:100F600004460022402101F035FA9B48B0F9000008
:100F70003C2190FBF1F080B204460022232101F0D5
:100F800029FA9548B0F900003C2190FBF1F201FBF1
:100F9000120080B204460022242101F01BFA8F487F
:100FA000B0F900003C2190FBF1F080B20446002231
:100FB000252101F00FFA8948B0F900003C2190FB8F
:100FC000F1F201FB120080B2044600225E2101F022
:100FD00001FA0022282100E00CE08148008880B25C
:100FE00001F0F8F9002229217E48008880B201F042
:100FF000F1F9D3E120480078152804D17AA17FA027
:1010000001F06EFACAE11C480078162824D1804805
:10101000007800F101007E49087008460078142825
:1010200011DD4FF0000008701348007900F1010055
:1010300040B211490871084690F90400022802DD07
:101040004FF0000008710C48007920B971A176A01A
:1010500001F046FAA2E1F1E002E1000000080140DF
:1010600000000140080801402E0000203000002050
:10107000310000205F0000205A000020E200002024
:1010800020E2F0E5ECFF2020202030213A30402003
:101090000000000020D3F1F2E0EDEEE2EBE5EDED33
:1010A000EEE52020000000007600002020EEF1F2A6
:1010B000E0EBEEF1FC20303C3A303E200000000036
:1010C0002020C4EE20EEEAEEEDF7E0EDE8FF202070
:1010D0000000000020C4EBE8F2E5EBFCEDEEF1F2DD
:1010E000FC2020200000000020F1E5E0EDF1E020F0
:1010F000202021EC304063200000000020CFE5F0EC
:10110000E8EEE4E8F7EDEEF1F2FC2020000000004C
:1011100020E4E5ECEEE8E3F0FB2023EC3024F120C2
:101120000000000020E4E5ECEEE8E3F0FB2025EC15
:10113000305EF1200000000020C3F0EEECEAEEF19A
:10114000F2FC2020202020200000000020E7E2F315
:10115000EAE020202020202020292020000000007C
:1011600020CAEEEBE8F7E5F1F2E2EE2020202020A5
:101170000000000020F4E0E9EBEEE2202020202037
:10118000202820200000000020D1F7E5F2F7E8EA4F
:1011900020202020202020200000000020F1E5E079
:1011A000EDF1EEE220202020202020200000000091
:1011B00020C2FBF5EEE4202020202020202020204B
:1011C000000000002020202020202020202020209F
:1011D00020202020000000007A000020780000205D
:1011E0007C0000207E0000202020EAE0F0F2E020D9
:1011F000EFE0ECFFF2E82020000000002020CEF21B
:10120000F1F3F2F1F2E2F3E5F22020200000000019
:1012100039000020E8EDE8F6E8E0EBE8E7E8F0F375
:10122000E5F2F1FF00000000CAE0F0F2E020EFE09C
:10123000ECFFF2E820EDE52000000000EB4800792B
:10124000012804D1EAA1EFA001F04AF9A6E0E7489D
:1012500000790228FAD1F0A1F4A001F041F99DE053
:10126000E248007802281DD1F5A1FAA001F038F972
:10127000FD48007800F13000FC49C872FA48407817
:1012800000F130000873F848807800F130004873AE
:101290004FF05E01D54890F9010000F11B00F34AC0
:1012A00011547BE0D1480078092804D1F0A1F5A0C1
:1012B00001F016F972E0CD48007804280CD1AFF2A5
:1012C000FC01F5A001F00CF900222121F74800886B
:1012D00080B201F07FF861E0C44800782C285DD12D
:1012E000AFF22011AFF2241001F0FAF8BF484078B5
:1012F000F0BB00231A461946012001F032F8002302
:1013000002220121EA48008880B201F02AF8002375
:101310000F221946E748008880B201F022F8002326
:101320000F220121E448008880B201F01AF800235E
:101330000C221946E148008880B201F012F800231F
:101340000C220121DE48008880B201F00AF8002357
:1013500005221946DB48008880B201F002F800231C
:1013600005220121D848008880B200F0FAFF15E07C
:10137000FFE79E484078012806D100231A46194607
:10138000022000F0EEFF09E098484078022805D1DD
:1013900000231A461946032000F0E3FFB34801F08A
:1013A00025FC1EB010BDC948006860F00700C849A0
:1013B0000860C848806860F03000096800EA0100F1
:1013C000C349086008460068401C05D0084600680C
:1013D000C1490968884234D04FF00000BF49087005
:1013E000BF480078042802DABE48007850B1BE48F1
:1013F000007838B94FF00100BC490870B648006861
:10140000BB490870B7480078BA490978884209DBB7
:101410004FF00100B5490870AF48006800F07F0048
:10142000B34908704FF00000AF4908704FF0140046
:10143000B04908704FF00000A9490870A949087028
:101440003FE0A3480068A4490968884238D1A4480D
:10145000007800F10100A2490870084600780428CD
:101460002EDB4FF0000008709E48007800F101006C
:101470009C490870084600789E49097888421FDB1D
:101480009548006800F07F00994908704FF000000F
:10149000944908704FF0010094490870924908700F
:1014A0008E48007860B1934800784FEA6000914917
:1014B000087008460078022802DC4FF0020008702D
:1014C00000BF83480068844908608B48806940F009
:1014D000180089498861894800686FF30B008849C2
:1014E000C1F8000C8548006840F6880140EA010018
:1014F0008349C1F8000C0846D0F80C0C40F00700F6
:10150000C1F80C0C7F4800687F490860714800688A
:1015100020F47F006F4908600846006840F4080026
:1015200008600846C06840F03000C860704710B5D9
:101530006E48007800B9CDE36D480078FA280CD1E8
:101540002A4800782C2804D04FF02C002749087036
:1015500003E04FF000002549087024480078A0B946
:10156000634800787D2805D100231A4619460320D8
:1015700000F099FF5E480078FD2805D16348008897
:1015800001B21E2000F0E2FFA3E318480078032810
:1015900029D157480078FE2810D114484078A0F18E
:1015A000010040B2114948704FF006024FF00001AF
:1015B0000E4800F1010001F03CFB8AE34C48007842
:1015C000FB2811D10948407800F1010040B20749D9
:1015D00048704FF006024FF00001044800F101008E
:1015E00001F027FB75E3A2E292E000005A00002020
:1015F000202020EDE5E8F1EFF0E0E2EDE02C202006
:10160000000000002020C2EEE7ECEEE6EDEE20EE5A
:10161000EDE0202000000000F0EEE2E0EDE020E24E
:10162000204641543136202000000000E8EBE8203D
:10163000EDE520EEF2F4EEF0ECE0F2E80000000060
:10164000202020EFE0F0EEEBFC20202020202020C6
:10165000000000002020C2E2E5E4E8F2E5202020BE
:1016600020202020000000004D000020000000206D
:10167000202020EDE5E2E5F0EDFBE921212120200D
:10168000000000002020202020CFE0F0EEEBFC2026
:1016900020202020000000002020202020202020CA
:1016A0002021202020202020000000008000002099
:1016B0007E000020D8000020DA000020D6000020A4
:1016C000D4000020E2000020E6000020080C0140C9
:1016D0006400002000100140680000206F0000201E
:1016E0006C0000206D0000207000002071000020C0
:1016F000600000206E00002000100240000C01403D
:10170000000001400C0C0140F0000020F40000201B
:10171000F84800787B2804D14FF00500F64948705E
:10172000D7E2F548407800287ED1F2480078DF28DB
:101730001DD1F248B0F900004FF00A0190FBF1F022
:1017400000F1010000EB80004FEA400000B2EB49DD
:1017500008804FF496724FF01E01E84801F074FAC9
:10176000E648B0F900100A2000F0F0FEB1E2E148CE
:1017700000785F281DD1E148B0F900004FF00A0160
:1017800090FBF1F000F1010000EB80004FEA400017
:1017900000B2DA4908804FF496724FF01E01D74824
:1017A00001F052FAD548B0F900100A2000F0CEFE40
:1017B0008FE2D0480078EF281DD1D048B0F9000062
:1017C0004FF00A0190FBF1F0A0F1010000EB800066
:1017D0004FEA400000B2C94908804FF496724FF0BA
:1017E0001E01C64801F030FAC448B0F900100A20C2
:1017F00000F0ACFE6DE2BF4800786F2890D1BF4882
:10180000B0F900004FF00A0190FBF1F0A0F10100E7
:1018100000EB80004FEA400000B2B84908804FF466
:1018200096724FF01E0100E009E0B44801F00CFA96
:10183000B248B0F900100A2000F088FE49E2AE4834
:10184000407801287ED1AB480078DF281DD1AC4814
:10185000B0F900004FF00A0190FBF1F000F1010037
:1018600000EB80004FEA400000B2A54908804FF429
:1018700096724FF00001A24801F0E6F9A048B0F9D5
:1018800000100E2000F062FE23E29A4800785F28E4
:101890001DD19B48B0F900004FF00A0190FBF1F018
:1018A00000F1010000EB80004FEA400000B29449D3
:1018B00008804FF496724FF00001914801F0C4F98E
:1018C0008F48B0F900100E2000F040FE01E2894878
:1018D0000078EF281DD18A48B0F900004FF00A01C6
:1018E00090FBF1F0A0F1010000EB80004FEA400016
:1018F00000B2834908804FF496724FF0000180488F
:1019000001F0A2F97E48B0F900100E2000F01EFE92
:10191000DFE1784800786F2890D17948B0F900006D
:101920004FF00A0190FBF1F0A0F1010000EB800004
:101930004FEA400000B2724908804FF496724FF0AF
:10194000000100E009E06E4801F07EF96C48B0F952
:1019500000100E2000F0FAFDBBE167484078022835
:1019600039D164480078DF2803D0624800785F28C6
:1019700014D16448008800F1010000B26149088078
:101980004FF03C024FF000015E4801F05DF95D4808
:10199000B0F900100C2000F0D9FD9AE1554800780C
:1019A000EF2803D0534800786F288FD1554800881E
:1019B000A0F1010000B2534908804FF03C024FF003
:1019C0000001504801F040F94E48B0F900100C20D9
:1019D00000F0BCFD7DE14848407803283DD14548F2
:1019E0000078DF2803D0434800785F2814D14648A8
:1019F000008800F1010000B2434908804FF0640202
:101A00004FF00A01404801F01FF93F48B0F90010BB
:101A1000122000F09BFD1BE036480078EF2803D031
:101A2000344800786F2813D137480088A0F10100AE
:101A300000B2354908804FF064024FF00A01324885
:101A400001F002F93048B0F90010122000F07EFDDC
:101A50004FF001002D4908703BE1274840780428E9
:101A600039D124480078DF2803D0224800785F2845
:101A700014D12748008800F1010000B224490880F1
:101A80004FF014024FF00101214801F0DDF8204829
:101A9000B0F90010102000F059FD1AE11548007847
:101AA000EF2803D0134800786F2893D11848008896
:101AB000A0F1010000B2164908804FF014024FF067
:101AC0000101134801F0C0F81148B0F900101020CE
:101AD00000F03CFDFDE00848407805281AD1054893
:101AE00000787D28B8D100231A461946022000F05C
:101AF000DAFCEEE0600000205A00002076000020B2
:101B00007A000020780000207E0000206F00002076
:101B10007C000020FF48407806289DD1FE480078D0
:101B20007D2899D10021084600F09EFCD1E0F948BB
:101B3000007802287ED14FF00100F8490870F6487D
:101B40000078FE2803D0F44800787E280DD1F148B3
:101B500090F90100F249085C00F1010040B2ED4942
:101B600091F90110EE4A505414E0EB480078FB283C
:101B700003D0E94800787B280CD1E64890F90100B1
:101B8000E749085CA0F1010040B2E24991F9011077
:101B9000E34A5054DF4991F90110E14A11440846E3
:101BA0000922002101F03AF8DB480078DF2810D143
:101BB000D848407800F1010040B2D64948704FF053
:101BC00002024FF00001D34800F1010001F026F8B5
:101BD00051E0D1480078EF2810D1CE484078A0F1EC
:101BE000010040B2CB4948704FF002024FF00001B3
:101BF000C84800F1010001F011F83CE0C648007847
:101C0000FD2838D1C64890F90200C54991F9011064
:101C100001EB810100EB4100C14991F9001001EB9A
:101C2000C10202EB011100EB8104BA4800780228DE
:101C300021D100E020E0A4F50070F13813D100219B
:101C4000084600F011FC00231A461946042000F053
:101C50002AFC0F20FFF7DCF84FF00000B0490870B5
:101C60004870887007E04FF00900AA4908704FF0EB
:101C70000F00FFF7CDF82CE0A64800782C2828D1DB
:101C8000A5480078EF2810D1A2484078A0F10100C3
:101C900040B2A04948704FF002024FF000019D4849
:101CA00000F1010000F0BAFF13E09B480078DF2844
:101CB0000FD19848407800F1010040B29549487032
:101CC0004FF002024FF00001924800F1010000F0D5
:101CD000A5FF00BF4FF000009249087010BD924868
:101CE0000068012807D14FF0000090490860904932
:101CF00008608D4908608D480068002845D08D48EF
:101D0000008800F101008B49088008460088B0F582
:101D1000007F02DB4FF000000880874800886428BD
:101D20000AD186488349098830F8110000F500403F
:101D300000B28349088011E080487E49098830F963
:101D400011008049B1F9001048434FF0640190FB45
:101D5000F1F000F5004000B2794908807848B0F908
:101D600000007949086073480088032803D14FF0C8
:101D70000100764908606F480088B0F5817F08D17E
:101D80004FF001007249086003E04FF400406E49D3
:101D9000086070480088401C00B26E490880B0F5A9
:101DA000DC7F67DD4FF0000008804FF001006A49DA
:101DB00008706A48007800F10100C0B267490870F5
:101DC0000A2806DB4FF0000008704FF0010064495C
:101DD000087064480078401CC0B26249087014283A
:101DE00012DB4FF0000008704FF001005E490870F0
:101DF0005E48007820B14FF000005C49087003E0B5
:101E00004FF001005949087059480078401CC0B291
:101E100057490870322812DB4FF0000008704FF06D
:101E20000100544908705448007820B14FF0000078
:101E30005149087003E04FF001004F4908704F48C6
:101E40000078401CC0B24D490870642812DB4FF086
:101E5000000008704FF001004949087049480078B7
:101E600020B14FF000004749087003E04FF0010037
:101E7000444908707047FEF7A3F94FF408704FF01B
:101E8000E02148614048FEF7FFF9FEF706FAFEF749
:101E9000F1F9FEF70CFE3D4908704FF000001D49B6
:101EA000087000F0AFFB0C2239490A2000F071FBEA
:101EB000C9E127480068002878D03648006840F417
:101EC00080603549C1F80C0C34480068A0F50070FA
:101ED0003249086008460068002803DA4FF0010024
:101EE0002F4908602F48007800F102002D49087042
:101EF000084600782C490978B0EB410F03DA2948ED
:101F00000078802878DB4FF00000264908704FF0F9
:101F100002014CE05A000020600000206F00002009
:101F20004D000020710000208C0000208400002063
:101F30009C000020D0000020D80000202E050020AA
:101F4000AC000020DA0000200C7400409400002057
:101F500090000020480000203B00002044000020AA
:101F60003D000020450000203E0000204A000020E7
:101F7000460000203F0000204B00002047000020CA
:101F8000400000204C000020A0860100ED00002051
:101F9000760000200C0C014000000140A000002051
:101FA00088000020AA000020B400002059E04FF073
:101FB0001000FEF7F6F9A4480088A4490860084616
:101FC00000684FEA4000086008460068A0490968B8
:101FD00008449E4908609C499C480068FEF7B1FE91
:101FE000994800884FF6F871884204DB96480088CB
:101FF000B0F5803F00DB00BF9648006868BB9248A0
:102000000088924908600846006893490978484367
:102010008E490860084600684FEA4000086008469C
:1020200000688E49097808448849086008460068B5
:102030004FEA00200860084600688949096808449A
:10204000824908604FF400714FF01000FEF7A9F9C3
:1020500084497E480068FEF7A4FE4FF000008249E4
:1020600008607C480068012805D1804908604FF06D
:102070000000784908607E48006800287ED07D48CE
:10208000006820F480607C49C1F80C0C7B48006833
:10209000A0F500707949086008460068002803DA56
:1020A0004FF001006B4908606C48007800F10200B5
:1020B0006A4908700846007867490978B0EB410F13
:1020C00003DA6648007880282ADB4FF00000634975
:1020D00008704FF002014FF01000FEF762F95A4805
:1020E00000885A490860084600684FEA40000860C6
:1020F000084600685649096808445449086052492E
:1021000052480068FEF71DFE4F4800884FF6F871F0
:10211000884204DB4C480088B0F5803F00DB00BFFC
:102120004C48006858BB4848008848490860084641
:1021300000684949097848434449086008460068EE
:102140004FEA40000860084600684449097808449E
:102150003E490860084600684FEA002008600846CB
:1021600000683F4909680844384908604FF4007125
:102170004FF01000FEF715F9414901E008E003E0D7
:1021800032480068FEF70DFE4FF000003849086045
:1021900030480068012807D1344908604FF000003A
:1021A0002C490860374908703748007818B14FF05B
:1021B0000000354908703548007878B14FF00000CC
:1021C00032490870FFF7EFF8FFF7B1F9FEF748FD65
:1021D000FEF7E1FBFEF72DFCFEF74FFB2C480078E5
:1021E00070B14FF000002A490870FEF726FE29481A
:1021F00000F092FCFEF70FFEFEF7F2FAFEF79BFAF4
:102200002548007848B14FF0000023490870234862
:10221000008800F10100214908802148007890B130
:102220004FF000001E4908704FF00C021D494FF09E
:102230000A0000F0AEF9FEF75FFB1B48007800F1E2
:1022400001001949087034E6A8000020A40000200D
:10225000C000002088000020B4000020AA00002058
:10226000C80000202E050020900000208C000020D7
:10227000940000200C0C014000000140A000002050
:102280002E0700205A0000203A0000203B000020CA
:102290003D000020000000203E000020F40000204F
:1022A0004000002076000020F800002001464FF09A
:1022B0000002104600BF00F10102D2B210469D4A52
:1022C000125C8A4201D02828F5DB70474FF00502E6
:1022D00011464FF00002114610E04FF00A02B0FB29
:1022E000F2F302FB1302944B5A544FF00A02B0FB74
:1022F000F2F2104601F10102D2B211460529ECDBDF
:10230000704710B501464FF001028C4B1A704FF028
:102310000502104622E0894A127862B1421E864BBD
:102320009A5C42B9884206DD4FF02003A0F1010219
:10233000814CA3540EE0A0F101027F4B9A5C02F1A4
:102340003002D3B2A0F101027B4CA3544FF0000243
:102350007A4B1A70A0F10102D2B210460028DADCE2
:1023600010BD2DE9F04381460F4690461D46484674
:10237000FFF7ACFF681CC0B2FFF7C3FF08EB071004
:10238000C0B206464FF0000004461FE0AC4203DA3C
:102390006948005D67498855AC420FDB6648005DBF
:1023A00020280BD025B96448005D6249885505E0B6
:1023B0006148015DA6F101005E4A1154A6F10100D9
:1023C000C0B2064604F10100C0B20446052CDDDBB4
:1023D000BDE8F0832DE9F04180460F4615464046A2
:1023E000FFF774FF681CC0B2FFF78BFF3846FFF79A
:1023F0005DFF06464FF00000044631E045B94E4807
:10240000005D202804D04C48005D4A4988551FE0F3
:10241000AC4204DA4848005D4649885518E0AC42B1
:102420000AD14FF02E00434988554348015DA6F17B
:102430000100404A11540BE0AC4209DD3E48005D0A
:10244000202805D03C48015DA6F10100394A11540D
:10245000A6F10100C0B2064604F10100C0B2044674
:10246000052CCBDBBDE8F08110B5354A1288A2F10E
:10247000010212B2324B1A801A461288024412B27A
:102480001A801A46B2F9002002EB82022D4B1A4440
:102490002D4B14681C6012791A711A4652780A443E
:1024A00052B25A7010BD70B5254CB4F90050248852
:1024B00004F1010424B2224E348005EB8504214D41
:1024C0002C44214D2E6826602D7925711E4C2070DC
:1024D0004CB21D4D6C7054B22C715CB2AC7070BDBE
:1024E00030B502464FF00004234607E04FF02004C9
:1024F000104DEC5403F10104E4B22346282BF5DB24
:102500000C4807E01478047002F10104224600F13F
:10251000010420461478002CF4D107E00C780470F4
:1025200001F10104214600F1010420460C78002C41
:10253000F4D130BD000000205100002056000020E2
:102540002C000020FC0400205A00002070B5054635
:102550000C4600F074F8A02000F07CF900F0BAF806
:1025600000B113E0E8B200F075F900F0B3F800B183
:102570000CE0E0B200F06EF900F0ACF8C4F3072113
:10258000084600F067F900F0A5F800BF00F0B4F9C4
:1025900070BD2DE9F04106460D46174600F04FF894
:1025A000A02000F057F900F095F800B126E0F0B255
:1025B00000F050F900F08EF800B11FE000F05FF875
:1025C000A12000F047F900F085F800B116E04FF0C7
:1025D000000409E000F0B4F82855012000F000F9EB
:1025E00004F10100C0B20446781EA042F2DC00F003
:1025F000A7F82855002000F0F3F800BF00F07CF9A0
:10260000BDE8F081D048006820F07F40CF49C1F894
:10261000000C0846D0F8000C40F0AA40C1F8000CAD
:10262000CB48C06940F00800C949C861C748D0F824
:102630000C0C40F0C000C549C1F80C0C704710B537
:10264000C448006820F08000C049C1F80C0C08465E
:10265000D0F80C0C40F04000C1F80C0C4FF0050015
:10266000FDF712FEB948D0F80C0C20F04000B74935
:10267000C1F80C0C4FF00500FDF706FE10BD10B5BB
:10268000B448006820F04000B049C1F80C0C08467E
:10269000D0F80C0C40F08000C1F80C0C4FF0050095
:1026A000FDF7F2FDA948D0F80C0C40F04000A94914
:1026B00008604FF00500FDF7E7FDA448D0F80C0CCA
:1026C00020F08000A149C1F80C0C4FF00500FDF787
:1026D000DBFD10BD10B59F48006840F080009B49AD
:1026E000C1F80C0C0846D0F80C0C20F04000C1F8E2
:1026F0000C0C4FF00300FDF7C7FD9448D0F80C0C0C
:1027000040F04000934908604FF00300FDF7BCFD26
:102710009048001F006810F0800F02D04FF00104B5
:1027200001E04FF000048B48006820F0400087492A
:10273000C1F80C0C4FF00300FDF7A6FD60B210BD10
:1027400070B54FF0000004468248006840F08000F9
:102750007E49C1F80C0C4FF0000005463CE07D4876
:10276000006820F040007949C1F80C0C0846D0F808
:102770000C0C40F08000C1F80C0C4FF00300FDF78A
:1027800083FD7248D0F80C0C40F040006F49C1F84E
:102790000C0C4FF00200FDF777FD4FEA44604FEA62
:1027A000106004466C48006810F0800F03D044F0BD
:1027B0000100044602E004F0FE0004460120FDF79B
:1027C00063FD6448006820F040006049C1F80C0CCB
:1027D00005F10100C0B20546082DC0DB204670BDE2
:1027E00010B504465B48006820F040005749C1F826
:1027F0000C0C4FF00300FDF747FD14F0010F07D05C
:102800005448006820F080005049C1F80C0C06E0E4
:102810005048006840F080004C49C1F80C0C03207F
:10282000FDF732FD4B48006840F040004749C1F8D1
:102830000C0C4FF00300FDF727FD4448D0F80C0CBA
:1028400020F040004149C1F80C0C4FF00100FDF7A9
:102850001BFD10BD70B504463E48006820F04000E6
:102860003A49C1F80C0C4FF00300FDF70DFD4FF095
:102870000800054634E014F0800F07D035480068A2
:1028800040F080003149C1F80C0C06E03148006886
:1028900020F080002D49C1F80C0C0320FDF7F4FC5A
:1028A0004FEA44604FEA106004462A48006840F04E
:1028B00040002649C1F80C0C4FF00400FDF7E4FC81
:1028C0002248D0F80C0C20F040002049C1F80C0C34
:1028D0004FF00200FDF7D8FCA5F1010040B205461B
:1028E000012DC8DA1B48006840F080001749C1F884
:1028F0000C0C4FF0000070BD10B51648006820F0B9
:1029000080001249C1F80C0C0846D0F80C0C40F0BD
:102910004000C1F80C0C4FF00500FDF7B5FC0B486A
:10292000D0F80C0C40F080000A4908604FF0050018
:10293000FDF7AAFC0548D0F80C0C40F080000349D4
:10294000C1F80C0C10BD0000000C0140000001405B
:10295000001002400C0C0140080C01402F48806917
:1029600041F2150140EA01002C4988612C48406879
:1029700020F001002A4948604FF010002949086002
:102980002748D0F8000880B22549C1F80008264839
:102990000068264940EA01002149C1F8000824489E
:1029A000006820F47060224908600846006840F41E
:1029B000407008604FF455701E4908804FF00000C9
:1029C00088807047012806D11A49098821F038010A
:1029D000184A118005E01749098841F03801154A65
:1029E0001180704710B14FF0040101E04FF48021D5
:1029F0000F4A11617047014600BF0E48008910F070
:102A0000020FFAD00B48818100BF0A48008910F0FC
:102A1000010FFAD007488089C0B270470010024009
:102A20000000014010080140000801400000B3B858
:102A3000001001400030014000BF00BF0100A0F1C4
:102A400001021046FAD1704710B504466448C068C8
:102A500040F400606249C8600846C06864F38910A9
:102A6000C8604FF00200FFF7E7FF5D48C06820F440
:102A700000605B49C8604FF00200FFF7DDFF10BD4A
:102A800010B504464FF0C800FFF7D6FF5448C068A1
:102A900040F480605249C8604FEA24110846FFF7AD
:102AA000D3FF2046FFF7D0FF10BD10B504462046E7
:102AB000FFF7E6FF10BD10B5044640F2DC50FFF70B
:102AC000BBFF4748C06820F480604549C8604FEAB2
:102AD00024110846FFF7B8FF2046FFF7B5FF10BDE9
:102AE00070B504460D4605EB850004EBC000C0B28E
:102AF000064606F07F0000F18000C0B20646304670
:102B0000FFF7D9FF70BD10B50120FFF7D4FF0021FA
:102B10000846FFF7E5FF10BD70B506464FF0000010
:102B2000054601460846FFF7DBFF00BF745D04B9A8
:102B30000DE02046FFF7B9FF05F10100C0B20546E0
:102B4000102D03D101210020FFF7CAFFEEE770BD71
:102B500010B52448806940F010002249886120485F
:102B600000686FF30F0040F04C501D4908600846A4
:102B700040681D4900EA010043F2333140EA010098
:102B80001749486040F2DC50FFF756FF1448C06810
:102B900020F480601249C8604FF00300FFF754FF33
:102BA00041F20400FFF748FF0320FFF74DFF6420C8
:102BB000FFF742FF0320FFF747FF0220FFF744FF24
:102BC0002820FFF778FF0C20FFF775FF0620FFF79E
:102BD00072FF4020FFF76FFF8020FFF76CFF10BDF2
:102BE0000010014000100240FF00F0FF4FF0000213
:102BF00011460CE0425CA62A05DD425CA2F1A70268
:102C0000054B9A5C425401F10102D2B21146425C7A
:102C1000002AEFD1704700003C2D000890F90030E9
:102C20008B4200DA027090F90030934200DD0170AF
:102C3000704790F900308B4200DA017090F9003053
:102C4000934200DD02707047B0F900308B4200DA29
:102C50000180B0F90030934200DD02807047B0F986
:102C600000308B4200DA0280B0F90030934200DD80
:102C70000180704710B5431C02E010F8011B71B1D0
:102C80008107FAD14FF0013202C88C1A8C4314EA42
:102C9000C211F9D0C01A0A0603D0C01E10BDC01A56
:102CA00010BD0A0401D0801E10BD0902FCD0401ED8
:102CB00010BD704770477047754600F029F8AE4662
:102CC00005006946534620F00700854618B020B538
:102CD000FDF768FABDE820404FF000064FF000070E
:102CE0004FF000084FF0000B21F00701AC46ACE8B4
:102CF000C009ACE8C009ACE8C009ACE8C0098D4621
:102D000070470446AFF300802046FDF738FA000014
:102D100000487047940D002000487047980D00202F
:102D200001491820ABBEFEE726000200704710B52F
:102D3000FFF7F2FF4FF00001016010BDFDA2FFAAF6
:102D4000C8ACADAEAFB0B1D769B4B5FEDFB5CCBAE3
:102D5000C9BCBDBEBF41A042A1E045A3A4A5A64BEE
:102D6000A74D484FA8504354A9AA58E1ABACE2ADD7
:102D7000AEC4AFB0B161B2B3B4E365B6B7B8B9BA77
:102D8000BBBCBD6FBE7063BF79AA78E5C0C1E6C2A7
:102D9000C3C4C5C6C7000000B82D0008000000204D
:102DA000FC00000028010008B42E0008FC000020F0
:102DB000FC0E0000440100082A2E2E2E2E2E2E2E50
:102DC0002E2E2E2E2E2E2E2E402E2E2E2E2E2E2E11
:102DD0002E2E2E2E2E2E2E20000000000000000091
:102DE0003200000000000A00020200006400190026
:102DF00006000000000000000000000000000000CD
:102E000000000000000000000000000000000000C2
:102E100000000000000000000000000000000000B2
:102E200000000000000000000000000000000000A2
:102E30000000000000000000000000000000000092
:102E40000000000000000000000000000000000082
:102E50000000000000000000000000000000000072
:102E60000000000000000000000000000000000062
:102E70000000000000000000000000000000000052
:102E80000000000000000000000000000000000042
:102E90000000000000000000000000000000000032
:102EA0000000000000000000000000000000000022
:042EB000000000001E
:04000005080000ED02
:00000001FF
