:020000040800F2
:10000000F80F00208D0100089101000893010008FD
:100010009501000897010008990100080000000000
:100020000000000000000000000000009B0100082C
:100030009D010008000000009F010008C71A000889
:10004000A3010008A3010008A3010008A301000800
:10005000A3010008A3010008A3010008A3010008F0
:10006000A3010008A3010008A3010008A3010008E0
:10007000A3010008A3010008A3010008A3010008D0
:10008000A3010008A3010008A3010008A3010008C0
:10009000A3010008A3010008A3010008A3010008B0
:1000A000A3010008A3010008A3010008A3010008A0
:1000B000A3010008A3010008A3010008A301000890
:1000C000A3010008A3010008A3010008A301000880
:1000D000A3010008A3010008A3010008A301000870
:1000E000A3010008A3010008A301000800F002F822
:1000F00000F03CF80AA090E8000C82448344AAF186
:100100000107DA4501D100F031F8AFF2090EBAE883
:100110000F0013F0010F18BFFB1A43F0010318473B
:10012000DC280000FC280000103A24BF78C878C101
:10013000FAD8520724BF30C830C144BF04680C60ED
:10014000704700000023002400250026103A28BF35
:1001500078C1FBD8520728BF30C148BF0B60704739
:100160001FB502F016FC1FBD10B510BD02F0D6FB86
:100170001146FFF7F5FF01F05BFD02F0F4FB03B45D
:10018000FFF7F2FF03BC02F0FDFB00000848004748
:10019000FEE7FEE7FEE7FEE7FEE7FEE7FEE7FEE737
:1001A000FEE7FEE703480449024A044B704700009B
:1001B000ED000008F80D0020F80F0020F80D0020D9
:1001C00000BF12202049086000BF00BF1F4820491F
:1001D00048602048086000BF00BF1D48006810F05C
:1001E000007FFAD000BF1A48406800F00C000828D1
:1001F000F9D100BF00BF18484FF0E0214861062048
:100200000861002088610846006940F0010008612B
:1002100000BF00BF0E48806940F008000C498861AB
:100220004FF06E400D4908604FF44070091D0860A2
:100230000748806940F0100005498861002008499E
:100240000860486000BF704700200240028412002E
:1002500000100240820000017FA90300000C014051
:100260000010014010B502F0AEFA02F08BFA002146
:10027000084602F077FA10BD00EB800100BF4A1E6D
:100280001100FCD17047FE48C06940F00050FC49A5
:10029000C8610120FB490860704730B502460B4633
:1002A0000020002105E0545C5D5CAC4200D00120E0
:1002B000491C0829F7D330BD2DE9F04106460C460C
:1002C000002746F0400002F0E1F9200E02F0DEF9CE
:1002D000C4F3074002F0DAF9C4F3072002F0D6F9BC
:1002E000E0B202F0D3F9952002F0D0F900BFFF2070
:1002F00002F0CCF90546781CC7B2FF2D01D1FC2FC6
:10030000F5DB2846BDE8F0812DE9F04106460F46B1
:1003100002F074F9002002F0B1F931461120FFF724
:10032000CBFF8046B8F1000F16D100BFFF2002F0CE
:10033000ADF90546FE2DF9D1002405E0FF2002F0BD
:10034000A5F93855601C84B2202CF7DBFF2002F0A1
:100350009DF9FF2002F09AF9012002F08FF9FF20A9
:1003600002F094F94046BDE8F08170B504460D46B0
:1003700002F044F9002002F081F929462046FFF7F7
:100380009BFF0646012002F079F9FF2002F07EF97A
:10039000304670BD2DE9FF5F0546884691469A4676
:1003A000DDF838B008EB8800400000B2B64908809C
:1003B0000020B64908800F9818B90020B449088079
:1003C00009E0109800EB8000AF490988A1EB4000DC
:1003D00000B2AF490880AF48A0F800B0B9F1000FF3
:1003E00006D1AD48A0F800B00020AC49087011E07B
:1003F0001420A94908800120A849087064200AFB3C
:1004000000F0A449B1F90010143990FBF1F000B2EA
:10041000A34908802C4630208DF800008DF801009B
:100420008DF802008DF803008DF804008DF80500AA
:100430008DF806008DF8070000208DF808000A20CE
:1004400094FBF0F100FB11403030C0B28DF8070092
:100450000A2094FBF0F004B20A2094FBF0F100FBB8
:1004600011403030C0B28DF806000A2094FBF0F045
:1004700004B20A2094FBF0F100FB11403030C0B20E
:100480008DF805000A2094FBF0F004B20A2094FBDA
:10049000F0F100FB11403030C0B28DF80400684626
:1004A00002F01AFAC7B220211020FFF75EFF0646BD
:1004B0000EB1BDE8FF9F7B494FF4DF70FFF724FFCB
:1004C000064606B1F5E77748C01EC07A764908703F
:1004D0007448C01E007B48707248C01E407B887004
:1004E0007048C01E807BC8700846006840020860E3
:1004F0006C496D480068FFF707FF06466948C01E53
:10050000007C6A4908706748C01E407C68490870D2
:100510006448C01E807C48706248C01EC07C65492B
:1005200008706048C01E808A634908805D48C01E0C
:10053000B0F81900614908805B4800685C49098887
:1005400000EB41205E4908605C48008841025C483D
:100550000068584A127802FB01005A4908600846B0
:1005600000685549098800EB411050490978A0EB13
:1005700081205549086000205449088012E0514903
:100580000968524A128801EB42105149FFF7BCFE3C
:1005900069464F48FFF781FE07464C480088401CDB
:1005A0004A4908804948008843490988884201DA55
:1005B000002FE4D145480088FF2801DD002F3DD100
:1005C0004348007F434908704148407F4870404895
:1005D000807F88703E48C07FC8703D48408B3E4950
:1005E000088000203D4908703B4800883C4908606D
:1005F000084600682D49097848433949086008468B
:10060000006836490978084435490860084600689A
:1006100040020860084600682B49096808443049D0
:10062000086001202F4908602F4908602F490860A1
:10063000FA202F49088000202E49086000BF38E7C3
:1006400011480088D0B11048B0F900000F49B1F945
:100650000010884256DD0D480088401C00B20B494E
:1006600008800846B0F900000749B1F90010884237
:1006700048DB00200449088004493DE042E00000D6
:100680000010024000740040D4000020D20000207E
:10069000D6000020DC000020D8000020320000201E
:1006A00034000020630D0020B0000020B4000020C2
:1006B000B6000020B8000020BA000020BC000020D6
:1006C000C0000020C4000020C8000020CE00002090
:1006D0002E0D0020A0000020A8000020AA0000206D
:1006E000A40000208400002094000020900000203E
:1006F000D0000020880000200880FB4908800120ED
:10070000FA490860FA480088E8B1F948B0F90000F1
:10071000F849B1F90010884215D1FF20F649087058
:10072000F648B0F90000F249B1F90010401A00EBA8
:1007300080004100F248B0F900000A3891FBF0F067
:1007400000B2F049088070470120E84908600020A5
:10075000E8490880704710B5EB48006820F4704005
:10076000E94908600846006840F400500860E7481E
:10077000008888B1E5480088401E00B2E34908803F
:10078000E1480C30006840F00800DF490C31086097
:100790000020DF49088007E0DB480C30006820F0CB
:1007A0000800D9490C310860DA48B0F90000401F50
:1007B00000EB8000D549B1F90010B1EB400F11D129
:1007C000D5480088401C00B2D349088042F20F721D
:1007D0000021D14802F075F8CF48B0F9001014207C
:1007E00001F02EFD10BD10B5CC480088401C00B2B1
:1007F000CA4908800846B0F90000C249B1F90010A2
:1008000088421FDB0020C5490880BB4800780128CA
:1008100006D1B5480088401C00B2B34908800AE000
:10082000B54890F90000401C05D1AF480088401E33
:1008300000B2AD490880B248B0F900200021AA48B2
:1008400002F034F8A848B0F900004043642190FB5E
:10085000F1F000B2B249088010BD3EB5B148008841
:10086000E8B3B1480088D0B3A9480088401C00B262
:10087000A74908800846B0F90000AB49B1F900105B
:10088000884230DB0020A2490880A8480088401C2C
:1008900000B2A6490880A648B0F900200121A3486B
:1008A00002F00FF89F48B0F90000052190FBF1F02D
:1008B000C5B29C48B0F9000090FBF1F0C4B2012031
:1008C000322123460246CDE9010500919548B0F951
:1008D00000109648B0F90000FFF75CFD03E0FFE769
:1008E00000208B4908803EBD9248006820F47F209C
:1008F000904908600846006840F4082008608D4868
:100900000830006840F4C0508A4908310860081F68
:10091000006810F4006F10D1874800780A280FDAB9
:1009200085480078401C84490870084600780A28E9
:1009300006DB01208149087002E000207E49087032
:100940007C48001D006810F4805F10D17C4800785E
:100950000A280FDA7A480078401C7949087008465E
:1009600000780A2806DB01207649087002E00020A2
:100970007349087070470EB57048007848B300207E
:100980006E4908706348008800EB8000400000B2A8
:100990005E4908806C480088401C00B26A490880A3
:1009A0006348B0F900200121674801F08AFF0A215D
:1009B000012266480088C0B20523CDE901210090DC
:1009C000544800880A3001B25F48B0F90000FFF7D0
:1009D000E1FC5C48007830B100205A4908704B496E
:1009E0000880FFF7B1FE0EBD70B500200446054635
:1009F00001F004FE00BF012001F040FE72B6FF20AE
:100A000001F044FEFF2001F041FEFF2001F03EFE18
:100A1000FF2001F03BFE62B672B6FF2001F036FE09
:100A2000FF2001F033FEFF2001F030FEFF2001F037
:100A30002DFE62B672B6FF2001F028FEFF2001F005
:100A400025FEFF2001F022FEFF2001F01FFE62B60E
:100A500000210846FFF789FC0546641C0A2C01D9D1
:100A60000A2070BD012DC6D100213720FFF77DFC83
:100A7000054600212920FFF778FC0546012D14DCEE
:100A8000002400BF00213720FFF76FFC054600213E
:100A90002920FFF76AFC0546641CB4F57A7F01D96A
:100AA0002046DEE7002DEDD10EE0002400BF00213E
:100AB0000120FFF75AFC0546641CB4F57A7F01D982
:100AC0002046CEE7002DF2D100213B20FFF74DFC60
:100AD00005464FF400711020FFF747FC0546012042
:100AE00001F0BCFD2846BCE7D800002088000020AB
:100AF000D6000020D200002032000020D4000020C8
:100B0000DC0000203400002000080140E20000204A
:100B1000360000207600002080000020DE0000204B
:100B2000DA000020780000207A000020E800002091
:100B30007C000020040C01407200002074000020A2
:100B40007300002075000020E60000207E000020D9
:100B500010B5F948006820F00F00F7490860084612
:100B6000006840F008000860F3480C30006840F06E
:100B70000100F1490C310860081F006810F0010FF6
:100B800011D0EE48008808B3EC480088401E00B23F
:100B9000EA4908800846B0F90000002816DC002069
:100BA000E749087012E0E548B0F9000014280DDAB2
:100BB000E2480088401C00B2E04908800846B0F9CD
:100BC0000000142802DB0120DD490870DC480078B1
:100BD00048B9DC48007830B100231A461946152080
:100BE00001F0E9FA18E0D6480078012814D1D54878
:100BF0000078012810D0FFF7F7FE30B100231A4625
:100C00001946162001F0D7FA06E00320CC490870F7
:100C10000021084601F0B1FAC9480078C9490870B6
:100C200010BD2DE9F04106460C4601F0E7FC01201D
:100C300001F014FD002001F021FD31461120FFF7E5
:100C40003BFB0746A7B900BFFF2001F01FFD05468B
:100C5000FE2DF9D1FF2001F019FD2070FF2001F0D9
:100C600015FD6070FF2001F011FDFF2001F00EFD69
:100C7000012001F003FDFF2001F008FD3846BDE82A
:100C8000F0812DE9F04106460F4601F0B7FC012046
:100C900001F0E4FC002001F0F1FC31461120FFF7E7
:100CA0000BFB8046B8F1000F16D100BFFF2001F00A
:100CB000EDFC0546FE2DF9D1002404E0FF2001F0F3
:100CC000E5FC3855641CB4F5007FF7D3FF2001F034
:100CD000DDFCFF2001F0DAFC012001F0CFFCFF2059
:100CE00001F0D4FC4046BDE8F08197490870704798
:100CF00010B59548007858B193480078401E924945
:100D000008700846007818B90021084601F035FA45
:100D100010BD10B59EB08D480078002845D18C4894
:100D20000088F0B98BA190A001F061FA9348B0F966
:100D300000003C2190FBF1F084B2002221212046EA
:100D400001F0DAF98D48B0F900003C2190FBF1F296
:100D500001FB120084B200224021204601F0CCF9B0
:100D60008CE287A18BA001F042FA7948B0F900002B
:100D70000A2190FBF1F03C2190FBF1F084B20022BB
:100D8000204601F0B9F97248B0F900000A2190FB41
:100D9000F1F03C2190FBF1F201FB120084B2002241
:100DA0003E21204601F0A8F968E26848007803284F
:100DB0007ED17DA0009081A0019085A0029089A0A5
:100DC000039079A004908CA0059090A0069094A028
:100DD000079098A008909CA00990A0A00A90A4A0B9
:100DE0000B90A8A00C90ACA00D90584A92F901204D
:100DF000012303EB42025DF82210544A92F90120CC
:100E000052005DF8220001F0F2F95C48B0F90000F0
:100E10003C2190FBF1F084B200222121204601F018
:100E20006BF95648B0F900003C2190FBF1F201FB50
:100E3000120084B200224021204601F05DF99B4857
:100E4000B0F900003C2190FBF1F084B20022232194
:100E5000204601F051F99548B0F900003C2190FB83
:100E6000F1F201FB120084B200222421204601F09D
:100E700043F98F48B0F900003C2190FBF1F084B2B7
:100E800000222521204601F037F98948B0F90000F9
:100E90003C2190FBF1F201FB120084B200225E21A2
:100EA000204601F029F9002228218248008800E02C
:100EB0000AE080B201F020F9002229217E48008852
:100EC00080B201F019F9D9E120480078152804D141
:100ED0007AA17FA001F08BF9D0E11C480078162898
:100EE00028D180480078401C7E4908700846007868
:100EF00014280EDD0020087014480079401C40B210
:100F000012490871084690F90400022801DD00200A
:100F100008710E48007920B973A178A001F067F933
:100F2000ACE10A480079012805D179A17DA001F042
:100F30005EF9A3E109E1FFE0000801402E00002076
:100F400030000020310000205F0000205A00002007
:100F5000E200002020E2F0E5ECFF202020203021FC
:100F60003A3040200000000020D3F1F2E0EDEEE244
:100F7000EBE5EDEDEEE5202000000000760000201E
:100F800020EEF1F2E0EBEEF1FC20303C3A303E2076
:100F9000000000002020C4EE20EEEAEEEDF7E0EDC8
:100FA000E8FF20200000000020C4EBE8F2E5EBFCA5
:100FB000EDEEF1F2FC2020200000000020F1E5E041
:100FC000EDF1E020202021EC304063200000000003
:100FD00020CFE5F0E8EEE4E8F7EDEEF1F2FC2020BA
:100FE0000000000020E4E5ECEEE8E3F0FB2023EC59
:100FF0003024F1200000000020E4E5ECEEE8E3F00E
:10100000FB2025EC305EF1200000000020C3F0EE54
:10101000ECEAEEF1F2FC202020202020000000006D
:1010200020E7E2F3EAE020202020202020292020D1
:101030000000000020CAEEEBE8F7E5F1F2E2EE2056
:10104000202020200000000020F4E0E9EBEEE22068
:1010500020202020202820200000000020D1F7E5BB
:10106000F2F7E8EA202020202020202000000000C5
:1010700020F1E5E0EDF1EEE22020202020202020EC
:101080000000000020C2FBF5EEE4202020202020FC
:1010900020202020000000002020202020202020D0
:1010A0002020202020202020000000007A000020A6
:1010B000780000207C0000207E0000202020EAE054
:1010C000F0F2E020EFE0ECFFF2E82020000000006A
:1010D0002020CEF2F1F3F2F1F2E2F3E5F22020204B
:1010E0000000000039000020E8EDE8F6E8E0EBE859
:1010F000E7E8F0F3E5F2F1FF00000000CAE0F0F2EB
:10110000E020EFE0ECFFF2E820EDE5200000000039
:10111000202020EDE5E8F1EFF0E0E2EDE02C2020EA
:10112000000000002020C2EEE7ECEEE6EDEE20EE3F
:10113000EDE0202000000000EE480079022803D1F5
:10114000EDA1F2A001F053F898E0EA4800780228F7
:1011500018D1F3A1F7A001F04AF8FB48007830302D
:10116000FA49C872F848407830300873F6488078F9
:10117000303048735E21DF4890F901001B30F34A9C
:1011800011547BE0DB480078092804D1F0A1F5A0D8
:1011900001F02DF872E0D748007804280CD1AFF2A6
:1011A0000811F5A001F023F800222121F74800885A
:1011B00080B200F0A1FF61E0CE4800782C285DD11C
:1011C000AFF22C11AFF2301001F011F8C94840789D
:1011D000F0BB00231A461946012000F05CFF0023F3
:1011E00002220121EA48008880B200F054FF002367
:1011F0000F221946E748008880B200F04CFF002318
:101200000F220121E448008880B200F044FF00234F
:101210000C221946E148008880B200F03CFF002310
:101220000C220121DE48008880B200F034FF002348
:1012300005221946DB48008880B200F02CFF00230D
:1012400005220121D848008880B200F024FF15E073
:10125000FFE7A8484078012806D100231A4619461E
:10126000022000F018FF09E0A2484078022805D1CA
:1012700000231A461946032000F00DFFB34801F081
:10128000EDFA1EB010BDC948006860F00700C849FB
:101290000860C848806860F0300009680840C449A8
:1012A000086008460068401C05D008460068C2492E
:1012B000096888422ED00020C0490870C0480078D4
:1012C000042802DABF48007848B1BF48007830B936
:1012D0000120BE490870B8480068BD490870B94887
:1012E0000078BC490978884208DB0120B7490870BA
:1012F000B148006800F07F00B54908700020B2498D
:1013000008701420B34908700020AD490870AD4939
:10131000087038E0A6480068A7490968884231D1BA
:10132000A7480078401CA6490870084600780428A1
:1013300028DB00200870A3480078401CA1490870F1
:1013400008460078A349097888421BDB9A48006860
:1013500000F07F009E49087000209A490870012023
:101360009A490870984908709448007850B1994893
:10137000007840109749087008460078022801DC80
:101380000220087000BF8A4800688B4908609248B4
:10139000806940F0180090498861844808380068E6
:1013A0006FF30B008149083908600846006840F671
:1013B000880108437D49083908607C48001D0068A1
:1013C00040F007007949091D086008460068834914
:1013D00008607848006820F47F0076490860084675
:1013E000006840F4080008600846C06840F030001B
:1013F000C860704710B57548007800B95FE374485D
:101400000078FA280AD13B4800782C2803D02C20F9
:101410003849087002E000203649087035480078E5
:10142000A0B96B4800787D2805D100231A461946DB
:10143000032000F0C0FE66480078FD2805D168480A
:10144000008801B21E2000F0FBFE37E32948007837
:1014500003284BD15E480078FE280CD125484078FF
:10146000401E40B223494870062200212148401CFA
:1014700001F011FA22E356480078FB280CD11D48F0
:101480004078401C40B21B49487006220021194890
:10149000401C01F000FA11E34D4800787B2803D18D
:1014A00005201449487009E31248407800281ED1ED
:1014B00047480078DF281BD14A48B0F900000A21CC
:1014C00090FBF1F0401C00EB8000400000B2454969
:1014D00008804FF496721E21424801F0E7F9414816
:1014E000B0F900100A2000F0ABFEE7E21AE2D5E006
:1014F0007AE000005A000020F0EEE2E0EDE020E2A9
:10150000204641543136202000000000E8EBE8205E
:10151000EDE520EEF2F4EEF0ECE0F2E80000000081
:10152000202020EFE0F0EEEBFC20202020202020E7
:10153000000000002020C2E2E5E4E8F2E5202020DF
:1015400020202020000000004D000020000000208E
:10155000202020EDE5E2E5F0EDFBE921212120202E
:10156000000000002020202020CFE0F0EEEBFC2047
:1015700020202020000000002020202020202020EB
:1015800020212020202020200000000080000020BA
:101590007E000020D8000020DA000020D6000020C5
:1015A000D4000020E2000020E6000020080C0140EA
:1015B0006400002000100140680000206F0000203F
:1015C0006C0000206D0000207000002071000020E1
:1015D000600000206E00002000100240F00000209B
:1015E000F400002076000020FC4800785F2819D124
:1015F000FB48B0F900000A2190FBF1F0401C00EB21
:101600008000400000B2F64908804FF496721E2117
:10161000F34801F04BF9F248B0F900100A2000F04D
:101620000FFE4BE2ED480078EF2819D1EC48B0F9F5
:1016300000000A2190FBF1F0401E00EB800040000A
:1016400000B2E74908804FF496721E21E44801F089
:101650002DF9E348B0F900100A2000F0F1FD2DE269
:10166000DE4800786F28DCD1DD48B0F900000A219F
:1016700090FBF1F0401E00EB8000400000B2D84922
:1016800008804FF496721E21D54801F00FF9D44816
:10169000B0F900100A2000F0D3FD0FE2D1484078E5
:1016A000012878D1CD480078DF2819D1CE48B0F98B
:1016B00000000A2190FBF1F0401C00EB800040008C
:1016C00000B2C94908804FF496720021C64801F063
:1016D000EDF8C548B0F900100E2000F0B1FDEDE1C5
:1016E000BE4800785F2819D1BF48B0F900000A2130
:1016F00090FBF1F0401C00EB8000400000B2BA49C2
:1017000008804FF496720021B74801F0CFF8B64830
:10171000B0F900100E2000F093FDCFE1AF48007843
:10172000EF2819D1B048B0F900000A2190FBF1F080
:10173000401E00EB8000400000B2AB4908804FF42F
:1017400096720021A84801F0B1F8A748B0F900103E
:101750000E2000F075FDB1E1A04800786F289CD103
:10176000A148B0F900000A2190FBF1F0401E00EB07
:101770008000400000B29C4908804FF4967200211E
:10178000994801F093F89848B0F900100E2000F045
:1017900057FD93E1FFE793484078022833D18F4803
:1017A0000078DF2803D08D4800785F2811D18F485A
:1017B0000088401C00B28D4908803C2200218B48E3
:1017C00001F074F88948B0F900100C2000F038FDE1
:1017D00074E182480078EF2803D0804800786F28B1
:1017E0009BD182480088401E00B2804908803C227C
:1017F00000217E4801F05AF87C48B0F900100C2016
:1018000000F01EFD5AE177484078032836D173482E
:101810000078DF2803D0714800785F2811D1744820
:101820000088401C00B27249088064220A21704876
:1018300001F03CF86E48B0F90010122000F000FDF5
:1018400018E066480078EF2803D0644800786F28D5
:1018500010D167480088401E00B2654908806422A4
:101860000A21634801F022F86148B0F90010122003
:1018700000F0E6FC01205F4908701FE159484078FC
:10188000042833D155480078DF2803D05348007826
:101890005F2811D158480088401C00B25649088082
:1018A00014220121544801F001F85348B0F9001006
:1018B000102000F0C5FC01E148480078EF2803D073
:1018C000464800786F289DD14B480088401E00B2E2
:1018D0004949088014220121474800F0E7FF4648A3
:1018E000B0F90010102000F0ABFCE7E03D48407874
:1018F00005280AD1394800787D28BED100231A4630
:101900001946022000F057FCD8E0364840780628F7
:10191000B3D1324800787D28AFD10021084600F0CD
:101920002CFCCBE02F480078022856D10120314909
:1019300008702A480078FE2803D0284800787E28BE
:101940000CD1284890F901002C49085C401C40B299
:10195000244991F90110294A505413E01F48007896
:10196000FB2803D01D4800787B280BD11D4890F937
:1019700001002249085C401E40B21A4991F9011049
:101980001E4A5054174991F901101C4A881809221F
:10199000002100F075FF11480078DF280CD11148B4
:1019A0004078401C40B20F494870022200210D4887
:1019B000401C00F065FF5BE008480078EF281FD16D
:1019C00008484078401E40B2064948700222002173
:1019D0000448401C00F054FF4AE04AE06000002048
:1019E000760000205A0000207A00002078000020B5
:1019F0007E0000206F0000207C0000204D000020B1
:101A0000FE480078FD2833D1FD4890F90200FC49DA
:101A100091F9011001EB810100EB4100F84991F9C6
:101A2000001001EBC10202EB011100EB8104F5484B
:101A3000007802281CD1A4F50070F13812D10021E1
:101A4000084600F09AFB00231A461946042000F0CD
:101A5000B2FB0F20FFF749F90020E94908704870F0
:101A6000887005E00920E74908700F20FFF73DF96D
:101A700024E0E44800782C2820D1E0480078EF28C2
:101A80000CD1E0484078401E40B2DE494870022246
:101A90000021DC48401C00F0F3FE0FE0D74800783E
:101AA000DF280BD1D7484078401C40B2D549487058
:101AB00002220021D348401C00F0E2FE00BF0020BB
:101AC000D149087010BDD1480068012806D1002016
:101AD000CF490860CF490860CC490860CC4800680D
:101AE000002840D0CC480088401CCB4908800846DC
:101AF0000088B0F5007F01DB00200880C74800881F
:101B000064280AD1C648C449098830F8110000F594
:101B1000004000B2C349088010E0C148BE490988AE
:101B200030F91100C049B1F900104843642190FB1D
:101B3000F1F000F5004000B2BA490880B948B0F9A8
:101B40000000BA490860B4480088032802D1012087
:101B5000B7490860B0480088B0F5817F07D10120FF
:101B6000B449086003E04FF40040B0490860B2484F
:101B70000088401C00B2B0490880B0F5DC7F56DD1B
:101B8000002008800120AD490870AD480078401C55
:101B9000C0B2AB4908700A2804DB0020087001209D
:101BA000A8490870A8480078401CC0B2A64908702F
:101BB00014280EDB002008700120A4490870A448F6
:101BC000007818B10020A249087002E00120A04965
:101BD0000870A0480078401CC0B29E4908703228A6
:101BE0000EDB0020087001209B4908709B4800789C
:101BF00018B100209949087002E001209749087047
:101C000097480078401CC0B29549087064280EDBE4
:101C1000002008700120934908709348007818B19B
:101C200000209149087002E001208F490870704738
:101C3000FEF7C6FA4FF408704FF0E02148618B4878
:101C4000FEF71AFBFEF71FFBFEF70CFBFEF7CCFEC0
:101C50008749087000206B49087000F049FB0C228E
:101C600084490A2000F00EFBAAE1724800680028AF
:101C70007AD08148006840F480607F4908607F48DE
:101C80000068A0F500707D490860084600680028DB
:101C900002DA01207A4908607A480078801C794984
:101CA00008700846007878490978B0EB410F03DAEC
:101CB00074480078802826DB0020724908700221D1
:101CC0001020FEF752FB71480088714908600846F1
:101CD000006840000860084600686E4909680844CA
:101CE0006B49086069496A480068FEF79AFF6748CF
:101CF00000884FF6F871884204DB64480088B0F52C
:101D0000803F00DB00BF5E48006850BB5F48008832
:101D10005F490860084600685B49097848435C49A8
:101D20000860084600684000086008460068554999
:101D300009780844564908600846006800020860AF
:101D400008460068544909680844514908604FF43E
:101D500000711020FEF709FB31494D480068FEF77D
:101D600090FF00203349086045480068012804D1ED
:101D7000264908600020424908602D480068002874
:101D80003AD03D48006820F480603B4908603B48F9
:101D90000068A0F50070394908600846006800280E
:101DA00002DA01203649086036480078801C35493F
:101DB00008700846007834490978B0EB410F03DA1F
:101DC00030480078802879DB00202E4908700221F5
:101DD0001020FEF7CAFA2D4800882D4908600846F1
:101DE000006840000860084600682A4909680844FD
:101DF00027490860254951E091E05FE0600000203C
:101E00004D0000205A000020710000208C000020AE
:101E1000840000209C000020D0000020D80000207A
:101E20002E050020AC000020DA0000200C740040D9
:101E30009400002090000020480000203B0000207B
:101E4000440000203D000020450000203E0000200E
:101E50004A000020460000203F0000204B000020E8
:101E600047000020400000204C000020A086010018
:101E7000ED000020760000200C0C0140A0000020A6
:101E800088000020AA000020B4000020A800002044
:101E9000A4000020C0000020C800002049480068BD
:101EA000FEF7BFFE484800884FF6F871884204DB11
:101EB00045480088B0F5803F00DB00BF434800681C
:101EC00050BB414800883F490860084600684049C7
:101ED000097848433B4908600846006840000860AC
:101EE000084600683B4909780844364908600846B6
:101EF000006800020860084600683749096808441D
:101F0000304908604FF400711020FEF72EFA334973
:101F10002C480068FEF7B5FE0020314908602B48C8
:101F20000068012806D12F49086000202749086071
:101F30002D4908702D48007810B100202B490870F9
:101F40002B48007870B1002029490870FFF79BF9F1
:101F5000FFF750FAFEF7FCFDFEF7C6FCFEF70BFD9F
:101F6000FEF741FC2348007868B100202149087041
:101F7000FEF7CFFE204800F00EFCFEF7B9FEFEF79C
:101F8000EAFBFEF75DFB1D48007838B100201B49D5
:101F900008701B480088401C1949088019480078BF
:101FA00070B10020174908700C2217490A2000F070
:101FB00069F9FEF752FC15480078401C1349087077
:101FC00053E60000A4000020A800002088000020A4
:101FD000B4000020AA000020C80000202E07002026
:101FE000940000208C0000205A0000203A000020BD
:101FF0003B0000203D000020000000203E000020AB
:10200000F40000204000002076000020F8000020AE
:102010000146002000BF421CD0B2834A125C8A42B3
:1020200001D02828F7DB7047052100210BE00A22A8
:10203000B0FBF2F302FB13027C4B5A540A22B0FBB2
:10204000F2F04A1CD1B20529F1DB704710B5014608
:102050000122774B1A7005201AE0754A127852B1A6
:10206000421E724B9A5C32B9884204DD2023421E24
:102070006E4CA3540AE0421E6C4B9A5C3032D3B2D1
:10208000421E6A4CA3540022694B1A70421ED0B201
:102090000028E2DC10BD2DE9F04381460F46904652
:1020A0001D464846FFF7C0FF681CC0B2FFF7CEFFD1
:1020B00008EB0710C6B200241AE0AC4203DA5B4812
:1020C000005D59498855AC420EDB5848005D202818
:1020D0000AD025B95548005D5349885504E0534856
:1020E000015D701E504A1154701EC6B2601CC4B20D
:1020F000052CE2DBBDE8F0832DE9F04180460F4678
:1021000015464046FFF790FF681CC0B2FFF79EFFE0
:102110003846FFF77DFF064600242AE045B94348CC
:10212000005D202804D04148005D3F4988551CE0EF
:10213000AC4204DA3D48005D3B49885515E0AC42AD
:1021400008D12E20384988553848015D701E364A1E
:1021500011540AE0AC4208DD3448005D202804D068
:102160003248015D701E304A1154701EC6B2601CA8
:10217000C4B2052CD2DBBDE8F08110B52D4A12881F
:10218000521E12B22B4B1A801A461288024412B207
:102190001A801A46B2F9002002EB8202264B1A443A
:1021A000264B14681C6012791A711A4652780A4438
:1021B00052B25A7010BD70B51E4CB4F9005024884C
:1021C000641C24B21B4E348005EB85041A4D2C444C
:1021D0001A4D2E6826602D792571184C20704CB24E
:1021E000164D6C7054B22C715CB2AC7070BD30B5D1
:1021F0000246002304E020240B4DEC545C1CE3B2A7
:10220000282BF8DB084803E012F8014B00F8014BDB
:102210001478002CF8D103E011F8014B00F8014BC1
:102220000C78002CF8D130BD0000002051000020B7
:10223000560000202C000020FC0400205A00002042
:1022400070B505460C4600F06DF8A02000F061F96D
:1022500000F0ADF800B112E0E8B200F05AF900F079
:10226000A6F800B10BE0E0B200F053F900F09FF8DF
:10227000C4F3072000F04DF900F099F800BF00F01A
:1022800094F970BD2DE9F04106460D46174600F061
:1022900049F8A02000F03DF900F089F800B123E0F2
:1022A000F0B200F036F900F082F800B11CE000F066
:1022B00056F8A12000F02DF900F079F800B113E0F4
:1022C000002407E000F0A5F82855012000F0E6F80A
:1022D000601CC4B2781EA042F4DC00F09AF82855C5
:1022E000002000F0DBF800BF00F05FF9BDE8F081EE
:1022F000C048006820F07F40BE490860084600687A
:1023000040F0AA400860BC48C06940F00800BA49E3
:10231000C861B8480C30006840F0C000B5490C31C5
:102320000860704710B5B3480C30006820F080009A
:10233000B0490C3108600846006840F04000086071
:102340000520FDF799FFAB480C30006820F04000F5
:10235000A8490C3108600520FDF78EFF10BD10B5AF
:10236000A4480C30006820F04000A2490C310860FD
:102370000846006840F0800008600520FDF77CFFFB
:102380009C480C30006840F040009A490C310860CD
:102390000520FDF771FF97480C30006820F08000A1
:1023A00094490C3108600520FDF766FF10BD10B59B
:1023B00090480C30006840F080008E490C31086075
:1023C0000846006820F0400008600320FDF754FF35
:1023D00088480C30006840F0400086490C310860A5
:1023E0000320FDF749FF83480830006810F0800F94
:1023F00001D0012400E000247E480C30006820F069
:1024000040007C490C3108600320FDF735FF60B2C5
:1024100010BD70B5002477480C30006840F0800093
:1024200074490C310860002534E072480C300068B3
:1024300020F040006F490C3108600846006840F009
:10244000800008600320FDF717FF6A480C30006821
:1024500040F0400067490C3108600220FDF70CFF96
:102460006006040E63480830006810F0800F02D048
:1024700044F0010401E004F0FE040120FDF7FCFE3D
:102480005C480C30006820F040005A490C3108606C
:10249000681CC5B2082DC8DB204670BD10B50446C7
:1024A00054480C30006820F0400052490C3108605C
:1024B0000320FDF7E1FE14F0010F08D04D480C3069
:1024C000006820F080004B490C31086007E0494863
:1024D0000C30006840F0800046490C310860032051
:1024E000FDF7CAFE43480C30006840F04000414907
:1024F0000C3108600320FDF7BFFE3E480C30006839
:1025000020F040003B490C3108600120FDF7B4FE8B
:1025100010BD70B5044637480C30006820F040000C
:1025200034490C3108600320FDF7A6FE082530E091
:1025300014F0800F08D02F480C30006840F0800065
:102540002C490C31086007E02A480C30006820F064
:10255000800028490C3108600320FDF78DFE6006DD
:10256000040E24480C30006840F0400021490C3132
:1025700008600420FDF780FE1E480C30006820F043
:1025800040001C490C3108600220FDF775FE681EF2
:1025900045B2012DCCDA17480C30006840F08000BD
:1025A00014490C310860002070BD10B511480C3082
:1025B000006820F080000F490C3108600846006870
:1025C00040F0400008600520FDF756FE09480C3039
:1025D000006840F0800007490C3108600520FDF7D5
:1025E0004BFE04480C30006840F0800001490C317B
:1025F000086010BD000C0140001002402D488069A9
:1026000041F2150108432B4988612B48406820F0AE
:1026100001002949486010202849086027481038DF
:10262000006880B2254910390860084600682449CE
:1026300008432249103908602248006820F470607D
:10264000204908600846006840F4407008604FF474
:1026500059701D490880002088807047012806D1E4
:102660001949098821F03801174A118005E01649F7
:10267000098841F03801144A1180704708B10421DB
:1026800001E04FF480210F4A11617047014600BFFD
:102690000D48008910F0020FFAD00B48818100BF6D
:1026A0000948008910F0010FFAD007488089C0B2AC
:1026B0007047000000100240000001401008014077
:1026C0000000B3B8001001400030014000BF00BF5F
:1026D0000100A0F10100FBD1704710B504465C4831
:1026E000C06840F400605A49C8600846C06864F396
:1026F0008910C8600220FFF7E9FF5548C06820F440
:1027000000605349C8600220FFF7E0FF10BD10B51C
:102710000446C820FFF7DAFF4D48C06840F48060E7
:102720004B49C8602011FFF7D8FF2046FFF7D5FFBF
:1027300010BD10B504462046FFF7E9FF10BD10B5E7
:10274000044640F2DC50FFF7C1FF4148C06820F466
:1027500080603F49C8602011FFF7BFFF2046FFF7A8
:10276000BCFF10BD70B504460D4605EB850004EBBB
:10277000C000C6B206F07F008030C6B23046FFF718
:10278000DEFF70BD10B50120FFF7D9FF002108461C
:10279000FFF7E8FF10BD70B506460025002108468A
:1027A000FFF7E0FF00BF745D04B90BE02046FFF7C0
:1027B000C0FF681CC5B2102D03D101210020FFF716
:1027C000D1FFF0E770BD10B52248806940F01000DD
:1027D000204988611E4800686FF30F0040F04C509C
:1027E0001B490860084640681B49084043F23331E2
:1027F00008431749486040F2DC50FFF767FF144870
:10280000C06820F480601249C8600320FFF765FFAC
:1028100041F20400FFF75AFF0320FFF75EFF642038
:10282000FFF754FF0320FFF758FF0220FFF755FF83
:102830002820FFF784FF0C20FFF781FF0620FFF719
:102840007EFF4020FFF77BFF8020FFF778FF10BD61
:102850000010014000100240FF00F0FF002109E0DD
:10286000425CA62A04DD425CA73A044B9A5C4254BF
:102870004A1CD1B2425C002AF2D17047A02900085C
:1028800090F900308B4200DA027090F900309342E8
:1028900000DD0170704790F900308B4200DA017062
:1028A00090F90030934200DD02707047B0F90030BB
:1028B0008B4200DA0180B0F90030934200DD0280E3
:1028C0007047B0F900308B4200DA0280B0F9003076
:1028D000934200DD0180704710B5431C02E010F800
:1028E000011B71B18107FAD14FF0013202C88C1A75
:1028F0008C4314EAC211F9D0C01A0A0603D0C01ED4
:1029000010BDC01A10BD0A0401D0801E10BD0902FE
:10291000FCD0401E10BD704770477047754600F0F0
:1029200029F8AE4605006946534620F00700854663
:1029300018B020B5FDF736FCBDE820404FF000068A
:102940004FF000074FF000084FF0000B21F0070197
:10295000AC46ACE8C009ACE8C009ACE8C009ACE8DA
:10296000C0098D4670470446AFF300802046FDF74E
:1029700006FC000000487047940D00200048704796
:10298000980D002001491820ABBEFEE7260002008A
:10299000704710B5FFF7F2FF4FF00001016010BD66
:1029A000FDA2FFAAC8ACADAEAFB0B1D769B4B5FE59
:1029B000DFB5CCBAC9BCBDBEBF41A042A1E045A3B2
:1029C000A4A5A64BA74D484FA8504354A9AA58E127
:1029D000ABACE2ADAEC4AFB0B161B2B3B4E365B617
:1029E000B7B8B9BABBBCBD6FBE7063BF79AA78E592
:1029F000C0C1E6C2C3C4C5C6C70000001C2A000887
:102A000000000020FC00000028010008182B00082E
:102A1000FC000020FC0E0000440100082A2E2E2E8F
:102A20002E2E2E2E2E2E2E2E2E2E2E2E402E2E2EB4
:102A30002E2E2E2E2E2E2E2E2E2E2E20000000007C
:102A4000000000003200000000000A000202000046
:102A500064001900060000000000000000000000F3
:102A60000000000000000000000000000000000066
:102A70000000000000000000000000000000000056
:102A80000000000000000000000000000000000046
:102A90000000000000000000000000000000000036
:102AA0000000000000000000000000000000000026
:102AB0000000000000000000000000000000000016
:102AC0000000000000000000000000000000000006
:102AD00000000000000000000000000000000000F6
:102AE00000000000000000000000000000000000E6
:102AF00000000000000000000000000000000000D6
:102B000000000000000000000000000000000000C5
:082B10000000000000000000BD
:04000005080000ED02
:00000001FF
