:020000040800F2
:10000000F00F00208D010008910100089301000805
:100010009501000897010008990100080000000000
:100020000000000000000000000000009B0100082C
:100030009D010008000000009F0100083D17000816
:10004000A3010008A3010008A3010008A301000800
:10005000A3010008A3010008A3010008A3010008F0
:10006000A3010008A3010008A3010008A3010008E0
:10007000A3010008A3010008A3010008A3010008D0
:10008000A3010008A3010008A3010008A3010008C0
:10009000A3010008A3010008A3010008A3010008B0
:1000A000A3010008A3010008A3010008A3010008A0
:1000B000A3010008A3010008A3010008A301000890
:1000C000A3010008A3010008A3010008A301000880
:1000D000A3010008A3010008A3010008A301000870
:1000E000A3010008A3010008A301000800F002F822
:1000F00000F03CF80AA090E8000C82448344AAF186
:100100000107DA4501D100F031F8AFF2090EBAE883
:100110000F0013F0010F18BFFB1A43F0010318473B
:100120003038000050380000103A24BF78C878C139
:10013000FAD8520724BF30C830C144BF04680C60ED
:10014000704700000023002400250026103A28BF35
:1001500078C1FBD8520728BF30C148BF0B60704739
:100160001FB503F0C0FB1FBD10B510BD03F081FB30
:100170001146FFF7F5FF01F0C0FB03F09FFB03B44E
:10018000FFF7F2FF03BC03F0A7FB0000084800479D
:10019000FEE7FEE7FEE7FEE7FEE7FEE7FEE7FEE737
:1001A000FEE7FEE703480449024A044B704700009B
:1001B000ED000008F00D0020F00F0020F00D0020F1
:1001C00000BF4FF012002349086000BF00BF224863
:1001D000224948602248086000BF00BF1F480068ED
:1001E00010F0007FFAD000BF1C48406800F00C00FF
:1001F0000828F9D100BF00BF1A484FF0E02148613C
:100200004FF0060008614FF0000088610846006961
:1002100040F00100086100BF00BF1048806940F055
:1002200008000E4988614FF06E400F4908604FF496
:1002300040700E49C1F8040C0848806940F0100075
:10024000064988614FF0000009490860486000BF16
:10025000704700000020024002841200001002409B
:10026000820000017FA90300000C01400000014052
:100270000010014010B502F029F802F002F8002148
:10028000084601F0EBFF10BD00EB8002114600BFF5
:10029000A1F101021100FBD17047FD48C06940F097
:1002A0000050FB49C8614FF00100FA4908607047EF
:1002B0002DE9FF5F05460E4617469846DDE90FAB70
:1002C000DDF8389006EB86004FEA400000B2F249B4
:1002D00008804FF00000F1490880BAF1000F02D108
:1002E000EF49088008E00BEB8B00EB490988A1EB94
:1002F000400000B2EA490880EA48A0F800903FB9FF
:10030000E948A0F800904FF00000E849087015E0B7
:100310004FF01400E44908804FF00100E3490870F1
:100320004FF0640008FB00F0DE49B1F90010A1F1C4
:10033000140190FBF1F000B2DD4908802C464FF02B
:1003400030008DF800008DF801008DF802008DF866
:1003500003008DF804008DF805008DF806008DF877
:1003600007004FF02E008DF808004FF077008DF851
:1003700009004FF061008DF80A004FF076008DF80B
:100380000B004FF000008DF80C004FF00A0094FBBA
:10039000F0F100FB114000F13000C0B28DF8070011
:1003A0004FF00A0094FBF0F000B204464FF00A0050
:1003B00094FBF0F100FB114000F13000C0B28DF869
:1003C00006004FF00A0094FBF0F000B204464FF034
:1003D0000A0094FBF0F100FB114000F13000C0B2C4
:1003E0008DF805004FF00A0094FBF0F000B20446CF
:1003F0004FF00A0094FBF0F100FB114000F13000D7
:10040000C0B28DF804004FF001026946A94802F01D
:10041000F8FDA94908704FF00100A8490860A849F3
:100420000860A84908604FF0FA00A74908804FF01B
:100430000000A6490860BDE8FF9F9748008810B3F8
:100440009548B0F900009549B1F9001088421ADDCD
:100450009248008800F1010000B2904908800846E7
:10046000B0F900008C49B1F9001088420BDB4FF065
:10047000000089490880894908808B4908804FF02D
:100480000100924908608648008808B38448B0F9A2
:1004900000008249B1F90010884219D14FF0FF00E5
:1004A000824908707C48B0F900007D49B1F900101C
:1004B000A0EB010000EB80004FEA40017948B0F961
:1004C0000000A0F10A0091FBF0F000B2784908802A
:1004D00070474FF001007D4908604FF000006F4900
:1004E0000880704710B57A48006820F47040794958
:1004F000C1F800080846D0F8000840F40050C1F8E0
:1005000000087548008890B173480088A0F1010088
:1005100000B2714908807148006840F008006D49D8
:10052000C1F80C084FF000006D49088006E06B48E8
:10053000006820F008006749C1F80C086948B0F964
:100540000000401F00EB80006349B1F90010B1EBDF
:10055000400F13D16448008800F1010000B26249E5
:10056000088042F20F724FF000015F4801F035FF42
:100570005D48B0F90010142001F014FC10BD10B556
:100580005A48008800F1010000B258490880084626
:10059000B0F900004649B1F90010884222DB4FF063
:1005A00000005249088041480078012807D13E48A0
:1005B000008800F1010000B23B4908800BE03B4895
:1005C00090F90000401C06D137480088A0F10100D6
:1005D00000B2354908803348B0F900200021324884
:1005E00001F0F0FE3048B0F9000040434FF06401E4
:1005F00090FBF1F000B23E49088010BD3EB53D4889
:100600000088F0B33C480088D8B33548008800F132
:10061000010000B2324908800846B0F900003649AE
:10062000B1F90010884271DB4FF000002C490880BE
:100630003248008800F1010000B23049088030489B
:10064000B0F900204FF001012C4801F0C6FE294806
:10065000B0F90000052190FBF1F0C0B20546254835
:10066000B0F9000090FBF1F0C0B204460120322145
:1006700023460246CDE9010500911E48B0F900105D
:1006800000E03FE01D48B0F90000FFF711FE3DE03B
:100690000010024000740040D8000020D600002066
:1006A000DA000020E0000020DC0000203200002002
:1006B00034000020700B002036000020880000204D
:1006C0009800002094000020D40000208C0000201E
:1006D0000008014000000140E60000200C08014035
:1006E000380000207A00002084000020E200002072
:1006F000DE0000207C0000207E000020EC000020B6
:10070000800000204FF00000FF4908803EBDFF48F8
:10071000006820F47F20FE49C1F8040C0846D0F898
:10072000040C40F40820C1F8040C0846D0F80C0C66
:1007300040F4C050C1F80C0CF648006810F4006F8B
:1007400012D1F54800780A2812DAF348007800F14F
:100750000100F1490870084600780A2808DB4FF0CC
:100760000100EE49087003E04FF00000EA4908700C
:10077000E848006810F4805F12D1E94800780A2840
:1007800012DAE748007800F10100E54908700846F0
:1007900000780A2808DB4FF00100E249087003E006
:1007A0004FF00000DE49087070470EB5DB48007856
:1007B00068B34FF00000D9490870DB48008800EBAF
:1007C00080004FEA400000B2D8490880D84800882D
:1007D00000F1010000B2D6490880D648B0F90020E7
:1007E0004FF00101D24801F0F8FD0A210122D24860
:1007F0000088C0B20523CDE901210090CA480088D5
:100800000A3001B2CA48B0F90000FFF751FDC548EF
:10081000007838B14FF00000C2490870C349088021
:10082000FFF757FE0EBDC5490870704710B5C348A5
:10083000007860B1C1480078A0F10100BF4908709C
:100840000846007818B90021084601F039FA10BDB1
:1008500010B59EB0BA480078002845D1B34800884A
:10086000F0B9B8A1BCA001F067FAAF48B0F9000038
:100870003C2190FBF1F080B204460022212101F0DE
:10088000D5F9A948B0F900003C2190FBF1F201FB39
:10089000120080B204460022402101F0C7F9EBE2C9
:1008A000B2A1B7A001F048FAA048B0F900000A21AF
:1008B00090FBF1F03C2190FBF1F080B20446002265
:1008C00001F0B4F99948B0F900000A2190FBF1F069
:1008D0003C2190FBF1F201FB120080B204460022A1
:1008E0003E2101F0A3F9C7E29548007803287ED1A4
:1008F000A8A00090ACA00190B0A00290B4A003907A
:10090000A4A00490B7A00590BBA00690BFA007903C
:10091000C3A00890C7A00990CBA00A90CFA00B90CD
:10092000D3A00C90D7A00D90854A92F90120012305
:1009300003EB42025DF822201146814A92F9012020
:1009400052005DF82220104601F0F6F97648B0F921
:1009500000003C2190FBF1F080B2044600222121EE
:1009600001F064F97048B0F900003C2190FBF1F20D
:1009700001FB120080B204460022402101F056F92A
:10098000C548B0F900003C2190FBF1F080B204466C
:100990000022232101F04AF9BF48B0F900003C21B0
:1009A00090FBF1F201FB120080B2044600222421E8
:1009B00001F03CF9B948B0F900003C2190FBF1F09E
:1009C00080B204460022252101F030F9B348B0F985
:1009D00000003C2190FBF1F201FB120080B20446C2
:1009E00000225E2101F022F90022282100E00CE023
:1009F0005048008880B201F019F9002229214E48A0
:100A0000008880B201F012F936E24D4800781528CE
:100A100004D1A3A1A7A001F08FF92DE248480078E6
:100A2000162835D1A848007800F10100A6490870C1
:100A300008460078142811DD4FF000000870404887
:100A4000007900F1010040B23D490871084690F973
:100A50000400022802DD4FF00000087138480079D8
:100A600020B99AA19EA001F067F905E23448007907
:100A7000012804D19FA1A4A001F05EF9FCE1304857
:100A800000790228C0D1A5A1A9A001F055F9F3E190
:100A90002B48007802281DD1AAA1AFA001F04CF983
:100AA000B248007800F13000B149C872AF484078D0
:100AB00000F130000873AD48807800F130004873D1
:100AC0004FF05E011E4890F9010000F11B00A84A9A
:100AD0001154D1E11A480078092804D1A5A1AAA08F
:100AE00001F02AF9C8E11648007804280BD165A165
:100AF000AAA001F021F900222121AD48008880B28E
:100B000001F094F8B8E155E138000020040C0140F0
:100B100000000140080C0140760000207800002011
:100B200077000020790000207A000020E6000020F5
:100B3000EA000020800000208200002063000020E6
:100B40005E00002020E2F0E5ECFF20202020302194
:100B50003A3040200000000020D3F1F2E0EDEEE258
:100B6000EBE5EDEDEEE520200000000020EEF1F2D7
:100B7000E0EBEEF1FC20303C3A303E20000000007B
:100B80002020C4EE20EEEAEEEDF7E0EDE8FF2020B5
:100B90000000000020C4EBE8F2E5EBFCEDEEF1F222
:100BA000FC2020200000000020F1E5E0EDF1E02035
:100BB000202021EC304063200000000020CFE5F031
:100BC000E8EEE4E8F7EDEEF1F2FC20200000000092
:100BD00020E4E5ECEEE8E3F0FB2023EC3024F12008
:100BE0000000000020E4E5ECEEE8E3F0FB2025EC5B
:100BF000305EF1200000000020C3F0EEECEAEEF1E0
:100C0000F2FC2020202020200000000020E7E2F35A
:100C1000EAE02020202020202029202000000000C1
:100C200020CAEEEBE8F7E5F1F2E2EE2020202020EA
:100C30000000000020F4E0E9EBEEE220202020207C
:100C4000202820200000000020D1F7E5F2F7E8EA94
:100C500020202020202020200000000020F1E5E0BE
:100C6000EDF1EEE2202020202020202000000000D6
:100C700020C2FBF5EEE42020202020202020202090
:100C800000000000202020202020202020202020E4
:100C900020202020000000007E0000207C0000209A
:100CA0002020EAE0F0F2E020EFE0ECFFF2E8202084
:100CB000000000002020CEF2F1F3F2F1F2E2F3E5C1
:100CC000F2202020000000003B000020E8EDE8F6C4
:100CD000E8E0EBE8E7E8F0F3E5F2F1FF0000000000
:100CE000CAE0F0F2E020EFE0ECFFF2E820EDE520D2
:100CF00000000000202020EDE5E8F1EFF0E0E2ED5B
:100D0000E02C2020000000002020C2EEE7ECEEE600
:100D1000EDEE20EEEDE0202000000000F0EEE2E03D
:100D2000EDE020E220464154313620200000000052
:100D3000E8EBE820EDE520EEF2F4EEF0ECE0F2E88E
:100D400000000000202020EFE0F0EEEBFC2020204F
:100D500020202020000000002020C2E2E5E4E8F28C
:100D6000E52020202020202000000000510000204D
:100D700000000020202020EDE5E2E5F0EDFBE92178
:100D800021212020000000002020202020CFE0F0A2
:100D9000EEEBFC202020202000000000202020205E
:100DA00020202020202120202020202000000000C2
:100DB00084000020FA4800782C285DD1AFF23C1165
:100DC000AFF2401000F0B8FFF5484078F0BB0023C8
:100DD0001A461946012000F0F0FE002302220121EC
:100DE000F048008880B200F0E8FE00230F22194688
:100DF000ED48008880B200F0E0FE00230F220121C0
:100E0000EA48008880B200F0D8FE00230C22194680
:100E1000E748008880B200F0D0FE00230C220121B8
:100E2000E448008880B200F0C8FE0023052219467D
:100E3000E148008880B200F0C0FE002305220121B5
:100E4000DE48008880B200F0B8FE15E0FFE7D44825
:100E50004078012806D100231A461946022000F0E6
:100E6000ACFE09E0CE484078022805D100231A469E
:100E70001946032000F0A1FED14801F075FA1EB01A
:100E800010BDD048006860F00700CF490860CF4827
:100E9000806860F03000096800EA0100CA49086013
:100EA00008460068401C05D008460068C849096823
:100EB000884234D04FF00000C6490870C648007818
:100EC000042802DAC548007850B1C548007838B91E
:100ED0004FF00100C3490870BD480068C24908705E
:100EE000BE480078C1490978884209DB4FF001000B
:100EF000BC490870B648006800F07F00BA49087025
:100F00004FF00000B64908704FF01400B749087060
:100F10004FF00000B0490870B04908703FE0AA489F
:100F20000068AB490968884238D1AB48007800F1C5
:100F30000100A94908700846007804282EDB4FF00C
:100F400000000870A548007800F10100A34908706E
:100F500008460078A549097888421FDB9C4800684C
:100F600000F07F00A04908704FF000009B49087016
:100F70004FF001009B490870994908709548007826
:100F800060B19A4800784FEA6000984908700846B6
:100F90000078022802DC4FF00200087000BF8A4887
:100FA00000688B4908609248806940F018009049B9
:100FB0008861904800686FF30B008F49C1F8000CFE
:100FC0008C48006840F6880140EA01008A49C1F86F
:100FD000000C0846D0F80C0C40F00700C1F80C0CCF
:100FE00086480068864908607848006820F47F00D9
:100FF000764908600846006840F408000860084622
:10100000C06840F03000C86070473EB57548007851
:1010100000B98EE374480078FA280CD16048007853
:101020002C2804D04FF02C005D49087003E04FF0ED
:1010300000005B4908705A48007880BB6A48007815
:101040007D2805D100231A461946032000F057FEDB
:1010500065480078FD2805D16A48008801B21E2045
:1010600000F0A0FE60480078FB2803D14FF00A0092
:10107000654908705C480078EF280FD10A210122E9
:1010800048480088C0B20523CDE9012100905F489F
:1010900000880A3001B21046FFF70AF948E3FFE77B
:1010A0003F48007803287AD14F480078FE2810D1B5
:1010B0003B484078A0F1010040B2394948704FF0F8
:1010C00006024FF00001364800F1010001F06FF90F
:1010D0002EE345480078FB2810D13148407800F1D4
:1010E000010040B22E4948704FF006024FF0000157
:1010F0002B4800F1010001F05AF919E33A48007851
:101100007B2804D14FF005002549487010E324489E
:10111000407800287CD134480078DF281DD13B4836
:10112000B0F900004FF00A0190FBF1F000F101006E
:1011300000EB80004FEA400000B2344908804FF4D1
:1011400096724FF01E01314801F03CF92F48B0F97A
:1011500000100A2000F026FEEAE2234800785F280B
:1011600057D12A48B0F900004FF00A0190FBF1F086
:1011700000F1010000EB80004FEA400000B223497B
:1011800008804FF496724FF01E01204801F01AF9C2
:101190001E48B0F900100A2000F004FEC8E2E4E1A5
:1011A0005E00002082000020DC000020DE00002025
:1011B000DA000020D8000020E6000020EA0000202D
:1011C00000000020080C01406800002000100140D1
:1011D0006C000020730000207000002071000020CF
:1011E00074000020750000206400002072000020C0
:1011F00000100240000C0140000001400C0C0140B6
:10120000F4000020F8000020360000207A000020C2
:1012100043E0FF480078EF281DD1FE48B0F90000F8
:101220004FF00A0190FBF1F0A0F1010000EB80000B
:101230004FEA400000B2F74908804FF496724FF031
:101240001E01F44801F0BEF8F248B0F900100A207F
:1012500000F0A8FD6CE2EE4800786F289ED1ED48C2
:10126000B0F900004FF00A0190FBF1F0A0F101008D
:1012700000EB80004FEA400000B2E64908804FF4DE
:1012800096724FF01E01E34801F09CF8E148B0F976
:1012900000100A2000F086FD4AE2DF48407801286D
:1012A0007ED1DB480078DF281DD1DC48B0F9000092
:1012B0004FF00A0190FBF1F000F1010000EB80001B
:1012C0004FEA400000B2D54908804FF496724FF0C3
:1012D0000001D24801F076F8D048B0F900100E2095
:1012E00000F060FD24E2CA4800785F281DD1CB4899
:1012F000B0F900004FF00A0190FBF1F000F101009D
:1013000000EB80004FEA400000B2C44908804FF46F
:1013100096724FF00001C14801F054F8BF48B0F98F
:1013200000100E2000F03EFD02E2B9480078EF28E0
:101330001DD1BA48B0F900004FF00A0190FBF1F05E
:10134000A0F1010000EB80004FEA400000B2B34979
:1013500008804FF496724FF00001B04801F032F867
:10136000AE48B0F900100E2000F01CFDE0E1A848E6
:1013700000786F2890D1A948B0F900004FF00A0119
:1013800090FBF1F0A0F1010000EB80004FEA40007B
:1013900000B2A24908804FF496724FF0000100E0BD
:1013A00009E09E4801F00EF89C48B0F900100E20AC
:1013B00000F0F8FCBCE198484078022839D1944804
:1013C0000078DF2803D0924800785F2814D1944831
:1013D000008800F1010000B2914908804FF03C0202
:1013E0004FF000018E4800F0EDFF8D48B0F900107D
:1013F0000C2000F0D7FC9BE185480078EF2803D053
:10140000834800786F288FD185480088A0F10100BB
:1014100000B2834908804FF03C024FF00001804841
:1014200000F0D0FF7E48B0F900100C2000F0BAFCAC
:101430007EE17948407803283DD175480078DF285F
:1014400003D0734800785F2814D17648008800F1F3
:10145000010000B2734908804FF064024FF00A01A6
:10146000704800F0AFFF6F48B0F90010122000F094
:1014700099FC1BE066480078EF2803D064480078A8
:101480006F2813D167480088A0F1010000B26549B8
:1014900008804FF064024FF00A01624800F092FFAA
:1014A0006048B0F90010122000F07CFC4FF0010001
:1014B0005D4908703CE158484078042839D15448C7
:1014C0000078DF2803D0524800785F2814D15748AD
:1014D000008800F1010000B2544908804FF0140266
:1014E0004FF00101514800F06DFF5048B0F9001075
:1014F000102000F057FC1BE145480078EF2803D08E
:10150000434800786F2893D148480088A0F1010033
:1015100000B2464908804FF014024FF001014348E1
:1015200000F050FF4148B0F90010102000F03AFCE4
:10153000FEE03948407805280AD1354800787D28F2
:10154000B8D100231A461946022000F0D8FBEFE07C
:10155000314840780628ADD12D4800787D28A9D1A2
:101560000021084600F0ACFBE2E02B48007802289E
:101570004DD14FF001002C49087025480078FE2815
:1015800003D0234800787E280DD1234890F901002C
:101590002749085C00F1010040B21F4991F9011090
:1015A000234A505414E01A480078FB2803D0184806
:1015B00000787B280CD1184890F901001C49085C80
:1015C000A0F1010040B2144991F90110184A505499
:1015D000114991F90110164A1144084609220021C7
:1015E00000F0DAFE0A480078DF2823D10A48407864
:1015F00000F1010040B2084948704FF002024FF07C
:101600000001054800F1010000F0C6FE62E062E062
:10161000640000207A0000205E0000207E00002090
:101620007C00002082000020730000208000002049
:1016300051000020FF480078EF2810D1FE48407884
:10164000A0F1010040B2FC4948704FF002024FF097
:101650000001F94800F1010000F09EFE3AE0F54873
:101660000078FD2836D1F54890F90200F34991F948
:10167000011001EB810100EB4100F04991F90010EC
:1016800001EBC10202EB011100EB8104EA48007892
:1016900002281FD1A4F50070F13813D100210846AB
:1016A00000F00EFB00231A461946042000F027FB29
:1016B0000F20FFF7B8F84FF00000E04908704870BD
:1016C000887007E04FF00900DB4908704FF00F0009
:1016D000FFF7A9F82CE0D84800782C2828D1D54865
:1016E0000078EF2810D1D4484078A0F1010040B232
:1016F000D14948704FF002024FF00001CE4800F18E
:10170000010000F049FE13E0CA480078DF280FD13D
:10171000C948407800F1010040B2C74948704FF015
:1017200002024FF00001C44800F1010000F034FE55
:1017300000BF4FF00000C24908703EBD10B5C1485F
:101740000068012807D14FF00000BF490860BF4979
:101750000860BC490860BC480068002846D0BC4806
:10176000008800F10100BA49088008460088B0F5F9
:10177000806F02DB4FF000000880B64800886428C4
:101780000AD1B548B249098830F8110000F5004087
:1017900000B2B249088011E0AF48AD49098830F97C
:1017A0001100AF49B1F9001048434FF0640190FBBC
:1017B000F1F000F5004000B2A8490880A748B0F950
:1017C0000000A8490860A2480088032803D14FF010
:1017D0000100A54908609E480088A0F50071033902
:1017E00008D14FF00100A149086003E04FF4004028
:1017F0009C4908609E480088401C00B29C490880B3
:101800002C2808DB4FF0000008804FF001009949B8
:10181000087001F0EBFF98480088401C00B2964920
:101820000880B0F5DC7F67DD4FF0000008804FF0E6
:101830000100924908709248007800F10100C0B29E
:101840008F4908700A2806DB4FF0000008704FF03F
:1018500001008C4908708C480078401CC0B28A494D
:101860000870142812DB4FF0000008704FF00100E0
:10187000864908708648007820B14FF000008449FE
:10188000087003E04FF0010081490870814800783A
:10189000401CC0B27F490870322812DB4FF00000B4
:1018A00008704FF001007C4908707C48007820B136
:1018B0004FF000007949087003E04FF001007749CC
:1018C000087077480078401CC0B2754908706428D9
:1018D00012DB4FF0000008704FF0010071490870F2
:1018E0007148007820B14FF000006F49087003E0A4
:1018F0004FF001006C49087010BDFEF761FC4FF419
:1019000008704FF0E02148616848FEF7BDFCFEF723
:10191000C4FCFEF7AFFC4FF000004749087000F030
:101920009DFA0C2262490A2000F05FFA0122AFF60C
:10193000DC51604801F038FB5F490870DCE04B483F
:10194000006888B15D48006840F480605C49C1F877
:101950000C0C5C4B4FF480623F495B4801F0A2FBEA
:101960004FF000004149086058480068012805D13F
:10197000344908604FF00000544908603A48006854
:1019800088B14E48006820F480604D49C1F80C0CC5
:101990004C4B4FF480624E494B4801F083FB4FF0B3
:1019A00000003149086049480068012807D12549ED
:1019B00008604FF00000454908601F4908702D4835
:1019C000007818B14FF000002A4908702B480078C1
:1019D00068B14FF0000029490870FFF752FAFFF78D
:1019E00014FBFEF794FEFEF7E0FEFEF7C8FD254867
:1019F000007870B14FF0000022490870FEF728FF10
:101A0000344800F047FCFEF711FFFEF76BFDFEF7D0
:101A100014FD1E48007818B14FF000001B490870F3
:101A20002048007820B14FF000001E49087053E0B4
:101A30005BE00000640000205E00002051000020F8
:101A4000750000209000002088000020A0000020E9
:101A5000D4000020DC00002044010020B000002061
:101A6000DE0000200C74004098000020940000204C
:101A70004C0000203C0000204A0000203D000020D7
:101A8000460000203F0000204700002040000020CA
:101A90004E00002048000020410000204F000020A0
:101AA000490000204200002050000020A0860100D4
:101AB0007A00002044090020360000200C0C014070
:101AC0000000014000010020700B00208C0000206D
:101AD00044050020000000204FF00C0207494FF0A1
:101AE0000A0000F082F9FEF789FD0548007818B178
:101AF0004FF000000249087021E700007A00002042
:101B0000FD00002001464FF00002104600BF00F12A
:101B10000102D2B210469D4A125C8A4201D02828A6
:101B2000F5DB70474FF0050211464FF000021146F9
:101B300010E04FF00A02B0FBF2F302FB1302944BE9
:101B40005A544FF00A02B0FBF2F2104601F10102C2
:101B5000D2B211460529ECDB704710B501464FF0B3
:101B600001028C4B1A704FF00502104622E0894AA0
:101B7000127862B1421E864B9A5C42B9884206DDF9
:101B80004FF02003A0F10102814CA3540EE0A0F11C
:101B900001027F4B9A5C02F13002D3B2A0F1010244
:101BA0007B4CA3544FF000027A4B1A70A0F1010253
:101BB000D2B210460028DADC10BD2DE9F043814690
:101BC0000F4690461D464846FFF7ACFF681CC0B262
:101BD000FFF7C3FF08EB0710C0B206464FF0000046
:101BE00004461FE0AC4203DA6948005D6749885546
:101BF000AC420FDB6648005D20280BD025B9644855
:101C0000005D6249885505E06148015DA6F101006B
:101C10005E4A1154A6F10100C0B2064604F101006B
:101C2000C0B20446052CDDDBBDE8F0832DE9F041B0
:101C300080460F4615464046FFF774FF681CC0B249
:101C4000FFF78BFF3846FFF75DFF06464FF00000B9
:101C5000044631E045B94E48005D202804D04C4888
:101C6000005D4A4988551FE0AC4204DA4848005DEF
:101C70004649885518E0AC420AD14FF02E0043493E
:101C800088554348015DA6F10100404A11540BE01C
:101C9000AC4209DD3E48005D202805D03C48015D8E
:101CA000A6F10100394A1154A6F10100C0B206465E
:101CB00004F10100C0B20446052CCBDBBDE8F08185
:101CC00010B5354A1288A2F1010212B2324B1A80C5
:101CD0001A461288024412B21A801A46B2F900203B
:101CE00002EB82022D4B1A442D4B14681C601279B2
:101CF0001A711A4652780A4452B25A7010BD70B521
:101D0000254CB4F90050248804F1010424B2224E79
:101D1000348005EB8504214D2C44214D2E6826602E
:101D20002D7925711E4C20704CB21D4D6C7054B233
:101D30002C715CB2AC7070BD30B502464FF000043F
:101D4000234607E04FF02004104DEC5403F101044A
:101D5000E4B22346282BF5DB0C4807E01478047026
:101D600002F10104224600F1010420461478002CFF
:101D7000F4D107E00C78047001F10104214600F170
:101D8000010420460C78002CF4D130BD0000002066
:101D9000550000205A0000202C0000201C010020CB
:101DA0005E00002070B505460C4600F074F8A020D7
:101DB00000F07CF900F0BAF800B113E0E8B200F0EE
:101DC00075F900F0B3F800B10CE0E0B200F06EF984
:101DD00000F0ACF8C4F30721084600F067F900F002
:101DE000A5F800BF00F0B4F970BD2DE9F04106463A
:101DF0000D46174600F04FF8A02000F057F900F00C
:101E000095F800B126E0F0B200F050F900F08EF83D
:101E100000B11FE000F05FF8A12000F047F900F0EA
:101E200085F800B116E04FF0000409E000F0B4F8C6
:101E30002855012000F000F904F10100C0B2044669
:101E4000781EA042F2DC00F0A7F82855002000F030
:101E5000F3F800BF00F07CF9BDE8F081D0480068DD
:101E600020F07F40CF49C1F8000C0846D0F8000CA4
:101E700040F0AA40C1F8000CCB48C06940F008000F
:101E8000C949C861C748D0F80C0C40F0C000C5492A
:101E9000C1F80C0C704710B5C448006820F08000F1
:101EA000C049C1F80C0C0846D0F80C0C40F04000BA
:101EB000C1F80C0C4FF00500FEF7E6F9B948D0F870
:101EC0000C0C20F04000B749C1F80C0C4FF0050095
:101ED000FEF7DAF910BD10B5B448006820F04000F4
:101EE000B049C1F80C0C0846D0F80C0C40F080004A
:101EF000C1F80C0C4FF00500FEF7C6F9A948D0F860
:101F00000C0C40F04000A94908604FF00500FEF7B6
:101F1000BBF9A448D0F80C0C20F08000A149C1F80E
:101F20000C0C4FF00500FEF7AFF910BD10B59F483F
:101F3000006840F080009B49C1F80C0C0846D0F8BE
:101F40000C0C20F04000C1F80C0C4FF00300FEF721
:101F50009BF99448D0F80C0C40F04000934908607D
:101F60004FF00300FEF790F99048001F006810F052
:101F7000800F02D04FF0010401E04FF000048B48C5
:101F8000006820F040008749C1F80C0C4FF00300B6
:101F9000FEF77AF960B210BD70B54FF0000004464C
:101FA0008248006840F080007E49C1F80C0C4FF078
:101FB000000005463CE07D48006820F0400079497B
:101FC000C1F80C0C0846D0F80C0C40F08000C1F8A9
:101FD0000C0C4FF00300FEF757F97248D0F80C0CC8
:101FE00040F040006F49C1F80C0C4FF00200FEF7C2
:101FF0004BF94FEA44604FEA106004466C480068B1
:1020000010F0800F03D044F00100044602E004F019
:10201000FE0004460120FEF737F96448006820F00E
:1020200040006049C1F80C0C05F10100C0B2054642
:10203000082DC0DB204670BD10B504465B48006823
:1020400020F040005749C1F80C0C4FF00300FEF798
:102050001BF914F0010F07D05448006820F08000ED
:102060005049C1F80C0C06E05048006840F0800070
:102070004C49C1F80C0C0320FEF706F94B480068E8
:1020800040F040004749C1F80C0C4FF00300FEF748
:10209000FBF84448D0F80C0C20F040004149C1F84E
:1020A0000C0C4FF00100FEF7EFF810BD70B50446C0
:1020B0003E48006820F040003A49C1F80C0C4FF04F
:1020C0000300FEF7E1F84FF00800054634E014F095
:1020D000800F07D03548006840F080003149C1F8D2
:1020E0000C0C06E03148006820F080002D49C1F852
:1020F0000C0C0320FEF7C8F84FEA44604FEA10606A
:1021000004462A48006840F040002649C1F80C0CFB
:102110004FF00400FEF7B8F82248D0F80C0C20F07D
:1021200040002049C1F80C0C4FF00200FEF7ACF85B
:10213000A5F1010040B20546012DC8DA1B48006830
:1021400040F080001749C1F80C0C4FF0000070BD42
:1021500010B51648006820F080001249C1F80C0C38
:102160000846D0F80C0C40F04000C1F80C0C4FF0C1
:102170000500FEF789F80B48D0F80C0C40F0800001
:102180000A4908604FF00500FEF77EF80548D0F8D0
:102190000C0C40F080000349C1F80C0C10BD00008D
:1021A000000C014000000140001002400C0C0140F6
:1021B000080C014000BF00BF0100A0F10102104661
:1021C000FAD1704710B504466448C06840F4006016
:1021D0006249C8600846C06864F38910C8604FF05F
:1021E0000200FFF7E7FF5D48C06820F400605B492C
:1021F000C8604FF00200FFF7DDFF10BD10B50446C8
:102200004FF0C800FFF7D6FF5448C06840F4806024
:102210005249C8604FEA24110846FFF7D3FF204611
:10222000FFF7D0FF10BD10B504462046FFF7E6FFCC
:1022300010BD10B5044640F2DC50FFF7BBFF474825
:10224000C06820F480604549C8604FEA2411084600
:10225000FFF7B8FF2046FFF7B5FF10BD70B5044685
:102260000D4605EB850004EBC000C0B2064606F043
:102270007F0000F18000C0B206463046FFF7D9FF6C
:1022800070BD10B50120FFF7D4FF00210846FFF70D
:10229000E5FF10BD70B506464FF00000054601464B
:1022A0000846FFF7DBFF00BF745D04B90DE0204670
:1022B000FFF7B9FF05F10100C0B20546102D03D1AB
:1022C00001210020FFF7CAFFEEE770BD10B52448DA
:1022D000806940F0100022498861204800686FF34F
:1022E0000F0040F04C501D490860084640681D49E9
:1022F00000EA010043F2333140EA01001749486027
:1023000040F2DC50FFF756FF1448C06820F48060AC
:102310001249C8604FF00300FFF754FF41F2040078
:10232000FFF748FF0320FFF74DFF6420FFF742FF50
:102330000320FFF747FF0220FFF744FF2820FFF7A5
:1023400078FF0C20FFF775FF0620FFF772FF402093
:10235000FFF76FFF8020FFF76CFF10BD00100140FA
:1023600000100240FF00F0FF4FF0000211460CE0A9
:10237000425CA62A05DD425CA2F1A702054B9A5CED
:10238000425401F10102D2B21146425C002AEFD15F
:1023900070470000F438000890F900308B4200DAF2
:1023A000027090F90030934200DD0170704790F99F
:1023B00000308B4200DA017090F90030934200DD6A
:1023C00002707047B0F900308B4200DA0180B0F93A
:1023D0000030934200DD02807047B0F900308B423C
:1023E00000DA0280B0F90030934200DD01807047CE
:1023F00070B503460C4607E025781D7004F1010511
:102400002C4603F101052B461500A2F101063246C8
:10241000F2D170BD30B5034603E0197003F1010439
:1024200023461400A2F101052A46F6D130BDF0B5CD
:1024300003461C460D464FF00006304600BF16000E
:10244000A2F101073A460CD0277804F10106344680
:1024500095F800C005F101063546A7EB0C063000E3
:10246000EDD0F0BD024602E002F101000246107814
:1024700010B110788842F7D11078704770B50446D3
:102480000D464FF000000646A06AA84210D07EB963
:102490006178084601232A4604F12C0101F05BF91A
:1024A00028B14FF0FF3005464FF001000646A56207
:1024B000304670BD0246A1F1020001461069A0F14C
:1024C0000200884201D8002070479378506A01FBCF
:1024D0000300F9E72DE9F04705460C46022C02D32C
:1024E0002869A04202D84FF0010978E04FF0FF3987
:1024F0002878012804D0022834D003286AD148E083
:10250000274607EB57000746E86900EB57200146CE
:102510002846FFF7B3FF00B160E0384607F101013C
:102520000F46C0F3080105F12C0010F80180E8699E
:1025300000EB572001462846FFF7A0FF00B14DE011
:10254000C7F3080105F12C00405C48EA00208046F2
:1025500014F0010F02D04FEA181001E0C8F30B008D
:1025600081463BE0E86900EB142001462846FFF76E
:1025700085FF00B132E040F2FF1000EA440105F1AE
:102580002C0001EB00063078717840EA012081468A
:1025900024E0E86900EBD41001462846FFF76EFFFF
:1025A00000B11BE040F2FF1000EA840105F12C00AD
:1025B00001EB0006F0784FEA0060B17840EA014094
:1025C000717840EA0120317840EA010020F0704043
:1025D000814603E04FF00100814600BF00BF48463E
:1025E000BDE8F0872DE9F04104460E46E680A0687C
:1025F0000546012D03D020680069A84202D80220B8
:10260000BDE8F08135B920680078032802D1206840
:10261000006A054645B920680089B04201D8022009
:10262000EEE72068076A21E0206880784FEA00180A
:1026300014E0216808462946FFF74CFF0546681C50
:1026400001D10120DCE7022D03D320680069A842F4
:1026500001D80220D4E7A6EB080006464645E8D29A
:10266000216808462946FFF725FF0746E5600FB9B0
:102670000220C5E707EB16102061206800F12C004E
:1026800006F00F0100EB411060614FF00000B7E76A
:102690002DE9F04104460F46E08800F101000646AE
:1026A0003004000C01D0206910B90420BDE8F0818D
:1026B00016F00F0F31D1206900F101002061E068B0
:1026C00028B920680089B04227D80420EEE72068A6
:1026D0008078A0F1010010EA161F1ED1E2681146B1
:1026E00022681046FFF7F6FE0546012D01D80220AC
:1026F000DCE7681C01D10120D8E720680069A84206
:1027000004D80FB90420D1E70420CFE7E5602168A1
:1027100008462946FFF7CEFE2061E680206800F1DA
:102720002C0006F00F0100EB411060614FF000003B
:10273000BCE710B502468C7ECB7E44EA03231846E4
:102740001378032B06D10C7D4B7D44EA032340EA2A
:102750000343184610BD2DE9F04104464FF0000137
:102760002046FFF73FFF054615B12846BDE8F0813A
:1027700000BF2269114622681046FFF77FFE05461A
:1027800005B119E0666937781FB94FF004000546B6
:1027900012E0F07A10F0080F07D1A06901460B2271
:1027A0003046FFF744FE00B906E000212046FFF75F
:1027B0006FFF0546002DDCD000BF2846D6E72DE987
:1027C000F047044689464FF0040005462BE0226995
:1027D000114622681046FFF751FE054605B125E077
:1027E000D4F8148098F800701FB94FF00400054623
:1027F0001CE098F80B0000F03F06E52F0CD000BF5E
:102800000F2E09D026F02000082801D1012000E079
:102810000020484500D109E000212046FFF738FF9D
:10282000054605B102E020690028D0D100BF15B1EE
:102830004FF0000020612846BDE8F087F0B504465F
:1028400001F109000246206900283BD06669304644
:102850004FF000031AE01E4603F101073B46865D78
:102860003546202D00D111E0052D02D14FF0E506AF
:102870003546092B05D14FF02E06167002F10106E0
:102880003246157002F10106324600BF0B2BE2D32F
:10289000C67A0E72C67F4FEA0667867F47EA06470A
:1028A000467F47EA0626077F46EA07060E60077E50
:1028B000467E47EA06268E80877DC67D47EA062645
:1028C000CE8000BF4FF000001070F0BD2DE9F35F27
:1028D00001980068804602E008F10100804698F8FF
:1028E00000002F28F8D098F800005C28F4D0009859
:1028F00085690B2220212846FFF78CFD4FF000064A
:102900003746B1464FF0080B18F809002E282AD197
:1029100000BF484609F10101894618F800402E2CF5
:1029200002D1B9F1030F00D305E0384607F10101E8
:102930000F462C54EDE700BF2F2C06D05C2C04D0A2
:10294000202C02DD0620BDE8FC9F08EB0901019860
:102950000160202C02DC4FF0240001E04FF0200049
:10296000E8720020EFE700BF484609F101018946FF
:1029700018F800000446202C03DD2F2C01D05C2C1D
:1029800000D167E02E2C01D05F4512D3BBF1080FB8
:1029900001D12E2C01D00620D5E74FF008000746C4
:1029A0004FF00B0083464FEA86604FEA1060064600
:1029B000DAE7802C02DB46F003000646812C01DBBF
:1029C0009F2C03DDE02C25DBFC2C23DC484609F1A1
:1029D0000101894618F800A0BAF1400F02DBBAF1F4
:1029E0007E0F05DDBAF1800F06DBBAF1FC0F03DCC8
:1029F000ABF10100B84201D80620A4E7384607F140
:102A000001010F462C54384607F101010F4605F825
:102A100000A01EE02146F8A0FFF724FD08B1062023
:102A200091E7412C05DB5A2C03DC46F002000646F8
:102A30000AE0612C08DB7A2C06DC46F00100064631
:102A4000A4F12000C0B20446384607F101010F4648
:102A50002C5489E700BF08EB090101980160202C84
:102A600002DC4FF0040001E04FF00000C0B2044669
:102A70000FB9062067E72878E52802D14FF0050056
:102A80002870BBF1080F04D14FEA86604FEA10604E
:102A9000064606F00300012802D144F01000044667
:102AA00006F00C00042802D144F008000446EC7241
:102AB000002048E72DE9F3410446019800782F28CB
:102AC00003D0019800785C2807D1019800F101003B
:102AD00001904FF00000A06002E02068C068A06094
:102AE00001980078202808D200212046FFF77AFDBF
:102AF00005464FF0000060613BE000BF01A92046A1
:102B0000FFF7E4FE054605B132E02046FFF723FE5D
:102B10000546A069C67ABDB1042D14D116F0200F68
:102B20000BD04FF00000A060606116F0040F00D1E0
:102B3000E4E74FF00000054605E016F0040F02D16F
:102B40004FF00500054613E016F0040F00D00FE02B
:102B50006769F87A10F0100F03D14FF005000546B1
:102B600006E0216808463946FFF7E3FDA060C5E7A7
:102B700000BF2846BDE8FC8170B502464FF0FF3526
:102B8000284615681DB3116802E001F101052946C8
:102B90000D78212D02D30D783A2DF6D10D783A2DEE
:102BA00012D115682C46257804F101063446A5F1AA
:102BB00030030A2B07D28C4205D123B9184601F104
:102BC00001052946156070BD4FF00005284600BF7D
:102BD000F9E770B504460D464FF0000020714FF044
:102BE000FF30A06229462046FFF748FC08B10320C9
:102BF00070BD94F82A1294F82B0241EA0020A0F547
:102C00002A41553901D00220F2E794F86500010607
:102C100094F8640041EA004194F8630041EA00201E
:102C200094F86210084320F07F407749884201D130
:102C30000020DDE794F88100010694F8800041EA65
:102C4000004194F87F0041EA002094F87E10084388
:102C500020F07F406C49884201D10020C8E7012064
:102C6000C6E72DE9F74F88B04FF0000108980160E2
:102C70000998FFF781FF07900798002803DA0B20D7
:102C80000BB0BDE8F08F6149079851F820400CB9AE
:102C90000C20F5E708980460207858B16178084660
:102CA00000F052FD0690069810F0010F02D100BF0F
:102CB0000020E5E74FF00000207007986070617811
:102CC000084600F073FC0690069810F0010F01D042
:102CD0000320D5E700BF4FF0000841462046FFF72C
:102CE00078FF0546012D02D0002D3ED13DE04FF08A
:102CF000000006461AE004F5F57101EB06110846DE
:102D0000017961B1C17A4FEA0162817A42EA0142F6
:102D1000417A42EA0121027A41EA020101E04FF0E0
:102D200000014DF8261006F101000646042EE2D3FC
:102D30004FF00000064616B1A6F10100064600BF9E
:102D40005DF826008046B8F1000F04D041462046C9
:102D5000FFF73FFF01E04FF00200C0B205461DB192
:102D6000701C06460428EBD300BF032D01D10120BF
:102D700086E70DB10D2083E73720015D94F8380018
:102D800041EA0020B0F5007F01D00D2078E74FF038
:102D90004200015D94F8430041EA002787B994F8A6
:102DA00053004FEA006194F8520041EA004194F860
:102DB000510041EA002094F8501040EA0100074613
:102DC00067614FF03C00005DE070E078012804D0BE
:102DD000E078022801D00D2052E7E07847434FF019
:102DE0003900005DA070A07820B1A078A0F10101A9
:102DF00008420DD00D2043E7222A2B2C3A3B3C3DC4
:102E00003E3F5B5D7C7F0000464154000401002092
:102E10004FF03D00015D94F83E0041EA0020208122
:102E2000208910F00F0F01D00D2029E74FF03F004F
:102E3000015D94F8400041EA0029B9F1000F10D17A
:102E400094F84F004FEA006194F84E0041EA0041C7
:102E500094F84D0041EA002094F84C1040EA01003B
:102E600081464FF03A00015D94F83B0041EA002BA7
:102E7000BBF1000F01D10D2002E70BEB0700218908
:102E800000EB111005900598814501D20D20F7E661
:102E90000598A9EB0000A178B0FBF1FABAF1000F98
:102EA00001D10D20ECE64FF00100054640F6F6702A
:102EB000824502D34FF0020005464FF6F670824578
:102EC00002D34FF0030005460AF102002061C4F866
:102ED000188008EB0B00E061059840446062032D08
:102EE00019D1208908B10D20CAE694F85B004FEA99
:102EF000006194F85A0041EA004194F8590041EA0F
:102F0000002094F8581040EA0100206220694FEA3E
:102F10008000049015E0208908B90D20B0E6E06932
:102F200038442062022D03D120694FEA400007E0B7
:102F3000206900F00100216901EB410100EB510023
:102F400004906169049800F2FF10B1EB502F01D298
:102F50000D2095E62570B448008800F1010080B28C
:102F6000B1490880E0804FF00000E06000BF87E6D4
:102F700070B505462C464CB1206838B12068007801
:102F800020B12068C088A188884201D0092070BD86
:102F900021684978084600F0D7FB10F0010F01D0F6
:102FA0000320F4E70020F2E7F7B582B01646039855
:102FB000019001A8FFF7E0FD0546002D02DA0B2085
:102FC00005B0F0BD994850F8254014B14FF000000D
:102FD0002070029818B14FF00000029908709349D0
:102FE000029841F82500029808B1012E01D0002076
:102FF000E6E7002203A902A8FFF733FE074638469A
:10300000DEE7F7B58AB00446174614B909200DB0BB
:10301000F0BD4FF00000206007F0010007464FF0C0
:1030200000020BA903A8FFF71CFE0646002E37D1AD
:10303000CDF824D003A80B99FFF73CFD0646089D68
:103040006EB9089805461DB94FF00600064606E021
:10305000E87A10F0100F02D04FF004000646FEB9D7
:10306000A7714FF00000E071039908462946FFF769
:1030700060FB2061E87F4FEA0061A87F41EA0041E0
:10308000687F41EA0020297F40EA0100E0604FF0BC
:103090000000A060A061039820602068C088A08024
:1030A0003046B4E72DE9FF4F83B0044615469946F4
:1030B000049800904FF00000C9F800002046FFF788
:1030C00057FF0290029818B1029807B0BDE8F08F40
:1030D000E07908B1E079F8E7A07910F0010F01D1AB
:1030E0000720F2E7D4E90210A0EB0100019001985B
:1030F000854201D90198054691E0A068C005C00D40
:103100006AD120688078A0F10100A16800EA51200E
:1031100000F0FF08B8F1000F1BD1A06810B92069BA
:10312000834606E06269114622681046FFF7D2F92D
:103130008346BBF1020F03D24FF00200E071C4E7F7
:103140001BF1010003D14FF00100E071BDE7C4F8AD
:1031500014B06269114622681046FFF7ABF90746C2
:103160001FB94FF00200E071AFE707EB0800074618
:103170004FEA55208246BAF1000F1BD008EB0A0037
:1031800021688978884204D920688078A0EB0800FB
:10319000824621684978084653463A46009900F02D
:1031A000DAFA18B14FF00100E0718EE74FEA4A20D9
:1031B000064626E0A069B8420DD021684978084645
:1031C00001233A4604F11C0100F0C5FA18B14FF092
:1031D0000100E07179E7A761A068C0F30800C0F5BD
:1031E00000700646AE4200D92E46A068C0F3080221
:1031F00004F11C001044014632460098FFF7F8F82D
:1032000000BF009830440090A0683044A060D9F816
:1032100000003044C9F80000A5EB06000546002D6B
:103220007FF46BAF002050E708010020040100206C
:10323000FB48806940F48050F949886108468069FC
:1032400040F0040088610846806940F01000886101
:10325000F448006820F4706040F44070F149086060
:10326000F148006820F4700040F43000EF49C1F8E4
:1032700000084FF04000C1F81008EB48006820F04B
:10328000706040F00060C1F80008E748006820F076
:10329000704040F03040E44908604FF00100E349DD
:1032A000C1F81008E048006820F00F0040F0080066
:1032B000DD4908604FF45170DD4908804FF010007F
:1032C000DC4908604FF00A00DB49086000BFDA48BB
:1032D00000680028FBD170470146D548818100BFB6
:1032E000D348008910F0800FFAD1D1488089C0B24C
:1032F000704710B50A46CE4B1B8823F04003CC4CD8
:10330000238023461B8843F4046323804FF6FF7316
:10331000A381A2F102031A4600BF00BFC44B1B8960
:1033200013F0800FFAD1C24B99894FF6FF73C04C4E
:10333000A38141704FEA2123037000F10203184674
:10334000A2F102031A00E8D100BFB94B1B8913F0A8
:10335000800FFAD1B64B9B89194641704FEA212361
:103360000370B34B1B8823F40463B14C23802346C2
:103370001B8843F04003238010BD10B5AC4B1B8865
:1033800023F04003AA4C238023461B8843F40463A4
:1033900023804378047843EA04231A46A44B9A8195
:1033A00000F102031846A1F10203194600BF437859
:1033B000047843EA04231A4600BF9D4B1B8913F08F
:1033C000800FFAD19A4B9B89994B9A8100F10203A5
:1033D0001846A1F102031900E9D100BF944B1B89E3
:1033E00013F0800FFAD1924B9B89914B1B8823F4E9
:1033F00004638F4C238023461B8843F040032380C3
:1034000010BD70B505468D48056000BFFF20FFF771
:1034100063FF0446FF2C03D0884800680028F5D1DC
:10342000FF2C01D1012070BD0020FCE710B54FF04A
:103430001000804908604FF0FF00FFF74DFF10BDFE
:1034400010B54FF480107B4908604FF0FF00FFF784
:1034500043FF4FF4FA70FFF7D4FF08B1012010BD0D
:10346000FFF7E4FF0020FAE770B505460E464FF07F
:10347000C8007149086000BFFF20FFF72DFF044618
:10348000FF2C03D16C4800680028F5D1FE2C01D038
:10349000002070BD31462846FFF72BFFFF20FFF7C5
:1034A0001BFFFF20FFF718FF0120F2E770B506466B
:1034B0000C464FF4FA70FFF7A4FF08B9002070BD66
:1034C0002046FFF709FFFD2C14D04FF40071304661
:1034D000FFF753FFFF20FFF7FFFEFF20FFF7FCFE83
:1034E000FF20FFF7F9FE054605F01F00052801D073
:1034F0000020E4E70120E2E72DE9F04104460D4613
:1035000014F0800F0ED004F07F0004464FF000014D
:103510004FF03700FFF7F0FF0646012E02DD304680
:10352000BDE8F0810C2C06D0FFF780FFFFF788FF85
:1035300008B9FF20F4E744F040010846FFF7CCFE4D
:10354000290E0846FFF7C8FEC5F307410846FFF7F6
:10355000C3FEC5F307210846FFF7BEFEE8B2FFF73A
:10356000BBFE4FF0010714B94FF095000746082C39
:1035700002D14FF0870007463846FFF7ADFE0C2C0E
:1035800002D1FF20FFF7A8FE4FF00A00074600BF58
:10359000FF20FFF7A1FE064616F0800F04D0A7F12A
:1035A0000100C0B20700F3D13046B9E7F8B50746CD
:1035B0000FB10120F8BDFFF73BFE2148007810F065
:1035C000020F02D01E480078F4E71948008820F066
:1035D000380040F02800164908804FF00A0406E041
:1035E000FF20FFF779FEA4F10100C0B20446002CD1
:1035F000F6D1264621460846FFF77EFF012863D113
:103600004FF47A700C4908604FF4D5714FF0080000
:10361000FFF772FF012858D14FF0000004461AE06E
:10362000001002400010014000080140000001406D
:10363000003001401008014010010020140100205A
:103640000C010020FF20FFF747FE0DF8040004F1F5
:103650000100C0B20446042CF4DB9DF802000128EE
:1036600059D19DF80300AA2855D100BF78480068B9
:1036700030B14FF08041A920FFF73EFF0028F5D17F
:1036800073480068002846D000213A20FFF734FF35
:10369000D0B94FF00000044608E0FF20FFF71CFE01
:1036A0000DF8040004F10100C0B20446042CF4DB60
:1036B0009DF8000010F0400F02D04FF00C0001E028
:1036C0004FF00400C0B2064625E00021A920FFF714
:1036D00013FF012805DC4FF0020006464FF0A90554
:1036E00003E04FF001000646054600BF5848006859
:1036F00028B100212846FFF7FFFE0028F6D15448E4
:10370000006828B14FF400711020FFF7F5FE10B1EA
:103710004FF0000006464F480670FFF787FE66B17F
:103720004D48008820F038004B4908804B4800780D
:1037300020F001004949087003E04FF001004749BB
:1037400008704648007835E7014609B10120704706
:1037500042480078FBE72DE9F04107460D46164642
:103760001C4607B914B90420BDE8F0813B48007835
:1037700010F0010F01D00320F6E73648007810F072
:10378000080F02D14FEA46200646012C0DD13146E2
:103790001120FFF7B1FE08BB61022846FFF764FE67
:1037A000E0B14FF00000044618E031461220FFF768
:1037B000A3FE98B900BF4FF400712846FFF754FEEE
:1037C00000B906E005F500700546A4F1010004000B
:1037D000F1D100BF00210C20FFF78EFEFFF726FE7F
:1037E0000CB1012000E00020C0B2BDE7184A126809
:1037F00092B2114629B1A1F1010292B21146144BC5
:103800001A60174A126892B2114661B1A1F1010221
:1038100092B21146124B1A601A4612681AB94FF04A
:103820000102104B1A700D4A1278104620F0040263
:1038300010460D4A126812F0010F03D120F0020267
:10384000104602E040F003021046044A1070704730
:103850001001002018010020003001400C01002060
:1038600014010020FD000020080801407047704747
:103870007047754600F028F8AE4605006946534685
:1038800020F00700854618B020B5FCF78BFCBDE89A
:1038900020404FF000064FF000074FF000084FF0B7
:1038A000000B21F00701AC46ACE8C009ACE8C00948
:1038B000ACE8C009ACE8C0098D4670470446AFF3D8
:1038C00000802046FCF75BFC004870478C0D002010
:1038D00000487047900D002001491820ABBEFEE75C
:1038E00026000200704710B5FFF7F2FF4FF000010D
:1038F000016010BDFDA2FFAAC8ACADAEAFB0B1D79C
:1039000069B4B5FEDFB5CCBAC9BCBDBEBF41A042EB
:10391000A1E045A3A4A5A64BA74D484FA8504354EA
:10392000A9AA58E1ABACE2ADAEC4AFB0B161B2B3DD
:10393000B4E365B6B7B8B9BABBBCBD6FBE7063BF00
:1039400079AA78E5C0C1E6C2C3C4C5C6C7000000F5
:1039500070390008000000201C0100002801000848
:103960008C3A00081C010020D40E0000440100081D
:103970002A2E2E2E2E2E2E2E2E2E2E2E2E2E2E2E6B
:10398000402E2E2E2E2E2E2E2E2E2E2E2E2E2E2053
:1039900000000000000000003200000000000A00EB
:1039A000020200006400050019000600000000008B
:1039B0000000000000000000000000000000000007
:1039C00000000000000000000000000000000000F7
:1039D00000000000000000000000000000000000E7
:1039E00000000000000000000000000000000000D7
:1039F00000000000000000000000000000000000C7
:103A000000000000000000000000000000000000B6
:103A100000000000000000000000000000000000A6
:103A20000000000000000000000000000000000096
:103A30000000000000000000000000000000000086
:103A40000000000000000000000000000000000076
:103A50000000000000000000000000000000000066
:103A60000000000000000000000000000000000056
:103A70000000000000000000000000000100000045
:0C3A80000000000000000000000000003A
:04000005080000ED02
:00000001FF
