:020000040800F2
:10000000F80F00208D0100089101000893010008FD
:100010009501000897010008990100080000000000
:100020000000000000000000000000009B0100082C
:100030009D010008000000009F010008F114000865
:10004000A3010008A3010008A3010008A301000800
:10005000A3010008A3010008A3010008A3010008F0
:10006000A3010008A3010008A3010008A3010008E0
:10007000A3010008A3010008A3010008A3010008D0
:10008000A3010008A3010008A3010008A3010008C0
:10009000A3010008A3010008A3010008A3010008B0
:1000A000A3010008A3010008A3010008A3010008A0
:1000B000A3010008A3010008A3010008A301000890
:1000C000A3010008A3010008A3010008A301000880
:1000D000A3010008A3010008A3010008A301000870
:1000E000A3010008A3010008A301000800F002F822
:1000F00000F03CF80AA090E8000C82448344AAF186
:100100000107DA4501D100F031F8AFF2090EBAE883
:100110000F0013F0010F18BFFB1A43F0010318473B
:100120000C3600002C360000103A24BF78C878C185
:10013000FAD8520724BF30C830C144BF04680C60ED
:10014000704700000023002400250026103A28BF35
:1001500078C1FBD8520728BF30C148BF0B60704739
:100160001FB503F0AEFA1FBD10B510BD03F06FFA56
:100170001146FFF7F5FF01F0C5FA03F08DFA03B45D
:10018000FFF7F2FF03BC03F095FA000008480047B0
:10019000FEE7FEE7FEE7FEE7FEE7FEE7FEE7FEE737
:1001A000FEE7FEE703480449024A044B704700009B
:1001B000ED000008F80D0020F80F0020F80D0020D9
:1001C00000BF4FF012002349086000BF00BF224863
:1001D000224948602248086000BF00BF1F480068ED
:1001E00010F0007FFAD000BF1C48406800F00C00FF
:1001F0000828F9D100BF00BF1A484FF0E02148613C
:100200004FF0060008614FF0000088610846006961
:1002100040F00100086100BF00BF1048806940F055
:1002200008000E4988614FF06E400F4908604FF496
:1002300040700E49C1F8040C0848806940F0100075
:10024000064988614FF0000009490860486000BF16
:10025000704700000020024002841200001002409B
:10026000820000017FA90300000C01400000014052
:100270000010014010B501F017FF01F0F0FE002161
:10028000084601F0D9FE10BD00EB8002114600BF08
:10029000A1F101021100FBD17047FF48C06940F095
:1002A0000050FD49C8614FF00100FC4908607047EB
:1002B0002DE9FF5F05460E4617469846DDE90FAB70
:1002C000DDF8389006EB86004FEA400000B2F449B2
:1002D00008804FF00000F3490880BAF1000F02D106
:1002E000F149088008E00BEB8B00ED490988A1EB90
:1002F000400000B2EC490880EC48A0F800903FB9FB
:10030000EB48A0F800904FF00000EA49087015E0B3
:100310004FF01400E64908804FF00100E5490870ED
:100320004FF0640008FB00F0E049B1F90010A1F1C2
:10033000140190FBF1F000B2DF4908802C464FF029
:1003400030008DF800008DF801008DF802008DF866
:1003500003008DF804008DF805008DF806008DF877
:1003600007004FF02E008DF808004FF077008DF851
:1003700009004FF061008DF80A004FF076008DF80B
:100380000B004FF000008DF80C004FF00A0094FBBA
:10039000F0F100FB114000F13000C0B28DF8070011
:1003A0004FF00A0094FBF0F000B204464FF00A0050
:1003B00094FBF0F100FB114000F13000C0B28DF869
:1003C00006004FF00A0094FBF0F000B204464FF034
:1003D0000A0094FBF0F100FB114000F13000C0B2C4
:1003E0008DF805004FF00A0094FBF0F000B20446CF
:1003F0004FF00A0094FBF0F100FB114000F13000D7
:10040000C0B28DF804004FF001026946AB4802F01B
:10041000E6FCAB4908704FF00100AA490860AA4900
:100420000860AA4908604FF0FA00A94908804FF017
:100430000000A8490860BDE8FF9F9948008810B3F4
:100440009748B0F900009749B1F9001088421ADDC9
:100450009448008800F1010000B2924908800846E3
:10046000B0F900008E49B1F9001088420BDB4FF063
:1004700000008B4908808B4908808D4908804FF027
:100480000100944908608848008808B38648B0F99C
:1004900000008449B1F90010884219D14FF0FF00E3
:1004A000844908707E48B0F900007F49B1F9001016
:1004B000A0EB010000EB80004FEA40017B48B0F95F
:1004C0000000A0F10A0091FBF0F000B27A49088028
:1004D00070474FF001007F4908604FF000007149FC
:1004E0000880704710B57C48006820F470407B4954
:1004F000C1F800080846D0F8000840F40050C1F8E0
:1005000000087748008830B175480088A0F10100E4
:1005100000B27349088073480088012806D17248E8
:10052000008800F1010000B26F4908806E48008821
:1005300038B96E48006820F008006849C1F80C0816
:1005400009E06948008830B16848006840F0080058
:100550006249C1F80C086648B0F90000401F00EB82
:1005600080005F49B1F90010B1EB400F13D1614831
:10057000008800F1010000B25E49088042F20F726B
:100580004FF000015B4801F016FE5A48B0F9001028
:10059000142001F0F5FA10BD10B55748008800F19D
:1005A000010000B2544908800846B0F900004249F1
:1005B000B1F90010884222DB4FF000004E4908805C
:1005C0003C480078012807D13948008800F1010033
:1005D00000B2374908800BE0364890F90000401C13
:1005E00006D133480088A0F1010000B230490880EC
:1005F0002E48B0F9002000212D4801F0D1FD2C48F3
:10060000B0F9000040434FF0640190FBF1F000B2FC
:100610003A49088010BD3A4800683A4900EA0100AA
:100620002E49C1F8040C36480068374940EA0100F9
:100630002A49C1F8040C0846D0F80C0C40F4E050EC
:10064000C1F80C0C3148006810F4006F12D130482A
:1006500000780A2812DA2E48007800F101002C49AF
:100660000870084600780A2808DB4FF00100294985
:10067000087003E04FF00000254908702348006827
:1006800010F4805F55D1244800780A2855DA2248B2
:10069000007800F1010041E00010024000740040C9
:1006A000DC000020DA000020DE000020E400002052
:1006B000E000002032000020340000207C0B0020ED
:1006C000360000208C0000209C00002098000020B4
:1006D000D8000020900000200008014000000140E8
:1006E000EA000020F4000020EC0000200C0801408B
:1006F0007C00002086000020E6000020E2000020B0
:10070000040C0140FF00F0FF00880800080C0140C5
:10071000760000207900002078000020FF49087052
:10072000084600780A2808DB4FF00100FC490870F1
:1007300003E04FF00000F9490870FA48006810F42F
:10074000806F12D1F84800780A2812DAF64800784B
:1007500000F10100F4490870084600780A2808DB17
:100760004FF00100F149087003E04FF00000EE493E
:10077000087070470EB5EE480078B8B34FF000002F
:10078000EB490870EB48008880BBEB48008800EB21
:1007900080004FEA400000B2E8490880E84800883D
:1007A00000F1010000B2E6490880E648B0F90020F7
:1007B0004FF00101E24801F0FEFC0A200021642212
:1007C0000523CDE9002102900A46DB480088643009
:1007D00001B2DB48B0F90000FFF76AFD4FF00000FE
:1007E000D94908804FF00100D2490880CC480078F0
:1007F00038B14FF00000CA490870CE490880CF498F
:100800000880CA48007870B14FF00000C7490870EE
:10081000CA48008838B94FF00000CB490880C54964
:100820000880FFF756FE0EBDC8490870704710B526
:10083000C648007860B1C5480078A0F10100C349FE
:1008400008700846007818B90021084601F026F91A
:1008500010BD10B59EB0BE480078002845D1B748FD
:100860000088F0B9BBA1C0A001F054F9B248B0F9BA
:1008700000003C2190FBF1F080B2044600222121CF
:1008800001F0C2F8AC48B0F900003C2190FBF1F255
:1008900001FB120080B204460022402101F0B4F8AE
:1008A000ABE2B6A1BAA001F035F9A448B0F9000056
:1008B0000A2190FBF1F03C2190FBF1F080B204465C
:1008C000002201F0A1F89D48B0F900000A2190FB38
:1008D000F1F03C2190FBF1F201FB120080B20446E2
:1008E00000223E2101F090F887E299480078032821
:1008F0007FD1ACA00090B0A00190B4A00290B8A0AD
:100900000390BCA00490C0A00590C4A00690C8A00D
:1009100007908F4A92F90120012303EB42025DF810
:10092000222011468A4A92F9012052005DF82220C5
:10093000104601F0EFF88048B0F900003C2190FB30
:10094000F1F080B204460022212101F05DF87A48DE
:10095000B0F900003C2190FBF1F201FB120080B2E3
:1009600004460022402101F04FF8B648B0F90000DB
:100970003C2190FBF1F080B204460022232101F0DB
:1009800043F8B048B0F900003C2190FBF1F201FBC4
:10099000120080B204460022242101F035F8AA4852
:1009A000B0F900003C2190FBF1F080B20446002237
:1009B000252101F029F8A448B0F900003C2190FB62
:1009C000F1F201FB120080B2044600225E2101F028
:1009D0001BF8002228215B48008880B201F014F83F
:1009E000002229219948008880B201F00DF804E224
:1009F000FFE757480078152804D195A199A001F088
:100A000089F8FAE152480078162835D19A480078DA
:100A100000F101009849087008460078142811DD9B
:100A20004FF0000008704A48007900F1010040B220
:100A300047490871084690F90400022802DD4FF08A
:100A4000000008714248007920B98CA190A001F003
:100A500061F8D2E13E480079012804D191A196A025
:100A600001F058F8C9E13A4800790228BFD197A1AE
:100A70009BA001F04FF8C0E13548007802281DD155
:100A80009CA1A1A001F046F8A448007800F1300034
:100A9000A349C872A148407800F1300008739F480C
:100AA000807800F1300048734FF05E01284890F9DB
:100AB000010000F11B009A4A11549EE1244800787D
:100AC000092804D197A19CA001F024F895E12048C1
:100AD000007804280BD156A19CA001F01BF800223D
:100AE00021219F48008880B200F08EFF85E11848E0
:100AF00000782C2811D14EA14DA001F00BF814481C
:100B0000407848B900231A461946012000F043FFF7
:100B100000230222012125E15AE16EE17800002044
:100B20007B000020080C0140770000207A000020A4
:100B300079000020F40000207C000020EA00002062
:100B4000F000002082000020EC0000206300002064
:100B50005E00002020E2F0E5ECFF20202020302184
:100B60003A3040200000000020D3F1F2E0EDEEE248
:100B7000EBE5EDEDEEE520200000000020EEF1F2C7
:100B8000E0EBEEF1FC20303C3A303E20000000006B
:100B90002020C4EE20EEEAEEEDF7E0EDE8FF2020A5
:100BA0000000000020C4EBE8F2E5EBFCEDEEF1F212
:100BB000FC2020200000000020F1E5E0EDF1E02025
:100BC000202021EC304063200000000020CAEEEB22
:100BD000E8F7E5F1F2E2EE202020202000000000FE
:100BE00020F4E0E9EBEEE220202020202028202045
:100BF0000000000020D1F7E5F2F7E8EA20202020ED
:100C0000202020200000000020F1E5E0EDF1EEE2E0
:100C100020202020202020200000000020C2FBF502
:100C2000EEE42020202020202020202000000000B2
:100C300020202020202020202020202020202020B4
:100C400000000000800000207E00002084000020C2
:100C50002020EAE0F0F2E020EFE0ECFFF2E82020D4
:100C6000000000002020CEF2F1F3F2F1F2E2F3E511
:100C7000F2202020000000003B000020E8EDE8F614
:100C8000E8E0EBE8E7E8F0F3E5F2F1FF0000000050
:100C9000CAE0F0F2E020EFE0ECFFF2E820EDE52022
:100CA00000000000202020EDE5E8F1EFF0E0E2EDAB
:100CB000E02C2020000000002020C2EEE7ECEEE651
:100CC000EDEE20EEEDE0202000000000F0EEE2E08E
:100CD000EDE020E2204641543136202000000000A3
:100CE000E8EBE820EDE520EEF2F4EEF0ECE0F2E8DF
:100CF00000000000202020EFE0F0EEEBFC202020A0
:100D000020202020000000002020C2E2E5E4E8F2DC
:100D1000E52020202020202000000000510000209D
:100D200000000020202020EDE5E2E5F0EDFBE921C8
:100D300021212020000000002020202020CFE0F0F2
:100D4000EEEBFC20202020200000000020202020AE
:100D50002020202020212020202020200000000012
:100D600086000020FE48008880B200F014FE0023B8
:100D70000F221946FB48008880B200F00CFE0023C9
:100D80000F220121F848008880B200F004FE002301
:100D90000C221946F548008880B200F0FCFD0023C3
:100DA0000C220121F248008880B200F0F4FD0023FB
:100DB00005221946EF48008880B200F0ECFD0023C0
:100DC00005220121EC48008880B200F0E4FD14E027
:100DD000EA484078012806D100231A461946022025
:100DE00000F0D9FD09E0E5484078022805D100234C
:100DF0001A461946032000F0CEFDE14801F0A2F9A1
:100E00001EB010BDDF48006860F00700DE490860D2
:100E1000DE48806860F03000096800EA0100DA49C5
:100E2000086008460068401C05D008460068D8499C
:100E30000968884238D04FF00000D6490870D6487B
:100E40000078042802DAD548007858B1D4480078F0
:100E500040B94FF00100D3490870CD48006800B296
:100E6000D1490880CD480078D049097888420CDB08
:100E70004FF00100CB490870C54800684FF67F71FC
:100E800000EA010000B2C84908804FF00000C449E0
:100E900008704FF01400C54908704FF00000BE49BB
:100EA0000870BE49087042E0B7480068B849096850
:100EB00088423BD1B848007800F10100B64908707B
:100EC00008460078042831DB4FF000000870B34872
:100ED000007800F10100B149087008460078B34974
:100EE0000978884222DBAA4800684FF67F7100EA41
:100EF000010000B2AC4908804FF00000A74908701B
:100F00004FF00100A7490870A5490870A148007872
:100F100060B1A64800784FEA6000A449087008460E
:100F20000078022802DC4FF00200087000BF9648EB
:100F30000068974908609E48806940F018009C4905
:100F400088619C4800686FF30B009B49C1F8000C56
:100F50009848006840F6880140EA01009649C1F8C7
:100F6000000C0846D0F80C0C40F00700C1F80C0C3F
:100F700092480068924908608448006820F47F0025
:100F8000824908600846006840F408000860084686
:100F9000C06840F03000C86070473EB581480078B6
:100FA00000B9A0E28748008800F1010000B285493D
:100FB00008807D48B0F90000A0F57F41FA390CD1D6
:100FC0006E4800782C2804D04FF02C006B49087034
:100FD00003E04FF000006949087068480078D0BB12
:100FE0007148B0F90000833005D100231A46194634
:100FF000032000F072FD6C48B0F90000A0F57F41BD
:10100000FD3905D17048008801B21E2000F0B8FDFE
:101010006548B0F90000A0F57F41FB3903D14FF0DE
:101020000A006A4908706048B0F90000A0F57F41E5
:10103000EF390FD10A21012249480088C0B20523A7
:10104000CDE901210090624800880A3001B21046C3
:10105000FFF72EF946E2FFE74848007803287DD1E4
:101060005148B0F90000801C10D144484078A0F1EC
:10107000010040B2414948704FF004024FF00001B6
:101080003E4800F1010001F080F82BE24648B0F93B
:101090000000401D10D13948407800F1010040B2F5
:1010A000364948704FF004024FF00001334800F118
:1010B000010001F06AF815E23B48B0F90000853004
:1010C00004D14FF005002D4948700BE22B484078C1
:1010D000002844D13448B0F9000021301DD13C48EB
:1010E000B0F900004FF00A0190FBF1F000F10100AF
:1010F00000EB80004FEA400000B2354908804FF411
:1011000096724FF01E01324801F04AF83048B0F9AB
:1011100000100A2000F034FDE4E12348B0F900009B
:10112000A1305AD12A48B0F900004FF00A0190FBD3
:10113000F1F000F1010000EB80004FEA400000B246
:10114000234908804FF496724FF01E01204801F0A9
:1011500027F81F48B0F900100A203BE0E3E082E0E6
:1011600084000020E0000020E2000020DE000020DB
:10117000DC000020EA000020F00000205E000020DB
:1011800000000020080C0140680000200010014011
:101190006C0000207300002070000020710000200F
:1011A0007400002075000020640000207200002000
:1011B00000100240000C0140000001400C0C0140F6
:1011C000FC00002006010020000100203600002065
:1011D0007C00002000F0D4FC84E1FF48B0F900005E
:1011E00011301DD1FD48B0F900004FF00A0190FB0D
:1011F000F1F0A0F1010000EB80004FEA400000B2E6
:10120000F64908804FF496724FF01E01F34800F043
:10121000C7FFF248B0F900100A2000F0B1FC61E10C
:10122000ED48B0F900009130D6D1EC48B0F900009B
:101230004FF00A0190FBF1F0A0F1010000EB8000FB
:101240004FEA400000B2E54908804FF496724FF033
:101250001E01E24800F0A4FFE048B0F900100A20A7
:1012600000F08EFC3EE1DE48407801283DD1DA48AE
:10127000B0F90000213004D0D748B0F90000A13007
:1012800014D1D848008800F1010000B2D549088087
:101290004FF014024FF00101D24800F081FFD14815
:1012A000B0F90010102000F06BFC1BE1CA48B0F947
:1012B0000000113004D0C848B0F9000091308BD143
:1012C000C8480088A0F1010000B2C64908804FF06C
:1012D00014024FF00101C34800F062FFC148B0F9A9
:1012E0000010102000F04CFCFCE0BD4840780228C3
:1012F0000BD1B948B0F90000833090D100231A46D1
:101300001946022000F0E9FBECE0B54840780328DC
:1013100085D1B148B0F900008330A3D1002108463F
:1013200000F0BCFBDEE0AE48007802287DD14FF033
:101330000100AD490870A848B0F90000801C04D035
:10134000A548B0F9000082300DD1A54890F9010000
:10135000A649085C00F1010040B2A14991F90110D1
:10136000A24A505416E09C48B0F90000401D04D039
:101370009948B0F9000085300CD1994890F90100E6
:101380009A49085CA0F1010040B2954991F9011019
:10139000964A5054924991F90110944A11440846D2
:1013A0000922002100F0E6FE8B48B0F90000213050
:1013B00010D18B48407800F1010040B28849487054
:1013C0004FF002024FF00001854800F1010000F0EB
:1013D000D1FE53E08048B0F90000113010D18048B0
:1013E0004078A0F1010040B27D4948704FF0020200
:1013F0004FF000017A4800F1010000F0BBFE3DE033
:101400007548B0F90000C01C38D1784890F9020046
:10141000764991F9011001EB810100EB410073491C
:1014200091F9001001EBC10200E028E002EB01118C
:1014300000EB81046A48007802281FD1A4F50070EF
:10144000F13813D10021084600F028FB00231A468A
:101450001946042000F041FB0F20FFF7E5F94FF09B
:101460000000624908704870887007E04FF009007A
:101470005B4908704FF00F00FFF7D6F932E058488B
:1014800000782C282ED15448B0F90000A0F57F41F7
:10149000EF3910D152484078A0F1010040B25049D4
:1014A00048704FF002024FF000014D4800F101007A
:1014B00000F060FE16E04848B0F90000A0F57F415A
:1014C000DF390FD14648407800F1010040B244496D
:1014D00048704FF002024FF00001414800F1010056
:1014E00000F048FE00BF4FF00000414908703EBDCB
:1014F00010B540480068012807D14FF000003E4970
:1015000008603E4908603B4908603B480068002885
:1015100046D03B48008800F1010039490880084660
:101520000088B0F5806F02DB4FF00000088035487E
:10153000008864280AD134483149098830F81100FC
:1015400000F5004000B23149088011E02E482C49D6
:10155000098830F911002E49B1F9001048434FF0C5
:10156000640190FBF1F000F5004000B227490880CB
:101570002648B0F900002749086021480088032860
:1015800003D14FF00100244908601D480088A0F5F0
:101590000071033908D14FF001002049086003E0D1
:1015A0004FF400401B4908601D480088401C00B2F1
:1015B0001B4908802C2808DB4FF0000008804FF002
:1015C00001001849087001F0FFFF17480088401C0F
:1015D00000B21549088029E0640000207C0000204A
:1015E0005E000020820000207300002051000020D7
:1015F00075000020940000208C000020A400002032
:10160000D8000020E000002050010020B40000209D
:10161000E20000200C7400409C0000209800002094
:101620004C0000203C0000204A000020B0F5DC7F88
:1016300067DD4FF0000008804FF001008949087015
:101640008948007800F10100C0B2874908700A2873
:1016500006DB4FF0000008704FF00100834908706E
:1016600083480078401CC0B281490870142812DBFE
:101670004FF0000008704FF001007E4908707E486E
:10168000007820B14FF000007B49087003E04FF074
:1016900001007949087079480078401CC0B2774948
:1016A0000870322812DB4FF0000008704FF0010084
:1016B000734908707348007820B14FF000007149F9
:1016C000087003E04FF001006E4908706E48007822
:1016D000401CC0B26C490870642812DB4FF0000057
:1016E00008704FF00100694908706948007820B11E
:1016F0004FF000006649087003E04FF001006449B4
:10170000087010BDFEF75CFD4FF408704FF0E0214B
:1017100048616048FEF7B8FDFEF7BFFDFEF7AAFD81
:101720004FF000005C49087000F086FA0C225B491B
:101730000A2000F048FA0122AFF6D831584801F0EB
:1017400021FB584908708CE05748006888B1574819
:10175000006840F480605649C1F80C0C554B4FF4BA
:1017600080625549554801F08BFB4FF000004E490F
:10177000086053480068012805D1524908604FF0BD
:1017800000004F4908605048006888B14748006829
:1017900020F480604649C1F80C0C464B4FF480623F
:1017A0004A49464801F06CFB4FF00000464908608A
:1017B00043480068012807D1424908604FF0000003
:1017C0003F490860344908704148007818B14FF02B
:1017D00000003F4908702348007868B14FF00000CE
:1017E00020490870FFF70EFBFFF7D7FBFEF713FF4A
:1017F000FEF7C0FFFEF7D0FE1C48007870B14FF036
:1018000000001A490870FFF724F8324800F030FC55
:10181000FFF70DF8FEF766FEFEF70FFE154800789D
:1018200018B14FF00000134908701848007888B1CB
:101830004FF00000154908704FF00C0217494FF0A7
:101840000A0000F0C0F92448008800F1010000B24D
:10185000214908802148007818B14FF000001F4945
:10186000087071E73D000020460000203F00002086
:1018700047000020400000204E00002048000020CB
:10188000410000204F0000204900002042000020BD
:1018900050000020A08601005E0000207C00002097
:1018A0005009002036000020980000200C0C014058
:1018B000000001400C010020500100207C0B0020A2
:1018C00090000020940000209C0000205005002083
:1018D0003C00002000000020F6000020080100204D
:1018E00001464FF00002104600BF00F10102D2B2E3
:1018F00010469D4A125C8A4201D02828F5DB7047C9
:101900004FF0050211464FF00002114610E04FF073
:101910000A02B0FBF2F302FB1302944B5A544FF04D
:101920000A02B0FBF2F2104601F10102D2B21146F6
:101930000529ECDB704710B501464FF001028C4BD6
:101940001A704FF00502104622E0894A127862B1FF
:10195000421E864B9A5C42B9884206DD4FF0200356
:10196000A0F10102814CA3540EE0A0F101027F4BD3
:101970009A5C02F13002D3B2A0F101027B4CA35475
:101980004FF000027A4B1A70A0F10102D2B2104659
:101990000028DADC10BD2DE9F04381460F46904661
:1019A0001D464846FFF7ACFF681CC0B2FFF7C3FFF7
:1019B00008EB0710C0B206464FF0000004461FE0D7
:1019C000AC4203DA6948005D67498855AC420FDBD9
:1019D0006648005D20280BD025B96448005D624947
:1019E000885505E06148015DA6F101005E4A115489
:1019F000A6F10100C0B2064604F10100C0B20446DF
:101A0000052CDDDBBDE8F0832DE9F04180460F4673
:101A100015464046FFF774FF681CC0B2FFF78BFF06
:101A20003846FFF75DFF06464FF00000044631E000
:101A300045B94E48005D202804D04C48005D4A4915
:101A400088551FE0AC4204DA4848005D4649885595
:101A500018E0AC420AD14FF02E0043498855434864
:101A6000015DA6F10100404A11540BE0AC4209DDD2
:101A70003E48005D202805D03C48015DA6F10100EC
:101A8000394A1154A6F10100C0B2064604F1010022
:101A9000C0B20446052CCBDBBDE8F08110B5354A59
:101AA0001288A2F1010212B2324B1A801A46128831
:101AB000024412B21A801A46B2F9002002EB8202E6
:101AC0002D4B1A442D4B14681C6012791A711A465A
:101AD00052780A4452B25A7010BD70B5254CB4F910
:101AE0000050248804F1010424B2224E348005EB16
:101AF0008504214D2C44214D2E6826602D792571B9
:101B00001E4C20704CB21D4D6C7054B22C715CB2E6
:101B1000AC7070BD30B502464FF00004234607E0BC
:101B20004FF02004104DEC5403F10104E4B22346BD
:101B3000282BF5DB0C4807E01478047002F101044F
:101B4000224600F1010420461478002CF4D107E06D
:101B50000C78047001F10104214600F101042046D3
:101B60000C78002CF4D130BD00000020550000207E
:101B70005A0000202C000020280100205E000020D8
:101B800070B505460C4600F074F8A02000F07CF912
:101B900000F0BAF800B113E0E8B200F075F900F017
:101BA000B3F800B10CE0E0B200F06EF900F0ACF870
:101BB000C4F30721084600F067F900F0A5F800BF5C
:101BC00000F0B4F970BD2DE9F04106460D46174608
:101BD00000F04FF8A02000F057F900F095F800B1A0
:101BE00026E0F0B200F050F900F08EF800B11FE0EE
:101BF00000F05FF8A12000F047F900F085F800B18F
:101C000016E04FF0000409E000F0B4F82855012078
:101C100000F000F904F10100C0B20446781EA042B1
:101C2000F2DC00F0A7F82855002000F0F3F800BF20
:101C300000F07CF9BDE8F081D048006820F07F40DA
:101C4000CF49C1F8000C0846D0F8000C40F0AA407B
:101C5000C1F8000CCB48C06940F00800C949C86110
:101C6000C748D0F80C0C40F0C000C549C1F80C0CB6
:101C7000704710B5C448006820F08000C049C1F822
:101C80000C0C0846D0F80C0C40F04000C1F80C0CCD
:101C90004FF00500FEF7F8FAB948D0F80C0C20F028
:101CA0004000B749C1F80C0C4FF00500FEF7ECFA04
:101CB00010BD10B5B448006820F04000B049C1F82C
:101CC0000C0C0846D0F80C0C40F08000C1F80C0C4D
:101CD0004FF00500FEF7D8FAA948D0F80C0C40F0F8
:101CE0004000A94908604FF00500FEF7CDFAA4486E
:101CF000D0F80C0C20F08000A149C1F80C0C4FF07A
:101D00000500FEF7C1FA10BD10B59F48006840F00D
:101D100080009B49C1F80C0C0846D0F80C0C20F050
:101D20004000C1F80C0C4FF00300FEF7ADFA9448E8
:101D3000D0F80C0C40F04000934908604FF00300CD
:101D4000FEF7A2FA9048001F006810F0800F02D042
:101D50004FF0010401E04FF000048B48006820F0D0
:101D600040008749C1F80C0C4FF00300FEF78CFAD5
:101D700060B210BD70B54FF00000044682480068A4
:101D800040F080007E49C1F80C0C4FF00000054681
:101D90003CE07D48006820F040007949C1F80C0C17
:101DA0000846D0F80C0C40F08000C1F80C0C4FF045
:101DB0000300FEF769FA7248D0F80C0C40F04000BE
:101DC0006F49C1F80C0C4FF00200FEF75DFA4FEAC4
:101DD00044604FEA106004466C48006810F0800FC1
:101DE00003D044F00100044602E004F0FE00044683
:101DF0000120FEF749FA6448006820F0400060497D
:101E0000C1F80C0C05F10100C0B20546082DC0DB7D
:101E1000204670BD10B504465B48006820F04000C5
:101E20005749C1F80C0C4FF00300FEF72DFA14F0DF
:101E3000010F07D05448006820F080005049C1F8D5
:101E40000C0C06E05048006840F080004C49C1F896
:101E50000C0C0320FEF718FA4B48006840F04000D5
:101E60004749C1F80C0C4FF00300FEF70DFA444847
:101E7000D0F80C0C20F040004149C1F80C0C4FF098
:101E80000100FEF701FA10BD70B504463E48006837
:101E900020F040003A49C1F80C0C4FF00300FEF767
:101EA000F3F94FF00800054634E014F0800F07D036
:101EB0003548006840F080003149C1F80C0C06E05C
:101EC0003148006820F080002D49C1F80C0C032037
:101ED000FEF7DAF94FEA44604FEA106004462A48F8
:101EE000006840F040002649C1F80C0C4FF0040097
:101EF000FEF7CAF92248D0F80C0C20F04000204927
:101F0000C1F80C0C4FF00200FEF7BEF9A5F101007C
:101F100040B20546012DC8DA1B48006840F0800039
:101F20001749C1F80C0C4FF0000070BD10B51648F1
:101F3000006820F080001249C1F80C0C0846D0F867
:101F40000C0C40F04000C1F80C0C4FF00500FEF7FF
:101F50009BF90B48D0F80C0C40F080000A4908604F
:101F60004FF00500FEF790F90548D0F80C0C40F052
:101F700080000349C1F80C0C10BD0000000C0140AA
:101F800000000140001002400C0C0140080C014010
:101F900000BF00BF0100A0F101021046FAD1704756
:101FA00010B504466448C06840F400606249C860E7
:101FB0000846C06864F38910C8604FF00200FFF75C
:101FC000E7FF5D48C06820F400605B49C8604FF0DF
:101FD0000200FFF7DDFF10BD10B504464FF0C8004A
:101FE000FFF7D6FF5448C06840F480605249C8608B
:101FF0004FEA24110846FFF7D3FF2046FFF7D0FF32
:1020000010BD10B504462046FFF7E6FF10BD10B521
:10201000044640F2DC50FFF7BBFF4748C06820F49D
:1020200080604549C8604FEA24110846FFF7B8FFB1
:102030002046FFF7B5FF10BD70B504460D4605EB11
:10204000850004EBC000C0B2064606F07F0000F138
:102050008000C0B206463046FFF7D9FF70BD10B50C
:102060000120FFF7D4FF00210846FFF7E5FF10BD70
:1020700070B506464FF00000054601460846FFF7DA
:10208000DBFF00BF745D04B90DE02046FFF7B9FF28
:1020900005F10100C0B20546102D03D10121002039
:1020A000FFF7CAFFEEE770BD10B52448806940F025
:1020B000100022498861204800686FF30F0040F04B
:1020C0004C501D490860084640681D4900EA01005F
:1020D00043F2333140EA01001749486040F2DC50D6
:1020E000FFF756FF1448C06820F480601249C860AA
:1020F0004FF00300FFF754FF41F20400FFF748FFE1
:102100000320FFF74DFF6420FFF742FF0320FFF796
:1021100047FF0220FFF744FF2820FFF778FF0C203D
:10212000FFF775FF0620FFF772FF4020FFF76FFFF4
:102130008020FFF76CFF10BD00100140001002402E
:10214000FF00F0FF4FF0000211460CE0425CA62AAF
:1021500005DD425CA2F1A702054B9A5C425401F1F5
:102160000102D2B21146425C002AEFD17047000052
:10217000D036000890F900308B4200DA027090F9F6
:102180000030934200DD0170704790F900308B42BF
:1021900000DA017090F90030934200DD0270704760
:1021A000B0F900308B4200DA0180B0F90030934280
:1021B00000DD02807047B0F900308B4200DA028007
:1021C000B0F90030934200DD0180704770B50346DE
:1021D0000C4607E025781D7004F101052C4603F13B
:1021E00001052B461500A2F101063246F2D170BD61
:1021F00030B5034603E0197003F1010423461400CF
:10220000A2F101052A46F6D130BDF0B503461C46C1
:102210000D464FF00006304600BF1600A2F1010740
:102220003A460CD0277804F10106344695F800C0F0
:1022300005F101063546A7EB0C063000EDD0F0BDE8
:10224000024602E002F101000246107810B1107857
:102250008842F7D11078704770B504460D464FF0AC
:1022600000000646A06AA84210D07EB961780846F0
:1022700001232A4604F12C0101F05BF928B14FF04B
:10228000FF3005464FF001000646A562304670BD9E
:102290000246A1F1020001461069A0F10200884245
:1022A00001D8002070479378506A01FB0300F9E7DA
:1022B0002DE9F04705460C46022C02D32869A042BE
:1022C00002D84FF0010978E04FF0FF392878012853
:1022D00004D0022834D003286AD148E0274607EB0F
:1022E00057000746E86900EB572001462846FFF7EC
:1022F000B3FF00B160E0384607F101010F46C0F3BB
:10230000080105F12C0010F80180E86900EB572066
:1023100001462846FFF7A0FF00B14DE0C7F30801D2
:1023200005F12C00405C48EA0020804614F0010FC3
:1023300002D04FEA181001E0C8F30B0081463BE0E1
:10234000E86900EB142001462846FFF785FF00B13D
:1023500032E040F2FF1000EA440105F12C0001EBED
:1023600000063078717840EA0120814624E0E8696F
:1023700000EBD41001462846FFF76EFF00B11BE0CA
:1023800040F2FF1000EA840105F12C0001EB000689
:10239000F0784FEA0060B17840EA0140717840EA95
:1023A0000120317840EA010020F07040814603E0CE
:1023B0004FF00100814600BF00BF4846BDE8F087EE
:1023C0002DE9F04104460E46E680A0680546012D41
:1023D00003D020680069A84202D80220BDE8F0813D
:1023E00035B920680078032802D12068006A0546C4
:1023F00045B920680089B04201D80220EEE7206884
:10240000076A21E0206880784FEA001814E021680C
:1024100008462946FFF74CFF0546681C01D10120FC
:10242000DCE7022D03D320680069A84201D802200E
:10243000D4E7A6EB080006464645E8D221680846E0
:102440002946FFF725FF0746E5600FB90220C5E7DB
:1024500007EB16102061206800F12C0006F00F0138
:1024600000EB411060614FF00000B7E72DE9F0414B
:1024700004460F46E08800F1010006463004000CD7
:1024800001D0206910B90420BDE8F08116F00F0FCB
:1024900031D1206900F101002061E06828B920688D
:1024A0000089B04227D80420EEE720688078A0F1A8
:1024B000010010EA161F1ED1E2681146226810467C
:1024C000FFF7F6FE0546012D01D80220DCE7681C67
:1024D00001D10120D8E720680069A84204D80FB9CB
:1024E0000420D1E70420CFE7E560216808462946AB
:1024F000FFF7CEFE2061E680206800F12C0006F098
:102500000F0100EB411060614FF00000BCE710B517
:1025100002468C7ECB7E44EA032318461378032BB5
:1025200006D10C7D4B7D44EA032340EA0343184661
:1025300010BD2DE9F04104464FF000012046FFF7A1
:102540003FFF054615B12846BDE8F08100BF22696E
:10255000114622681046FFF77FFE054605B119E0D7
:10256000666937781FB94FF00400054612E0F07A2B
:1025700010F0080F07D1A06901460B223046FFF783
:1025800044FE00B906E000212046FFF76FFF054634
:10259000002DDCD000BF2846D6E72DE9F0470446E1
:1025A00089464FF0040005462BE022691146226857
:1025B0001046FFF751FE054605B125E0D4F814801A
:1025C00098F800701FB94FF0040005461CE098F819
:1025D0000B0000F03F06E52F0CD000BF0F2E09D0F6
:1025E00026F02000082801D1012000E00020484505
:1025F00000D109E000212046FFF738FF054605B16C
:1026000002E020690028D0D100BF15B14FF00000D2
:1026100020612846BDE8F087F0B5044601F10900C5
:102620000246206900283BD0666930464FF000031F
:102630001AE01E4603F101073B46865D3546202D14
:1026400000D111E0052D02D14FF0E5063546092BEA
:1026500005D14FF02E06167002F1010632461570B4
:1026600002F10106324600BF0B2BE2D3C67A0E728E
:10267000C67F4FEA0667867F47EA0647467F47EAF6
:102680000626077F46EA07060E60077E467E47EA73
:1026900006268E80877DC67D47EA0626CE8000BF4F
:1026A0004FF000001070F0BD2DE9F35F0198006855
:1026B000804602E008F10100804698F800002F28CB
:1026C000F8D098F800005C28F4D0009885690B22B7
:1026D00020212846FFF78CFD4FF000063746B14613
:1026E0004FF0080B18F809002E282AD100BF4846E1
:1026F00009F10101894618F800402E2C02D1B9F1E8
:10270000030F00D305E0384607F101010F462C54B2
:10271000EDE700BF2F2C06D05C2C04D0202C02DD6E
:102720000620BDE8FC9F08EB090101980160202C00
:1027300002DC4FF0240001E04FF02000E87200209E
:10274000EFE700BF484609F10101894618F800008B
:102750000446202C03DD2F2C01D05C2C00D167E037
:102760002E2C01D05F4512D3BBF1080F01D12E2CC6
:1027700001D00620D5E74FF0080007464FF00B00C8
:1027800083464FEA86604FEA10600646DAE7802CFF
:1027900002DB46F003000646812C01DB9F2C03DDA3
:1027A000E02C25DBFC2C23DC484609F1010189469D
:1027B00018F800A0BAF1400F02DBBAF17E0F05DD78
:1027C000BAF1800F06DBBAF1FC0F03DCABF10100BC
:1027D000B84201D80620A4E7384607F101010F46A8
:1027E0002C54384607F101010F4605F800A01EE001
:1027F0002146F8A0FFF724FD08B1062091E7412CFF
:1028000005DB5A2C03DC46F0020006460AE0612C88
:1028100008DB7A2C06DC46F001000646A4F1200015
:10282000C0B20446384607F101010F462C5489E72F
:1028300000BF08EB090101980160202C02DC4FF079
:10284000040001E04FF00000C0B204460FB90620BA
:1028500067E72878E52802D14FF005002870BBF122
:10286000080F04D14FEA86604FEA1060064606F072
:102870000300012802D144F01000044606F00C00C9
:10288000042802D144F008000446EC72002048E716
:102890002DE9F3410446019800782F2803D00198D0
:1028A00000785C2807D1019800F1010001904FF0F9
:1028B0000000A06002E02068C068A0600198007875
:1028C000202808D200212046FFF77AFD05464FF068
:1028D000000060613BE000BF01A92046FFF7E4FE75
:1028E000054605B132E02046FFF723FE0546A06904
:1028F000C67ABDB1042D14D116F0200F0BD04FF0C5
:102900000000A060606116F0040F00D1E4E74FF012
:102910000000054605E016F0040F02D14FF0050057
:10292000054613E016F0040F00D00FE06769F87A4F
:1029300010F0100F03D14FF00500054606E02168A6
:1029400008463946FFF7E3FDA060C5E700BF28460B
:10295000BDE8FC8170B502464FF0FF35284615688A
:102960001DB3116802E001F1010529460D78212D02
:1029700002D30D783A2DF6D10D783A2D12D1156883
:102980002C46257804F101063446A5F130030A2BC4
:1029900007D28C4205D123B9184601F10105294619
:1029A000156070BD4FF00005284600BFF9E770B50F
:1029B00004460D464FF0000020714FF0FF30A0623A
:1029C00029462046FFF748FC08B1032070BD94F863
:1029D0002A1294F82B0241EA0020A0F52A41553929
:1029E00001D00220F2E794F86500010694F8640033
:1029F00041EA004194F8630041EA002094F8621033
:102A0000084320F07F407749884201D10020DDE76C
:102A100094F88100010694F8800041EA004194F89E
:102A20007F0041EA002094F87E10084320F07F40A8
:102A30006C49884201D10020C8E70120C6E72DE992
:102A4000F74F88B04FF00001089801600998FFF730
:102A500081FF07900798002803DA0B200BB0BDE830
:102A6000F08F6149079851F820400CB90C20F5E728
:102A700008980460207858B16178084600F052FD4B
:102A80000690069810F0010F02D100BF0020E5E784
:102A90004FF000002070079860706178084600F0E1
:102AA00073FC0690069810F0010F01D00320D5E7C3
:102AB00000BF4FF0000841462046FFF778FF05466B
:102AC000012D02D0002D3ED13DE04FF00000064622
:102AD0001AE004F5F57101EB06110846017961B1C0
:102AE000C17A4FEA0162817A42EA0142417A42EABE
:102AF0000121027A41EA020101E04FF000014DF8A4
:102B0000261006F101000646042EE2D34FF0000025
:102B1000064616B1A6F10100064600BF5DF8260084
:102B20008046B8F1000F04D041462046FFF73FFF32
:102B300001E04FF00200C0B205461DB1701C064610
:102B40000428EBD300BF032D01D1012086E70DB18E
:102B50000D2083E73720015D94F8380041EA00201A
:102B6000B0F5007F01D00D2078E74FF04200015D05
:102B700094F8430041EA002787B994F853004FEADC
:102B8000006194F8520041EA004194F8510041EA92
:102B9000002094F8501040EA0100074667614FF0AA
:102BA0003C00005DE070E078012804D0E078022865
:102BB00001D00D2052E7E07847434FF03900005D27
:102BC000A070A07820B1A078A0F1010108420DD03A
:102BD0000D2043E7222A2B2C3A3B3C3D3E3F5B5DD8
:102BE0007C7F000046415400100100204FF03D0062
:102BF000015D94F83E0041EA00202081208910F018
:102C00000F0F01D00D2029E74FF03F00015D94F830
:102C1000400041EA0029B9F1000F10D194F84F00AB
:102C20004FEA006194F84E0041EA004194F84D00EB
:102C300041EA002094F84C1040EA010081464FF030
:102C40003A00015D94F83B0041EA002BBBF1000F14
:102C500001D10D2002E70BEB0700218900EB1110D9
:102C600005900598814501D20D20F7E60598A9EB5E
:102C70000000A178B0FBF1FABAF1000F01D10D20EC
:102C8000ECE64FF00100054640F6F670824502D3AF
:102C90004FF0020005464FF6F670824502D34FF022
:102CA000030005460AF102002061C4F8188008EB11
:102CB0000B00E061059840446062032D19D1208922
:102CC00008B10D20CAE694F85B004FEA006194F861
:102CD0005A0041EA004194F8590041EA002094F872
:102CE000581040EA0100206220694FEA80000490F9
:102CF00015E0208908B90D20B0E6E069384420626B
:102D0000022D03D120694FEA400007E0206900F05E
:102D10000100216901EB410100EB51000490616960
:102D2000049800F2FF10B1EB502F01D20D2095E670
:102D30002570B448008800F1010080B2B1490880D4
:102D4000E0804FF00000E06000BF87E670B5054608
:102D50002C464CB1206838B12068007820B120683A
:102D6000C088A188884201D0092070BD21684978B7
:102D7000084600F0D7FB10F0010F01D00320F4E764
:102D80000020F2E7F7B582B016460398019001A83B
:102D9000FFF7E0FD0546002D02DA0B2005B0F0BD7F
:102DA000994850F8254014B14FF000002070029867
:102DB00018B14FF00000029908709349029841F849
:102DC0002500029808B1012E01D00020E6E700227C
:102DD00003A902A8FFF733FE07463846DEE7F7B53A
:102DE0008AB00446174614B909200DB0F0BD4FF063
:102DF0000000206007F0010007464FF000020BA919
:102E000003A8FFF71CFE0646002E37D1CDF824D0CC
:102E100003A80B99FFF73CFD0646089D6EB908987C
:102E200005461DB94FF00600064606E0E87A10F0A8
:102E3000100F02D04FF004000646FEB9A7714FF004
:102E40000000E071039908462946FFF760FB206106
:102E5000E87F4FEA0061A87F41EA0041687F41EACC
:102E60000020297F40EA0100E0604FF00000A060F0
:102E7000A061039820602068C088A0803046B4E735
:102E80002DE9FF4F83B004461546994604980090FB
:102E90004FF00000C9F800002046FFF757FF0290EE
:102EA000029818B1029807B0BDE8F08FE07908B138
:102EB000E079F8E7A07910F0010F01D10720F2E7DF
:102EC000D4E90210A0EB010001900198854201D9DC
:102ED0000198054691E0A068C005C00D6AD1206840
:102EE0008078A0F10100A16800EA512000F0FF08FD
:102EF000B8F1000F1BD1A06810B92069834606E025
:102F00006269114622681046FFF7D2F98346BBF189
:102F1000020F03D24FF00200E071C4E71BF1010081
:102F200003D14FF00100E071BDE7C4F814B062694D
:102F3000114622681046FFF7ABF907461FB94FF05C
:102F40000200E071AFE707EB080007464FEA5520A3
:102F50008246BAF1000F1BD008EB0A00216889787D
:102F6000884204D920688078A0EB08008246216856
:102F70004978084653463A46009900F0DAFA18B103
:102F80004FF00100E0718EE74FEA4A20064626E046
:102F9000A069B8420DD021684978084601233A4615
:102FA00004F11C0100F0C5FA18B14FF00100E07106
:102FB00079E7A761A068C0F30800C0F50070064675
:102FC000AE4200D92E46A068C0F3080204F11C00EE
:102FD0001044014632460098FFF7F8F800BF009809
:102FE00030440090A0683044A060D9F8000030441C
:102FF000C9F80000A5EB06000546002D7FF46BAF75
:10300000002050E71401002010010020FB488069D7
:1030100040F48050F94988610846806940F0040016
:1030200088610846806940F010008861F4480068B3
:1030300020F4706040F44070F1490860F148006885
:1030400020F4700040F43000EF49C1F800084FF060
:103050004000C1F81008EB48006820F0706040F0B4
:103060000060C1F80008E748006820F0704040F0B8
:103070003040E44908604FF00100E349C1F810080E
:10308000E048006820F00F0040F00800DD490860CB
:103090004FF45170DD4908804FF01000DC490860A2
:1030A0004FF00A00DB49086000BFDA4800680028DA
:1030B000FBD170470146D548818100BFD3480089C4
:1030C00010F0800FFAD1D1488089C0B2704710B596
:1030D0000A46CE4B1B8823F04003CC4C238023466A
:1030E0001B8843F4046323804FF6FF73A381A2F18E
:1030F00002031A4600BF00BFC44B1B8913F0800FA8
:10310000FAD1C24B99894FF6FF73C04CA38141702D
:103110004FEA2123037000F102031846A2F10203D3
:103120001A00E8D100BFB94B1B8913F0800FFAD108
:10313000B64B9B89194641704FEA21230370B34B6C
:103140001B8823F40463B14C238023461B8843F07F
:103150004003238010BD10B5AC4B1B8823F0400307
:10316000AA4C238023461B8843F4046323804378BE
:10317000047843EA04231A46A44B9A8100F102031F
:103180001846A1F10203194600BF4378047843EAC8
:1031900004231A4600BF9D4B1B8913F0800FFAD100
:1031A0009A4B9B89994B9A8100F102031846A1F131
:1031B00002031900E9D100BF944B1B8913F0800F63
:1031C000FAD1924B9B89914B1B8823F404638F4C5B
:1031D000238023461B8843F04003238010BD70B535
:1031E00005468D48056000BFFF20FFF763FF0446DA
:1031F000FF2C03D0884800680028F5D1FF2C01D1AE
:10320000012070BD0020FCE710B54FF01000804990
:1032100008604FF0FF00FFF74DFF10BD10B54FF4F1
:1032200080107B4908604FF0FF00FFF743FF4FF429
:10323000FA70FFF7D4FF08B1012010BDFFF7E4FFDB
:103240000020FAE770B505460E464FF0C8007149F8
:10325000086000BFFF20FFF72DFF0446FF2C03D1BD
:103260006C4800680028F5D1FE2C01D0002070BD0C
:1032700031462846FFF72BFFFF20FFF71BFFFF20FB
:10328000FFF718FF0120F2E770B506460C464FF431
:10329000FA70FFF7A4FF08B9002070BD2046FFF7C1
:1032A00009FFFD2C14D04FF400713046FFF753FF97
:1032B000FF20FFF7FFFEFF20FFF7FCFEFF20FFF7D8
:1032C000F9FE054605F01F00052801D00020E4E7BF
:1032D0000120E2E72DE9F04104460D4614F0800F8D
:1032E0000ED004F07F0004464FF000014FF037008D
:1032F000FFF7F0FF0646012E02DD3046BDE8F08103
:103300000C2C06D0FFF780FFFFF788FF08B9FF20DD
:10331000F4E744F040010846FFF7CCFE290E0846CA
:10332000FFF7C8FEC5F307410846FFF7C3FEC5F324
:1033300007210846FFF7BEFEE8B2FFF7BBFE4FF0DD
:10334000010714B94FF095000746082C02D14FF041
:10335000870007463846FFF7ADFE0C2C02D1FF2050
:10336000FFF7A8FE4FF00A00074600BFFF20FFF757
:10337000A1FE064616F0800F04D0A7F10100C0B2EE
:103380000700F3D13046B9E7F8B507460FB1012081
:10339000F8BDFFF73BFE2148007810F0020F02D085
:1033A0001E480078F4E71948008820F0380040F003
:1033B0002800164908804FF00A0406E0FF20FFF7B6
:1033C00079FEA4F10100C0B20446002CF6D12646D5
:1033D00021460846FFF77EFF012863D14FF47A703B
:1033E0000C4908604FF4D5714FF00800FFF772FFE9
:1033F000012858D14FF0000004461AE000100240A6
:103400000010014000080140000001400030014070
:10341000100801401C01002020010020180100209C
:10342000FF20FFF747FE0DF8040004F10100C0B2D1
:103430000446042CF4DB9DF80200012859D19DF8C4
:103440000300AA2855D100BF7848006830B14FF07A
:103450008041A920FFF73EFF0028F5D1734800689E
:10346000002846D000213A20FFF734FFD0B94FF0B2
:103470000000044608E0FF20FFF71CFE0DF80400E2
:1034800004F10100C0B20446042CF4DB9DF80000F6
:1034900010F0400F02D04FF00C0001E04FF004009C
:1034A000C0B2064625E00021A920FFF713FF01283E
:1034B00005DC4FF0020006464FF0A90503E04FF08F
:1034C00001000646054600BF5848006828B10021A3
:1034D0002846FFF7FFFE0028F6D15448006828B1BF
:1034E0004FF400711020FFF7F5FE10B14FF000000F
:1034F00006464F480670FFF787FE66B14D480088C4
:1035000020F038004B4908804B48007820F001003B
:103510004949087003E04FF00100474908704648E8
:10352000007835E7014609B101207047424800782C
:10353000FBE72DE9F04107460D4616461C4607B944
:1035400014B90420BDE8F0813B48007810F0010F69
:1035500001D00320F6E73648007810F0080F02D1BA
:103560004FEA46200646012C0DD131461120FFF7C7
:10357000B1FE08BB61022846FFF764FEE0B14FF0E0
:103580000000044618E031461220FFF7A3FE98B968
:1035900000BF4FF400712846FFF754FE00B906E063
:1035A00005F500700546A4F101000400F1D100BF4B
:1035B00000210C20FFF78EFEFFF726FE0CB1012044
:1035C00000E00020C0B2BDE7184A126892B211466E
:1035D00029B1A1F1010292B21146144B1A60174AA7
:1035E000126892B2114661B1A1F1010292B2114684
:1035F000124B1A601A4612681AB94FF00102104BAA
:103600001A700D4A1278104620F0040210460D4A36
:10361000126812F0010F03D120F00202104602E0FE
:1036200040F003021046044A107070471C0100204D
:10363000240100200030014018010020200100205A
:103640000801002008080140704770477047754620
:1036500000F028F8AE4605006946534620F0070002
:10366000854618B020B5FCF79DFDBDE820404FF021
:1036700000064FF000074FF000084FF0000B21F05C
:103680000701AC46ACE8C009ACE8C009ACE8C00929
:10369000ACE8C0098D4670470446AFF30080204671
:1036A000FCF76DFD00487047980D002000487047FA
:1036B0009C0D002001491820ABBEFEE72600020049
:1036C000704710B5FFF7F2FF4FF00001016010BD29
:1036D000FDA2FFAAC8ACADAEAFB0B1D769B4B5FE1C
:1036E000DFB5CCBAC9BCBDBEBF41A042A1E045A375
:1036F000A4A5A64BA74D484FA8504354A9AA58E1EA
:10370000ABACE2ADAEC4AFB0B161B2B3B4E365B6D9
:10371000B7B8B9BABBBCBD6FBE7063BF79AA78E554
:10372000C0C1E6C2C3C4C5C6C70000004C3700080C
:10373000000000202801000028010008743800085B
:1037400028010020D00E0000440100082A2E2E2E51
:103750002E2E2E2E2E2E2E2E2E2E2E2E402E2E2E77
:103760002E2E2E2E2E2E2E2E2E2E2E20000000003F
:10377000000000003200000000000A000202000009
:1037800064000500190006000000000000000000B1
:103790000000000000000000000000000000000029
:1037A0000000000000000000000000000000000019
:1037B0000000000000000000000000000000000009
:1037C00000000000000000000000000000000000F9
:1037D00000000000000000000000000000000000E9
:1037E00000000000000000000000000000000000D9
:1037F00000000000000000000000000000000000C9
:1038000000000000000000000000000000000000B8
:1038100000000000000000000000000000000000A8
:103820000000000000000000000000000000000098
:103830000000000000000000000000000000000088
:103840000000000000000000000000000000000078
:103850000000000000000000000000000000000068
:103860000000000001000000000000000000000057
:043870000000000054
:04000005080000ED02
:00000001FF
