:020000040800F2
:10000000F80F00208D0100089101000893010008FD
:100010009501000897010008990100080000000000
:100020000000000000000000000000009B0100082C
:100030009D010008000000009F010008A5130008B2
:10004000A3010008A3010008A3010008A301000800
:10005000A3010008A3010008A3010008A3010008F0
:10006000A3010008A3010008A3010008A3010008E0
:10007000A3010008A3010008A3010008A3010008D0
:10008000A3010008A3010008A3010008A3010008C0
:10009000A3010008A3010008A3010008A3010008B0
:1000A000A3010008A3010008A3010008A3010008A0
:1000B000A3010008A3010008A3010008A301000890
:1000C000A3010008A3010008A3010008A301000880
:1000D000A3010008A3010008A3010008A301000870
:1000E000A3010008A3010008A301000800F002F822
:1000F00000F03CF80AA090E8000C82448344AAF186
:100100000107DA4501D100F031F8AFF2090EBAE883
:100110000F0013F0010F18BFFB1A43F0010318473B
:10012000CC340000EC340000103A24BF78C878C109
:10013000FAD8520724BF30C830C144BF04680C60ED
:10014000704700000023002400250026103A28BF35
:1001500078C1FBD8520728BF30C148BF0B60704739
:100160001FB503F00EFA1FBD10B510BD03F0CFF997
:100170001146FFF7F5FF01F037FA03F0EDF903B48C
:10018000FFF7F2FF03BC03F0F5F900000848004751
:10019000FEE7FEE7FEE7FEE7FEE7FEE7FEE7FEE737
:1001A000FEE7FEE703480449024A044B704700009B
:1001B000ED000008F80D0020F80F0020F80D0020D9
:1001C00000BF4FF012002349086000BF00BF224863
:1001D000224948602248086000BF00BF1F480068ED
:1001E00010F0007FFAD000BF1C48406800F00C00FF
:1001F0000828F9D100BF00BF1A484FF0E02148613C
:100200004FF0060008614FF0000088610846006961
:1002100040F00100086100BF00BF1048806940F055
:1002200008000E4988614FF06E400F4908604FF496
:1002300040700E49C1F8040C0848806940F0100075
:10024000064988614FF0000009490860486000BF16
:10025000704700000020024002841200001002409B
:10026000820000017FA90300000C01400000014052
:100270000010014010B501F077FE01F050FE0021A2
:10028000084601F039FE10BD00EB8002114600BFA8
:10029000A1F101021100FBD17047FE48C06940F096
:1002A0000050FC49C8614FF00100FB4908607047ED
:1002B0002DE9FF5F05460E4617469846DDE90FAB70
:1002C000DDF8389006EB86004FEA400000B2F349B3
:1002D00008804FF00000F2490880BAF1000F02D107
:1002E000F049088008E00BEB8B00EC490988A1EB92
:1002F000400000B2EB490880EB48A0F800903FB9FD
:10030000EA48A0F800904FF00000E949087015E0B5
:100310004FF01400E54908804FF00100E4490870EF
:100320004FF0640008FB00F0DF49B1F90010A1F1C3
:10033000140190FBF1F000B2DE4908802C464FF02A
:1003400030008DF800008DF801008DF802008DF866
:1003500003008DF804008DF805008DF806008DF877
:1003600007004FF02E008DF808004FF077008DF851
:1003700009004FF061008DF80A004FF076008DF80B
:100380000B004FF000008DF80C004FF00A0094FBBA
:10039000F0F100FB114000F13000C0B28DF8070011
:1003A0004FF00A0094FBF0F000B204464FF00A0050
:1003B00094FBF0F100FB114000F13000C0B28DF869
:1003C00006004FF00A0094FBF0F000B204464FF034
:1003D0000A0094FBF0F100FB114000F13000C0B2C4
:1003E0008DF805004FF00A0094FBF0F000B20446CF
:1003F0004FF00A0094FBF0F100FB114000F13000D7
:10040000C0B28DF804004FF001026946AA4802F01C
:1004100046FCAA4908704FF00100A9490860A949A3
:100420000860A94908604FF0FA00A84908804FF019
:100430000000A7490860BDE8FF9F9848008810B3F6
:100440009648B0F900009649B1F9001088421ADDCB
:100450009348008800F1010000B2914908800846E5
:10046000B0F900008D49B1F9001088420BDB4FF064
:1004700000008A4908808A4908808C4908804FF02A
:100480000100934908608748008808B38548B0F99F
:1004900000008349B1F90010884219D14FF0FF00E4
:1004A000834908707D48B0F900007E49B1F9001019
:1004B000A0EB010000EB80004FEA40017A48B0F960
:1004C0000000A0F10A0091FBF0F000B27949088029
:1004D00070474FF001007E4908604FF000007049FE
:1004E0000880704710B57B48006820F470407A4956
:1004F000C1F800080846D0F8000840F40050C1F8E0
:1005000000087648008830B174480088A0F10100E6
:1005100000B27249088072480088012806D17148EB
:10052000008800F1010000B26E4908806D48008823
:1005300038B96D48006820F008006749C1F80C0818
:1005400009E06848008830B16748006840F008005A
:100550006149C1F80C086548B0F90000401F00EB84
:1005600080005E49B1F90010B1EB400F13D1604833
:10057000008800F1010000B25D49088042F20F726C
:100580004FF000015A4801F076FD5948B0F90010CB
:10059000142001F055FA10BD10B55648008800F13E
:1005A000010000B2534908800846B0F900004149F3
:1005B000B1F90010884222DB4FF000004D4908805D
:1005C0003B480078012807D13848008800F1010035
:1005D00000B2364908800BE0354890F90000401C15
:1005E00006D132480088A0F1010000B22F490880EE
:1005F0002D48B0F9002000212C4801F031FD2B4896
:10060000B0F9000040434FF0640190FBF1F000B2FC
:100610003949088010BD39490870704710B537480E
:10062000007860B135480078A0F1010033490870C6
:100630000846007818B90021084601F08FF910BD6E
:1006400010B59EB02E480078002822D1234800889B
:10065000F0B92CA130A001F0BDF92448B0F9000098
:100660003C2190FBF1F080B204460022212101F0F0
:100670002BF91E48B0F900003C2190FBF1F201FB80
:10068000120080B204460022402101F01DF9CFE1A2
:100690004CE06FE00010024000740040D8000020E1
:1006A000D6000020DA000020E0000020DC0000205E
:1006B0003200002034000020780B0020360000209B
:1006C000880000209800002094000020D400002022
:1006D0008C0000200008014000000140E6000020DE
:1006E000F0000020E80000200C0801407A00002003
:1006F00084000020E2000020DE00002063000020D3
:100700005E00002020E2F0E5ECFF202020203021D8
:100710003A3040200000000020D3F1F2E0EDEEE29C
:10072000EBE5EDEDEEE5202000000000F3A1F8A0E0
:1007300001F050F9FB48B0F900000A2190FBF1F0FC
:100740003C2190FBF1F080B20446002201F0BCF89D
:10075000F448B0F900000A2190FBF1F03C2190FB35
:10076000F1F201FB120080B2044600223E2101F0AA
:10077000ABF85DE1EC48007803287BD1EBA000905A
:10078000EFA00190F3A00290F7A00390FBA00490CB
:10079000FFA00590E44A92F90120012303EB4202F5
:1007A0005DF822201146E04A92F9012052005DF8DE
:1007B0002220104601F00EF9FA48B0F900003C2161
:1007C00090FBF1F080B204460022212101F07CF878
:1007D000F448B0F900003C2190FBF1F201FB12005B
:1007E00080B204460022402101F06EF8EE48B0F9D4
:1007F00000003C2190FBF1F080B20446002223214E
:1008000001F062F8E848B0F900003C2190FBF1F2F9
:1008100001FB120080B204460022242101F054F8AA
:10082000E248B0F900003C2190FBF1F080B20446B0
:100830000022252101F048F8DC48B0F900003C21F5
:1008400090FBF1F201FB120080B2044600225E210F
:1008500001F03AF800222821D548008880B201F042
:1008600033F800222921D348008880B201F02CF807
:10087000DEE0FFE7AC480078152804D1CEA1D3A074
:1008800001F0A8F8D4E0A8480078162835D1D4485B
:10089000007800F10100D249087008460078142859
:1008A00011DD4FF0000008709F48007900F1010051
:1008B00040B29D490871084690F90400022802DD03
:1008C0004FF0000008719848007920B9C5A1CAA06E
:1008D00001F080F8ACE094480079012804D1CBA164
:1008E000CFA001F077F8A3E08F4800790228BFD1AC
:1008F000D0A1D5A001F06EF89AE08B4800780228CC
:100900001DD1D6A1DAA001F065F8DE48007800F12B
:100910003000DD49C872DB48407800F130000873D0
:10092000D848807800F1300048734FF05E017E486F
:1009300090F9010000F11B00D34A115478E07A4885
:100940000078092804D1D1A1D5A001F043F86FE0C7
:100950007548007804280BD18DA1D6A001F03AF893
:1009600000222121D848008880B200F0ADFF5FE06E
:100970006D4800782C285BD185A185A001F02AF86C
:1009800069484078F0BB00231A461946012000F060
:1009900062FF0023022201218648008880B200F015
:1009A0005AFF00230F221946C848008880B200F081
:1009B00052FF00230F220121C548008880B200F0B9
:1009C0004AFF00230C221946C248008880B200F07A
:1009D00042FF00230C220121BF48008880B200F0B2
:1009E0003AFF0023052219464E48008880B200F0E5
:1009F00032FF002305220121B848008880B200F0B0
:100A00002AFF15E0FFE748484078012806D1002377
:100A10001A461946022000F01EFF09E042484078BD
:100A2000022805D100231A461946032000F013FFBF
:100A3000954801F0E7FA1EB010BDA948006860F0C3
:100A40000700A8490860A848806860F0300009687D
:100A500000EA0100A3490860A448D0F8080C10F48B
:100A6000006F04D10846006820F4807008609C483C
:100A7000006810F4805F05D19A48006820F4007087
:100A80009849086097480068401C05D09548006860
:100A900097490968884230D04FF0000095490870A6
:100AA00095480078042802DA9448007858B19448B0
:100AB000007840B94FF00100924908708C480068F6
:100AC00000B2914908808D480078904909788842A1
:100AD0000CDB4FF001008B490870854800684FF629
:100AE0007F7100EA010000B2874908804FF00000E2
:100AF000834908704FF014000AE112E120EEF1F290
:100B0000E0EBEEF1FC20303C3A303E2000000000EB
:100B10002020C4EE20EEEAEEEDF7E0EDE8FF202025
:100B200000000000E60000205E00002020C4EBE88A
:100B3000F2E5EBFCEDEEF1F2FC20202000000000DD
:100B400020F1E5E0EDF1E020202021EC30406320B1
:100B50000000000020D1F7E5F2F7E8EA202020208D
:100B6000202020200000000020F1E5E0EDF1EEE281
:100B700020202020202020200000000020C2FBF5A3
:100B8000EEE4202020202020202020200000000053
:100B90002020202020202020202020202020202055
:100BA000000000007A0000207E0000207C00002071
:100BB00080000020820000202020EAE0F0F2E02007
:100BC000EFE0ECFFF2E82020000000002020CEF251
:100BD000F1F3F2F1F2E2F3E5F22020200000000050
:100BE0003B000020E8EDE8F6E8E0EBE8E7E8F0F3AA
:100BF000E5F2F1FF00000000CAE0F0F2E020EFE0D3
:100C0000ECFFF2E820EDE52000000000202020EDC0
:100C1000E5E8F1EFF0E0E2EDE02C2020000000003C
:100C20002020C2EEE7ECEEE6EDEE20EEEDE0202037
:100C300000000000F0EEE2E0EDE020E2204641544A
:100C40003136202000000000E8EBE820EDE520EE42
:100C5000F2F4EEF0ECE0F2E800000000202020EFDB
:100C6000E0F0EEEBFC2020202020202000000000FF
:100C70002020C2E2E5E4E8F2E52020202020202028
:100C8000000000005100002000000020202020ED86
:100C9000E5E2E5F0EDFBE921212120200000000044
:100CA0002020202020CFE0F0EEEBFC202020202090
:100CB00000000000202020202020202020212020B3
:100CC000202020200000000084000020DC00002004
:100CD000DE000020DA000020D8000020EC00002018
:100CE000080C014068000020001001400000014095
:100CF0006C000020730000207000002071000020B4
:100D000074000020750000206400002072000020A4
:100D1000F94908704FF00000F8490870F849087068
:100D200042E0F8480068F849096888423BD1F34836
:100D3000007800F10100F1490870084600780428A5
:100D400031DB4FF000000870ED48007800F1010041
:100D5000EB49087008460078E7490978884222DBA9
:100D6000E94800684FF67F7100EA010000B2E749E8
:100D700008804FF00000E24908704FF00100E4499C
:100D80000870E4490870E448007860B1DA480078F7
:100D90004FEA6000D849087008460078022802DC53
:100DA0004FF00200087000BFD6480068D6490860BE
:100DB000DA48806940F01800D8498861D84800684E
:100DC0006FF30B00D749C1F8000CD548006840F616
:100DD000880140EA0100D349C1F8000C0846D0F868
:100DE0000C0C40F00700C1F80C0CCF480068CF494C
:100DF0000860CF48006820F47F00CD4908600846AD
:100E0000006840F4080008600846C06840F0300000
:100E1000C860C448D0F8040C20F47F20C149C1F850
:100E2000040C0846D0F8040C40F40820C1F8040C67
:100E30000846D0F80C0C40F4C050BB49086070471D
:100E40003EB5B348007800B9A7E2BA48008800F17F
:100E5000010000B2B7490880AC48B0F9000000F5C5
:100E6000007001300AD1B448008838B94FF0000052
:100E7000B2490880B2490880FFF72BFBA348B0F9BC
:100E80000000A0F57F41FA390CD1AE4800782C283B
:100E900004D04FF02C00AB49087003E04FF0000085
:100EA000A8490870A748007800287AD19748B0F977
:100EB000000000F58070013028D1A148008828BBCF
:100EC000A148008800EB80004FEA400000B29A4938
:100ED00008804FF00A004FF000014FF064024FF01D
:100EE0000503CDE9002102900A469748008800F1E9
:100EF000640001B24FF00200FFF7DAF94FF0000092
:100F00008E4908804FF001008D4908807F48B0F974
:100F1000000000F58070813007D189490880874939
:100F2000088085490880FFF7D4FA7848B0F90000B6
:100F3000833005D100231A461946032000F02DFD09
:100F40007248B0F90000A0F57F41FD3905D17F4816
:100F5000008801B21E2000F073FD6C48B0F900005B
:100F6000A0F57F41FB3903D14FF00A0078490870A2
:100F70006648B0F90000A0F57F41EF390FD10A2192
:100F8000012274480088C0B20523CDE901210090F8
:100F90006D4800880A3001B21046FFF789F9FBE17D
:100FA000FFE76848007803287DD15848B0F9000071
:100FB000801C10D163484078A0F1010040B2614923
:100FC00048704FF002024FF000015E4800F101004E
:100FD00001F03BF8E0E14D48B0F90000401D10D1B0
:100FE0005848407800F1010040B2564948704FF02F
:100FF00002024FF00001534800F1010001F025F812
:10100000CAE14248B0F90000853004D14FF0050034
:101010004C494870C0E14B48407800286AD13B48B1
:10102000B0F9000021301DD14748B0F900004FF061
:101030000A0190FBF1F000F1010000EB80004FEAA3
:10104000400000B2404908804FF496724FF01E01F4
:101050003D4801F005F83C48B0F900100A2000F0C6
:10106000EFFC99E12948B0F90000A1301FD13648C2
:10107000B0F900004FF00A0190FBF1F000F101001F
:1010800000EB80004FEA400000B22F4908804FF487
:1010900096724FF01E012C4800F0E2FF2A48B0F98A
:1010A00000100A2000E098E000F0CAFC74E1174844
:1010B000B0F9000011304FD12348B0F900004FF0D3
:1010C0000A0190FBF1F0A0F1010000EB80004FEA73
:1010D000400000B21C4908804FF496724FF01E0188
:1010E000194800F0BDFF1848B0F900100A2000F0C0
:1010F000A7FC51E153E000007200002070000020C6
:1011000071000020680000206C00002064000020B6
:1011100075000020740000207300002000100240C1
:10112000000C0140000001400C0C0140F8000020C0
:101130000010014002010020E6000020E80000202D
:10114000F00000205E0000207A000020FC0000205B
:101150003600002082000020FF48B0F900009130E6
:10116000A4D1FE48B0F900004FF00A0190FBF1F065
:10117000A0F1010000EB80004FEA400000B2F74907
:1011800008804FF496724FF01E01F44800F068FF9B
:10119000F248B0F900100A2000F052FCFCE0F048E0
:1011A000407801280BD1EC48B0F900008330A0D181
:1011B00000231A461946022000F0EFFBECE0E84855
:1011C0004078022895D1E448B0F90000833090D1EE
:1011D0000021084600F0C2FBDEE0E148007802286A
:1011E0007DD14FF00100DF490870DB48B0F9000005
:1011F000801C04D0D848B0F9000082300DD1D84806
:1012000090F90100D849085C00F1010040B2D449CE
:1012100091F90110D44A505416E0CF48B0F90000BB
:10122000401D04D0CC48B0F9000085300CD1CC482A
:1012300090F90100CC49085CA0F1010040B2C84916
:1012400091F90110C84A5054C54991F90110C64A94
:10125000114408460922002100F0ECFEBE48B0F916
:101260000000213010D1BE48407800F1010040B2AA
:10127000BB4948704FF002024FF00001B84800F13E
:10128000010000F0D7FE53E0B348B0F90000113080
:1012900010D1B3484078A0F1010040B2B049487085
:1012A0004FF002024FF00001AD4800F1010000F0E4
:1012B000C1FE3DE0A848B0F90000C01C38D1AA48E2
:1012C00090F90200A84991F9011001EB810100EBAE
:1012D0004100A54991F9001001EBC10200E028E0AE
:1012E00002EB011100EB81049D48007802281FD118
:1012F000A4F50070F13813D10021084600F02EFB50
:1013000000231A461946042000F047FB0F20FFF780
:1013100082F94FF00000944908704870887007E027
:101320004FF009008E4908704FF00F00FFF773F976
:1013300032E08B4800782C282ED18748B0F9000085
:10134000A0F57F41EF3910D185484078A0F1010028
:1013500040B2834948704FF002024FF000018048CC
:1013600000F1010000F066FE16E07B48B0F90000D5
:10137000A0F57F41DF390FD17948407800F10100B5
:1013800040B2774948704FF002024FF000017448B4
:1013900000F1010000F04EFE00BF4FF00000734965
:1013A00008703EBD10B572480068012807D14FF0A3
:1013B000000070490860704908606D4908606D4818
:1013C0000068002846D06D48008800F101006B4994
:1013D000088008460088B0F5806F02DB4FF00000FF
:1013E00008806748008864280AD1664863490988EC
:1013F00030F8110000F5004000B26349088011E0A8
:1014000060485E49098830F911006049B1F900105F
:1014100048434FF0640190FBF1F000F5004000B24A
:10142000594908805848B0F90000594908605348A4
:101430000088032803D14FF00100564908604F4847
:101440000088A0F50071033908D14FF0010052491E
:10145000086003E04FF400404D4908604F480088A1
:10146000401C00B24D4908802C2808DB4FF00000DA
:1014700008804FF001004A49087002F005F8494819
:101480000088401C00B247490880B0F5DC7F61DD70
:101490004FF0000008804FF00100434908704348B6
:1014A000007800F10100C0B2404908700A2806DB4C
:1014B0004FF0000008704FF001003D4908703D48B2
:1014C0000078401CC0B23B490870142812DB4FF072
:1014D000000008704FF00100374908703748007865
:1014E00020B14FF000003549087003E04FF00100D3
:1014F0003249087032480078401CC0B23049087048
:10150000322812DB4FF0000008704FF001002D4927
:1015100008702D48007820B14FF000002A4908706B
:1015200003E04FF001002849087028480078401C6B
:10153000C0B226490870642855DB4FF000000870DF
:101540004FF00100224908702248007818B14FF08E
:10155000000041E047E042E0640000207A00002003
:101560005E00002073000020510000207500002064
:101570009000002088000020A0000020D40000205F
:10158000DC0000204C010020B0000020DE00002024
:101590000C74004098000020940000204C000020B3
:1015A0003C0000204A0000203D00002046000020B2
:1015B0003F00002047000020400000204E00002097
:1015C00048000020410000204F000020490000207A
:1015D00042000020500000205949087003E04FF0FD
:1015E00001005749087010BDFEF7EAFD4FF408707E
:1015F0004FF0E02148615348FEF746FEFEF74DFEEE
:10160000FEF738FE4FF000004F49087000F074FA02
:101610000C224E490A2000F036FA0122AFF61431AE
:101620004B4801F00FFB4B49087088E04A480068BE
:1016300088B14A48006840F480604949C1F80C0C00
:10164000484B4FF480624849484801F079FB4FF01D
:1016500000004149086046480068012805D1454915
:1016600008604FF00000424908604348006888B1B4
:101670003A48006820F480603949C1F80C0C394BB5
:101680004FF480623D49394801F05AFB4FF00000A9
:101690003949086036480068012807D13549086093
:1016A0004FF000003249086027490870344800783C
:1016B00018B14FF00000324908703248007848B144
:1016C0004FF000002F490870FFF7B7F9FFF7B8FB9C
:1016D000FEF762FF2C48007870B14FF000002A49F5
:1016E0000870FEF7ADFF294800F022FCFEF796FFD8
:1016F000FEF7F8FEFEF7A1FE2548007818B14FF07E
:101700000000234908702348007888B14FF000009A
:10171000204908704FF00C020C494FF00A0000F00D
:10172000B2F91D48008800F1010000B21A49088092
:101730001A48007818B14FF000001849087075E792
:1017400050000020A08601005E0000207A000020EA
:101750004C09002036000020940000200C0C0140B1
:1017600000000140080100204C010020780B0020FF
:101770008C00002090000020980000204C050020E4
:101780003C0000203D0000203F0000200000002021
:101790004000002042000020F20000200401002050
:1017A00001464FF00002104600BF00F10102D2B224
:1017B00010469D4A125C8A4201D02828F5DB70470A
:1017C0004FF0050211464FF00002114610E04FF0B5
:1017D0000A02B0FBF2F302FB1302944B5A544FF08F
:1017E0000A02B0FBF2F2104601F10102D2B2114638
:1017F0000529ECDB704710B501464FF001028C4B18
:101800001A704FF00502104622E0894A127862B140
:10181000421E864B9A5C42B9884206DD4FF0200397
:10182000A0F10102814CA3540EE0A0F101027F4B14
:101830009A5C02F13002D3B2A0F101027B4CA354B6
:101840004FF000027A4B1A70A0F10102D2B210469A
:101850000028DADC10BD2DE9F04381460F469046A2
:101860001D464846FFF7ACFF681CC0B2FFF7C3FF38
:1018700008EB0710C0B206464FF0000004461FE018
:10188000AC4203DA6948005D67498855AC420FDB1A
:101890006648005D20280BD025B96448005D624988
:1018A000885505E06148015DA6F101005E4A1154CA
:1018B000A6F10100C0B2064604F10100C0B2044620
:1018C000052CDDDBBDE8F0832DE9F04180460F46B5
:1018D00015464046FFF774FF681CC0B2FFF78BFF48
:1018E0003846FFF75DFF06464FF00000044631E042
:1018F00045B94E48005D202804D04C48005D4A4957
:1019000088551FE0AC4204DA4848005D46498855D6
:1019100018E0AC420AD14FF02E00434988554348A5
:10192000015DA6F10100404A11540BE0AC4209DD13
:101930003E48005D202805D03C48015DA6F101002D
:10194000394A1154A6F10100C0B2064604F1010063
:10195000C0B20446052CCBDBBDE8F08110B5354A9A
:101960001288A2F1010212B2324B1A801A46128872
:10197000024412B21A801A46B2F9002002EB820227
:101980002D4B1A442D4B14681C6012791A711A469B
:1019900052780A4452B25A7010BD70B5254CB4F951
:1019A0000050248804F1010424B2224E348005EB57
:1019B0008504214D2C44214D2E6826602D792571FA
:1019C0001E4C20704CB21D4D6C7054B22C715CB228
:1019D000AC7070BD30B502464FF00004234607E0FE
:1019E0004FF02004104DEC5403F10104E4B22346FF
:1019F000282BF5DB0C4807E01478047002F1010491
:101A0000224600F1010420461478002CF4D107E0AE
:101A10000C78047001F10104214600F10104204614
:101A20000C78002CF4D130BD0000002055000020BF
:101A30005A0000202C000020240100205E0000201D
:101A400070B505460C4600F074F8A02000F07CF953
:101A500000F0BAF800B113E0E8B200F075F900F058
:101A6000B3F800B10CE0E0B200F06EF900F0ACF8B1
:101A7000C4F30721084600F067F900F0A5F800BF9D
:101A800000F0B4F970BD2DE9F04106460D46174649
:101A900000F04FF8A02000F057F900F095F800B1E1
:101AA00026E0F0B200F050F900F08EF800B11FE02F
:101AB00000F05FF8A12000F047F900F085F800B1D0
:101AC00016E04FF0000409E000F0B4F828550120BA
:101AD00000F000F904F10100C0B20446781EA042F3
:101AE000F2DC00F0A7F82855002000F0F3F800BF62
:101AF00000F07CF9BDE8F081D048006820F07F401C
:101B0000CF49C1F8000C0846D0F8000C40F0AA40BC
:101B1000C1F8000CCB48C06940F00800C949C86151
:101B2000C748D0F80C0C40F0C000C549C1F80C0CF7
:101B3000704710B5C448006820F08000C049C1F863
:101B40000C0C0846D0F80C0C40F04000C1F80C0C0E
:101B50004FF00500FEF798FBB948D0F80C0C20F0C8
:101B60004000B749C1F80C0C4FF00500FEF78CFBA4
:101B700010BD10B5B448006820F04000B049C1F86D
:101B80000C0C0846D0F80C0C40F08000C1F80C0C8E
:101B90004FF00500FEF778FBA948D0F80C0C40F098
:101BA0004000A94908604FF00500FEF76DFBA4480E
:101BB000D0F80C0C20F08000A149C1F80C0C4FF0BB
:101BC0000500FEF761FB10BD10B59F48006840F0AE
:101BD00080009B49C1F80C0C0846D0F80C0C20F092
:101BE0004000C1F80C0C4FF00300FEF74DFB944889
:101BF000D0F80C0C40F04000934908604FF003000F
:101C0000FEF742FB9048001F006810F0800F02D0E2
:101C10004FF0010401E04FF000048B48006820F011
:101C200040008749C1F80C0C4FF00300FEF72CFB75
:101C300060B210BD70B54FF00000044682480068E5
:101C400040F080007E49C1F80C0C4FF000000546C2
:101C50003CE07D48006820F040007949C1F80C0C58
:101C60000846D0F80C0C40F08000C1F80C0C4FF086
:101C70000300FEF709FB7248D0F80C0C40F040005E
:101C80006F49C1F80C0C4FF00200FEF7FDFA4FEA65
:101C900044604FEA106004466C48006810F0800F02
:101CA00003D044F00100044602E004F0FE000446C4
:101CB0000120FEF7E9FA6448006820F0400060491E
:101CC000C1F80C0C05F10100C0B20546082DC0DBBF
:101CD000204670BD10B504465B48006820F0400007
:101CE0005749C1F80C0C4FF00300FEF7CDFA14F081
:101CF000010F07D05448006820F080005049C1F817
:101D00000C0C06E05048006840F080004C49C1F8D7
:101D10000C0C0320FEF7B8FA4B48006840F0400076
:101D20004749C1F80C0C4FF00300FEF7ADFA4448E8
:101D3000D0F80C0C20F040004149C1F80C0C4FF0D9
:101D40000100FEF7A1FA10BD70B504463E480068D8
:101D500020F040003A49C1F80C0C4FF00300FEF7A8
:101D600093FA4FF00800054634E014F0800F07D0D6
:101D70003548006840F080003149C1F80C0C06E09D
:101D80003148006820F080002D49C1F80C0C032078
:101D9000FEF77AFA4FEA44604FEA106004462A4898
:101DA000006840F040002649C1F80C0C4FF00400D8
:101DB000FEF76AFA2248D0F80C0C20F040002049C7
:101DC000C1F80C0C4FF00200FEF75EFAA5F101001D
:101DD00040B20546012DC8DA1B48006840F080007B
:101DE0001749C1F80C0C4FF0000070BD10B5164833
:101DF000006820F080001249C1F80C0C0846D0F8A9
:101E00000C0C40F04000C1F80C0C4FF00500FEF740
:101E10003BFA0B48D0F80C0C40F080000A490860EF
:101E20004FF00500FEF730FA0548D0F80C0C40F0F2
:101E300080000349C1F80C0C10BD0000000C0140EB
:101E400000000140001002400C0C0140080C014051
:101E500000BF00BF0100A0F101021046FAD1704797
:101E600010B504466448C06840F400606249C86028
:101E70000846C06864F38910C8604FF00200FFF79D
:101E8000E7FF5D48C06820F400605B49C8604FF020
:101E90000200FFF7DDFF10BD10B504464FF0C8008B
:101EA000FFF7D6FF5448C06840F480605249C860CC
:101EB0004FEA24110846FFF7D3FF2046FFF7D0FF73
:101EC00010BD10B504462046FFF7E6FF10BD10B563
:101ED000044640F2DC50FFF7BBFF4748C06820F4DF
:101EE00080604549C8604FEA24110846FFF7B8FFF3
:101EF0002046FFF7B5FF10BD70B504460D4605EB53
:101F0000850004EBC000C0B2064606F07F0000F179
:101F10008000C0B206463046FFF7D9FF70BD10B54D
:101F20000120FFF7D4FF00210846FFF7E5FF10BDB1
:101F300070B506464FF00000054601460846FFF71B
:101F4000DBFF00BF745D04B90DE02046FFF7B9FF69
:101F500005F10100C0B20546102D03D1012100207A
:101F6000FFF7CAFFEEE770BD10B52448806940F066
:101F7000100022498861204800686FF30F0040F08C
:101F80004C501D490860084640681D4900EA0100A0
:101F900043F2333140EA01001749486040F2DC5017
:101FA000FFF756FF1448C06820F480601249C860EB
:101FB0004FF00300FFF754FF41F20400FFF748FF22
:101FC0000320FFF74DFF6420FFF742FF0320FFF7D8
:101FD00047FF0220FFF744FF2820FFF778FF0C207F
:101FE000FFF775FF0620FFF772FF4020FFF76FFF36
:101FF0008020FFF76CFF10BD001001400010024070
:10200000FF00F0FF4FF0000211460CE0425CA62AF0
:1020100005DD425CA2F1A702054B9A5C425401F136
:102020000102D2B21146425C002AEFD17047000093
:102030009035000890F900308B4200DA027090F978
:102040000030934200DD0170704790F900308B4200
:1020500000DA017090F90030934200DD02707047A1
:10206000B0F900308B4200DA0180B0F900309342C1
:1020700000DD02807047B0F900308B4200DA028048
:10208000B0F90030934200DD0180704770B503461F
:102090000C4607E025781D7004F101052C4603F17C
:1020A00001052B461500A2F101063246F2D170BDA2
:1020B00030B5034603E0197003F101042346140010
:1020C000A2F101052A46F6D130BDF0B503461C4603
:1020D0000D464FF00006304600BF1600A2F1010782
:1020E0003A460CD0277804F10106344695F800C032
:1020F00005F101063546A7EB0C063000EDD0F0BD2A
:10210000024602E002F101000246107810B1107898
:102110008842F7D11078704770B504460D464FF0ED
:1021200000000646A06AA84210D07EB96178084631
:1021300001232A4604F12C0101F05BF928B14FF08C
:10214000FF3005464FF001000646A562304670BDDF
:102150000246A1F1020001461069A0F10200884286
:1021600001D8002070479378506A01FB0300F9E71B
:102170002DE9F04705460C46022C02D32869A042FF
:1021800002D84FF0010978E04FF0FF392878012894
:1021900004D0022834D003286AD148E0274607EB50
:1021A00057000746E86900EB572001462846FFF72D
:1021B000B3FF00B160E0384607F101010F46C0F3FC
:1021C000080105F12C0010F80180E86900EB5720A8
:1021D00001462846FFF7A0FF00B14DE0C7F3080114
:1021E00005F12C00405C48EA0020804614F0010F05
:1021F00002D04FEA181001E0C8F30B0081463BE023
:10220000E86900EB142001462846FFF785FF00B17E
:1022100032E040F2FF1000EA440105F12C0001EB2E
:1022200000063078717840EA0120814624E0E869B0
:1022300000EBD41001462846FFF76EFF00B11BE00B
:1022400040F2FF1000EA840105F12C0001EB0006CA
:10225000F0784FEA0060B17840EA0140717840EAD6
:102260000120317840EA010020F07040814603E00F
:102270004FF00100814600BF00BF4846BDE8F0872F
:102280002DE9F04104460E46E680A0680546012D82
:1022900003D020680069A84202D80220BDE8F0817E
:1022A00035B920680078032802D12068006A054605
:1022B00045B920680089B04201D80220EEE72068C5
:1022C000076A21E0206880784FEA001814E021684E
:1022D00008462946FFF74CFF0546681C01D101203E
:1022E000DCE7022D03D320680069A84201D8022050
:1022F000D4E7A6EB080006464645E8D22168084622
:102300002946FFF725FF0746E5600FB90220C5E71C
:1023100007EB16102061206800F12C0006F00F0179
:1023200000EB411060614FF00000B7E72DE9F0418C
:1023300004460F46E08800F1010006463004000C18
:1023400001D0206910B90420BDE8F08116F00F0F0C
:1023500031D1206900F101002061E06828B92068CE
:102360000089B04227D80420EEE720688078A0F1E9
:10237000010010EA161F1ED1E268114622681046BD
:10238000FFF7F6FE0546012D01D80220DCE7681CA8
:1023900001D10120D8E720680069A84204D80FB90C
:1023A0000420D1E70420CFE7E560216808462946EC
:1023B000FFF7CEFE2061E680206800F12C0006F0D9
:1023C0000F0100EB411060614FF00000BCE710B559
:1023D00002468C7ECB7E44EA032318461378032BF7
:1023E00006D10C7D4B7D44EA032340EA03431846A3
:1023F00010BD2DE9F04104464FF000012046FFF7E3
:102400003FFF054615B12846BDE8F08100BF2269AF
:10241000114622681046FFF77FFE054605B119E018
:10242000666937781FB94FF00400054612E0F07A6C
:1024300010F0080F07D1A06901460B223046FFF7C4
:1024400044FE00B906E000212046FFF76FFF054675
:10245000002DDCD000BF2846D6E72DE9F047044622
:1024600089464FF0040005462BE022691146226898
:102470001046FFF751FE054605B125E0D4F814805B
:1024800098F800701FB94FF0040005461CE098F85A
:102490000B0000F03F06E52F0CD000BF0F2E09D037
:1024A00026F02000082801D1012000E00020484546
:1024B00000D109E000212046FFF738FF054605B1AD
:1024C00002E020690028D0D100BF15B14FF0000014
:1024D00020612846BDE8F087F0B5044601F1090007
:1024E0000246206900283BD0666930464FF0000361
:1024F0001AE01E4603F101073B46865D3546202D56
:1025000000D111E0052D02D14FF0E5063546092B2B
:1025100005D14FF02E06167002F1010632461570F5
:1025200002F10106324600BF0B2BE2D3C67A0E72CF
:10253000C67F4FEA0667867F47EA0647467F47EA37
:102540000626077F46EA07060E60077E467E47EAB4
:1025500006268E80877DC67D47EA0626CE8000BF90
:102560004FF000001070F0BD2DE9F35F0198006896
:10257000804602E008F10100804698F800002F280C
:10258000F8D098F800005C28F4D0009885690B22F8
:1025900020212846FFF78CFD4FF000063746B14654
:1025A0004FF0080B18F809002E282AD100BF484622
:1025B00009F10101894618F800402E2C02D1B9F129
:1025C000030F00D305E0384607F101010F462C54F4
:1025D000EDE700BF2F2C06D05C2C04D0202C02DDB0
:1025E0000620BDE8FC9F08EB090101980160202C42
:1025F00002DC4FF0240001E04FF02000E8720020E0
:10260000EFE700BF484609F10101894618F80000CC
:102610000446202C03DD2F2C01D05C2C00D167E078
:102620002E2C01D05F4512D3BBF1080F01D12E2C07
:1026300001D00620D5E74FF0080007464FF00B0009
:1026400083464FEA86604FEA10600646DAE7802C40
:1026500002DB46F003000646812C01DB9F2C03DDE4
:10266000E02C25DBFC2C23DC484609F101018946DE
:1026700018F800A0BAF1400F02DBBAF17E0F05DDB9
:10268000BAF1800F06DBBAF1FC0F03DCABF10100FD
:10269000B84201D80620A4E7384607F101010F46E9
:1026A0002C54384607F101010F4605F800A01EE042
:1026B0002146F8A0FFF724FD08B1062091E7412C40
:1026C00005DB5A2C03DC46F0020006460AE0612CCA
:1026D00008DB7A2C06DC46F001000646A4F1200057
:1026E000C0B20446384607F101010F462C5489E771
:1026F00000BF08EB090101980160202C02DC4FF0BB
:10270000040001E04FF00000C0B204460FB90620FB
:1027100067E72878E52802D14FF005002870BBF163
:10272000080F04D14FEA86604FEA1060064606F0B3
:102730000300012802D144F01000044606F00C000A
:10274000042802D144F008000446EC72002048E757
:102750002DE9F3410446019800782F2803D0019811
:1027600000785C2807D1019800F1010001904FF03A
:102770000000A06002E02068C068A06001980078B6
:10278000202808D200212046FFF77AFD05464FF0A9
:10279000000060613BE000BF01A92046FFF7E4FEB6
:1027A000054605B132E02046FFF723FE0546A06945
:1027B000C67ABDB1042D14D116F0200F0BD04FF006
:1027C0000000A060606116F0040F00D1E4E74FF054
:1027D0000000054605E016F0040F02D14FF0050099
:1027E000054613E016F0040F00D00FE06769F87A91
:1027F00010F0100F03D14FF00500054606E02168E8
:1028000008463946FFF7E3FDA060C5E700BF28464C
:10281000BDE8FC8170B502464FF0FF3528461568CB
:102820001DB3116802E001F1010529460D78212D43
:1028300002D30D783A2DF6D10D783A2D12D11568C4
:102840002C46257804F101063446A5F130030A2B05
:1028500007D28C4205D123B9184601F1010529465A
:10286000156070BD4FF00005284600BFF9E770B550
:1028700004460D464FF0000020714FF0FF30A0627B
:1028800029462046FFF748FC08B1032070BD94F8A4
:102890002A1294F82B0241EA0020A0F52A4155396A
:1028A00001D00220F2E794F86500010694F8640074
:1028B00041EA004194F8630041EA002094F8621074
:1028C000084320F07F407749884201D10020DDE7AE
:1028D00094F88100010694F8800041EA004194F8E0
:1028E0007F0041EA002094F87E10084320F07F40EA
:1028F0006C49884201D10020C8E70120C6E72DE9D4
:10290000F74F88B04FF00001089801600998FFF771
:1029100081FF07900798002803DA0B200BB0BDE871
:10292000F08F6149079851F820400CB90C20F5E769
:1029300008980460207858B16178084600F052FD8C
:102940000690069810F0010F02D100BF0020E5E7C5
:102950004FF000002070079860706178084600F022
:1029600073FC0690069810F0010F01D00320D5E704
:1029700000BF4FF0000841462046FFF778FF0546AC
:10298000012D02D0002D3ED13DE04FF00000064663
:102990001AE004F5F57101EB06110846017961B101
:1029A000C17A4FEA0162817A42EA0142417A42EAFF
:1029B0000121027A41EA020101E04FF000014DF8E5
:1029C000261006F101000646042EE2D34FF0000067
:1029D000064616B1A6F10100064600BF5DF82600C6
:1029E0008046B8F1000F04D041462046FFF73FFF74
:1029F00001E04FF00200C0B205461DB1701C064652
:102A00000428EBD300BF032D01D1012086E70DB1CF
:102A10000D2083E73720015D94F8380041EA00205B
:102A2000B0F5007F01D00D2078E74FF04200015D46
:102A300094F8430041EA002787B994F853004FEA1D
:102A4000006194F8520041EA004194F8510041EAD3
:102A5000002094F8501040EA0100074667614FF0EB
:102A60003C00005DE070E078012804D0E0780228A6
:102A700001D00D2052E7E07847434FF03900005D68
:102A8000A070A07820B1A078A0F1010108420DD07B
:102A90000D2043E7222A2B2C3A3B3C3D3E3F5B5D19
:102AA0007C7F0000464154000C0100204FF03D00A7
:102AB000015D94F83E0041EA00202081208910F059
:102AC0000F0F01D00D2029E74FF03F00015D94F872
:102AD000400041EA0029B9F1000F10D194F84F00ED
:102AE0004FEA006194F84E0041EA004194F84D002D
:102AF00041EA002094F84C1040EA010081464FF072
:102B00003A00015D94F83B0041EA002BBBF1000F55
:102B100001D10D2002E70BEB0700218900EB11101A
:102B200005900598814501D20D20F7E60598A9EB9F
:102B30000000A178B0FBF1FABAF1000F01D10D202D
:102B4000ECE64FF00100054640F6F670824502D3F0
:102B50004FF0020005464FF6F670824502D34FF063
:102B6000030005460AF102002061C4F8188008EB52
:102B70000B00E061059840446062032D19D1208963
:102B800008B10D20CAE694F85B004FEA006194F8A2
:102B90005A0041EA004194F8590041EA002094F8B3
:102BA000581040EA0100206220694FEA800004903A
:102BB00015E0208908B90D20B0E6E06938442062AC
:102BC000022D03D120694FEA400007E0206900F0A0
:102BD0000100216901EB410100EB510004906169A2
:102BE000049800F2FF10B1EB502F01D20D2095E6B2
:102BF0002570B448008800F1010080B2B149088016
:102C0000E0804FF00000E06000BF87E670B5054649
:102C10002C464CB1206838B12068007820B120687B
:102C2000C088A188884201D0092070BD21684978F8
:102C3000084600F0D7FB10F0010F01D00320F4E7A5
:102C40000020F2E7F7B582B016460398019001A87C
:102C5000FFF7E0FD0546002D02DA0B2005B0F0BDC0
:102C6000994850F8254014B14FF0000020700298A8
:102C700018B14FF00000029908709349029841F88A
:102C80002500029808B1012E01D00020E6E70022BD
:102C900003A902A8FFF733FE07463846DEE7F7B57B
:102CA0008AB00446174614B909200DB0F0BD4FF0A4
:102CB0000000206007F0010007464FF000020BA95A
:102CC00003A8FFF71CFE0646002E37D1CDF824D00E
:102CD00003A80B99FFF73CFD0646089D6EB90898BE
:102CE00005461DB94FF00600064606E0E87A10F0EA
:102CF000100F02D04FF004000646FEB9A7714FF046
:102D00000000E071039908462946FFF760FB206147
:102D1000E87F4FEA0061A87F41EA0041687F41EA0D
:102D20000020297F40EA0100E0604FF00000A06031
:102D3000A061039820602068C088A0803046B4E776
:102D40002DE9FF4F83B0044615469946049800903C
:102D50004FF00000C9F800002046FFF757FF02902F
:102D6000029818B1029807B0BDE8F08FE07908B179
:102D7000E079F8E7A07910F0010F01D10720F2E720
:102D8000D4E90210A0EB010001900198854201D91D
:102D90000198054691E0A068C005C00D6AD1206881
:102DA0008078A0F10100A16800EA512000F0FF083E
:102DB000B8F1000F1BD1A06810B92069834606E066
:102DC0006269114622681046FFF7D2F98346BBF1CB
:102DD000020F03D24FF00200E071C4E71BF10100C3
:102DE00003D14FF00100E071BDE7C4F814B062698F
:102DF000114622681046FFF7ABF907461FB94FF09E
:102E00000200E071AFE707EB080007464FEA5520E4
:102E10008246BAF1000F1BD008EB0A0021688978BE
:102E2000884204D920688078A0EB08008246216897
:102E30004978084653463A46009900F0DAFA18B144
:102E40004FF00100E0718EE74FEA4A20064626E087
:102E5000A069B8420DD021684978084601233A4656
:102E600004F11C0100F0C5FA18B14FF00100E07147
:102E700079E7A761A068C0F30800C0F500700646B6
:102E8000AE4200D92E46A068C0F3080204F11C002F
:102E90001044014632460098FFF7F8F800BF00984A
:102EA00030440090A0683044A060D9F8000030445D
:102EB000C9F80000A5EB06000546002D7FF46BAFB6
:102EC000002050E7100100200C010020FB48806921
:102ED00040F48050F94988610846806940F0040058
:102EE00088610846806940F010008861F4480068F5
:102EF00020F4706040F44070F1490860F1480068C7
:102F000020F4700040F43000EF49C1F800084FF0A1
:102F10004000C1F81008EB48006820F0706040F0F5
:102F20000060C1F80008E748006820F0704040F0F9
:102F30003040E44908604FF00100E349C1F810084F
:102F4000E048006820F00F0040F00800DD4908600C
:102F50004FF45170DD4908804FF01000DC490860E3
:102F60004FF00A00DB49086000BFDA48006800281B
:102F7000FBD170470146D548818100BFD348008905
:102F800010F0800FFAD1D1488089C0B2704710B5D7
:102F90000A46CE4B1B8823F04003CC4C23802346AB
:102FA0001B8843F4046323804FF6FF73A381A2F1CF
:102FB00002031A4600BF00BFC44B1B8913F0800FE9
:102FC000FAD1C24B99894FF6FF73C04CA38141706F
:102FD0004FEA2123037000F102031846A2F1020315
:102FE0001A00E8D100BFB94B1B8913F0800FFAD14A
:102FF000B64B9B89194641704FEA21230370B34BAE
:103000001B8823F40463B14C238023461B8843F0C0
:103010004003238010BD10B5AC4B1B8823F0400348
:10302000AA4C238023461B8843F4046323804378FF
:10303000047843EA04231A46A44B9A8100F1020360
:103040001846A1F10203194600BF4378047843EA09
:1030500004231A4600BF9D4B1B8913F0800FFAD141
:103060009A4B9B89994B9A8100F102031846A1F172
:1030700002031900E9D100BF944B1B8913F0800FA4
:10308000FAD1924B9B89914B1B8823F404638F4C9C
:10309000238023461B8843F04003238010BD70B576
:1030A00005468D48056000BFFF20FFF763FF04461B
:1030B000FF2C03D0884800680028F5D1FF2C01D1EF
:1030C000012070BD0020FCE710B54FF010008049D2
:1030D00008604FF0FF00FFF74DFF10BD10B54FF433
:1030E00080107B4908604FF0FF00FFF743FF4FF46B
:1030F000FA70FFF7D4FF08B1012010BDFFF7E4FF1D
:103100000020FAE770B505460E464FF0C800714939
:10311000086000BFFF20FFF72DFF0446FF2C03D1FE
:103120006C4800680028F5D1FE2C01D0002070BD4D
:1031300031462846FFF72BFFFF20FFF71BFFFF203C
:10314000FFF718FF0120F2E770B506460C464FF472
:10315000FA70FFF7A4FF08B9002070BD2046FFF702
:1031600009FFFD2C14D04FF400713046FFF753FFD8
:10317000FF20FFF7FFFEFF20FFF7FCFEFF20FFF719
:10318000F9FE054605F01F00052801D00020E4E700
:103190000120E2E72DE9F04104460D4614F0800FCE
:1031A0000ED004F07F0004464FF000014FF03700CE
:1031B000FFF7F0FF0646012E02DD3046BDE8F08144
:1031C0000C2C06D0FFF780FFFFF788FF08B9FF201F
:1031D000F4E744F040010846FFF7CCFE290E08460C
:1031E000FFF7C8FEC5F307410846FFF7C3FEC5F366
:1031F00007210846FFF7BEFEE8B2FFF7BBFE4FF01F
:10320000010714B94FF095000746082C02D14FF082
:10321000870007463846FFF7ADFE0C2C02D1FF2091
:10322000FFF7A8FE4FF00A00074600BFFF20FFF798
:10323000A1FE064616F0800F04D0A7F10100C0B22F
:103240000700F3D13046B9E7F8B507460FB10120C2
:10325000F8BDFFF73BFE2148007810F0020F02D0C6
:103260001E480078F4E71948008820F0380040F044
:103270002800164908804FF00A0406E0FF20FFF7F7
:1032800079FEA4F10100C0B20446002CF6D1264616
:1032900021460846FFF77EFF012863D14FF47A707C
:1032A0000C4908604FF4D5714FF00800FFF772FF2A
:1032B000012858D14FF0000004461AE000100240E7
:1032C00000100140000801400000014000300140B2
:1032D00010080140180100201C01002014010020EA
:1032E000FF20FFF747FE0DF8040004F10100C0B213
:1032F0000446042CF4DB9DF80200012859D19DF806
:103300000300AA2855D100BF7848006830B14FF0BB
:103310008041A920FFF73EFF0028F5D173480068DF
:10332000002846D000213A20FFF734FFD0B94FF0F3
:103330000000044608E0FF20FFF71CFE0DF8040023
:1033400004F10100C0B20446042CF4DB9DF8000037
:1033500010F0400F02D04FF00C0001E04FF00400DD
:10336000C0B2064625E00021A920FFF713FF01287F
:1033700005DC4FF0020006464FF0A90503E04FF0D0
:1033800001000646054600BF5848006828B10021E4
:103390002846FFF7FFFE0028F6D15448006828B100
:1033A0004FF400711020FFF7F5FE10B14FF0000050
:1033B00006464F480670FFF787FE66B14D48008805
:1033C00020F038004B4908804B48007820F001007D
:1033D0004949087003E04FF001004749087046482A
:1033E000007835E7014609B101207047424800786E
:1033F000FBE72DE9F04107460D4616461C4607B986
:1034000014B90420BDE8F0813B48007810F0010FAA
:1034100001D00320F6E73648007810F0080F02D1FB
:103420004FEA46200646012C0DD131461120FFF708
:10343000B1FE08BB61022846FFF764FEE0B14FF021
:103440000000044618E031461220FFF7A3FE98B9A9
:1034500000BF4FF400712846FFF754FE00B906E0A4
:1034600005F500700546A4F101000400F1D100BF8C
:1034700000210C20FFF78EFEFFF726FE0CB1012085
:1034800000E00020C0B2BDE7184A126892B21146AF
:1034900029B1A1F1010292B21146144B1A60174AE8
:1034A000126892B2114661B1A1F1010292B21146C5
:1034B000124B1A601A4612681AB94FF00102104BEB
:1034C0001A700D4A1278104620F0040210460D4A78
:1034D000126812F0010F03D120F00202104602E040
:1034E00040F003021046044A107070471801002093
:1034F0002001002000300140140100201C010020A8
:103500000401002008080140704770477047754665
:1035100000F028F8AE4605006946534620F0070043
:10352000854618B020B5FCF73DFEBDE820404FF0C1
:1035300000064FF000074FF000084FF0000B21F09D
:103540000701AC46ACE8C009ACE8C009ACE8C0096A
:10355000ACE8C0098D4670470446AFF300802046B2
:10356000FCF70DFE00487047940D0020004870479E
:10357000980D002001491820ABBEFEE7260002008E
:10358000704710B5FFF7F2FF4FF00001016010BD6A
:10359000FDA2FFAAC8ACADAEAFB0B1D769B4B5FE5D
:1035A000DFB5CCBAC9BCBDBEBF41A042A1E045A3B6
:1035B000A4A5A64BA74D484FA8504354A9AA58E12B
:1035C000ABACE2ADAEC4AFB0B161B2B3B4E365B61B
:1035D000B7B8B9BABBBCBD6FBE7063BF79AA78E596
:1035E000C0C1E6C2C3C4C5C6C70000000C3600088F
:1035F00000000020240100002801000830370008E6
:1036000024010020D40E0000440100082A2E2E2E92
:103610002E2E2E2E2E2E2E2E2E2E2E2E402E2E2EB8
:103620002E2E2E2E2E2E2E2E2E2E2E200000000080
:10363000000000003200000000000A00020200004A
:1036400064000500190006000000000000000000F2
:10365000000000000000000000000000000000006A
:10366000000000000000000000000000000000005A
:10367000000000000000000000000000000000004A
:10368000000000000000000000000000000000003A
:10369000000000000000000000000000000000002A
:1036A000000000000000000000000000000000001A
:1036B000000000000000000000000000000000000A
:1036C00000000000000000000000000000000000FA
:1036D00000000000000000000000000000000000EA
:1036E00000000000000000000000000000000000DA
:1036F00000000000000000000000000000000000CA
:1037000000000000000000000000000000000000B9
:1037100000000000000000000000000000000000A9
:103720000100000000000000000000000000000098
:04000005080000ED02
:00000001FF
