:020000040800F2
:10000000F80F00208D0100089101000893010008FD
:100010009501000897010008990100080000000000
:100020000000000000000000000000009B0100082C
:100030009D010008000000009F010008271400082F
:10004000A3010008A3010008A3010008A301000800
:10005000A3010008A3010008A3010008A3010008F0
:10006000A3010008A3010008A3010008A3010008E0
:10007000A3010008A3010008A3010008A3010008D0
:10008000A3010008A3010008A3010008A3010008C0
:10009000A3010008A3010008A3010008A3010008B0
:1000A000A3010008A3010008A3010008A3010008A0
:1000B000A3010008A3010008A3010008A301000890
:1000C000A3010008A3010008A3010008A301000880
:1000D000A3010008A3010008A3010008A301000870
:1000E000A3010008A3010008A301000800F002F822
:1000F00000F03CF80AA090E8000C82448344AAF186
:100100000107DA4501D100F031F8AFF2090EBAE883
:100110000F0013F0010F18BFFB1A43F0010318473B
:100120005035000070350000103A24BF78C878C1FF
:10013000FAD8520724BF30C830C144BF04680C60ED
:10014000704700000023002400250026103A28BF35
:1001500078C1FBD8520728BF30C148BF0B60704739
:100160001FB503F050FA1FBD10B510BD03F011FA12
:100170001146FFF7F5FF01F071FA03F02FFA03B40F
:10018000FFF7F2FF03BC03F037FA0000084800470E
:10019000FEE7FEE7FEE7FEE7FEE7FEE7FEE7FEE737
:1001A000FEE7FEE703480449024A044B704700009B
:1001B000ED000008F80D0020F80F0020F80D0020D9
:1001C00000BF4FF012002349086000BF00BF224863
:1001D000224948602248086000BF00BF1F480068ED
:1001E00010F0007FFAD000BF1C48406800F00C00FF
:1001F0000828F9D100BF00BF1A484FF0E02148613C
:100200004FF0060008614FF0000088610846006961
:1002100040F00100086100BF00BF1048806940F055
:1002200008000E4988614FF06E400F4908604FF496
:1002300040700E49C1F8040C0848806940F0100075
:10024000064988614FF0000009490860486000BF16
:10025000704700000020024002841200001002409B
:10026000820000017FA90300000C01400000014052
:100270000010014010B501F0B9FE01F092FE00211E
:10028000084601F07BFE10BD00EB8002114600BF66
:10029000A1F101021100FBD17047FF48C06940F095
:1002A0000050FD49C8614FF00100FC4908607047EB
:1002B0002DE9FF5F05460E4617469846DDE90FAB70
:1002C000DDF8389006EB86004FEA400000B2F449B2
:1002D00008804FF00000F3490880BAF1000F02D106
:1002E000F149088008E00BEB8B00ED490988A1EB90
:1002F000400000B2EC490880EC48A0F800903FB9FB
:10030000EB48A0F800904FF00000EA49087015E0B3
:100310004FF01400E64908804FF00100E5490870ED
:100320004FF0640008FB00F0E049B1F90010A1F1C2
:10033000140190FBF1F000B2DF4908802C464FF029
:1003400030008DF800008DF801008DF802008DF866
:1003500003008DF804008DF805008DF806008DF877
:1003600007004FF02E008DF808004FF077008DF851
:1003700009004FF061008DF80A004FF076008DF80B
:100380000B004FF000008DF80C004FF00A0094FBBA
:10039000F0F100FB114000F13000C0B28DF8070011
:1003A0004FF00A0094FBF0F000B204464FF00A0050
:1003B00094FBF0F100FB114000F13000C0B28DF869
:1003C00006004FF00A0094FBF0F000B204464FF034
:1003D0000A0094FBF0F100FB114000F13000C0B2C4
:1003E0008DF805004FF00A0094FBF0F000B20446CF
:1003F0004FF00A0094FBF0F100FB114000F13000D7
:10040000C0B28DF804004FF001026946AB4802F01B
:1004100088FCAB4908704FF00100AA490860AA495E
:100420000860AA4908604FF0FA00A94908804FF017
:100430000000A8490860BDE8FF9F9948008810B3F4
:100440009748B0F900009749B1F9001088421ADDC9
:100450009448008800F1010000B2924908800846E3
:10046000B0F900008E49B1F9001088420BDB4FF063
:1004700000008B4908808B4908808D4908804FF027
:100480000100944908608848008808B38648B0F99C
:1004900000008449B1F90010884219D14FF0FF00E3
:1004A000844908707E48B0F900007F49B1F9001016
:1004B000A0EB010000EB80004FEA40017B48B0F95F
:1004C0000000A0F10A0091FBF0F000B27A49088028
:1004D00070474FF001007F4908604FF000007149FC
:1004E0000880704710B57C48006820F470407B4954
:1004F000C1F800080846D0F8000840F40050C1F8E0
:1005000000087748008830B175480088A0F10100E4
:1005100000B27349088073480088012806D17248E8
:10052000008800F1010000B26F4908806E48008821
:1005300038B96E48006820F008006849C1F80C0816
:1005400009E06948008830B16848006840F0080058
:100550006249C1F80C086648B0F90000401F00EB82
:1005600080005F49B1F90010B1EB400F13D1614831
:10057000008800F1010000B25E49088042F20F726B
:100580004FF000015B4801F0B8FD5A48B0F9001087
:10059000142001F097FA10BD10B55748008800F1FB
:1005A000010000B2544908800846B0F900004249F1
:1005B000B1F90010884222DB4FF000004E4908805C
:1005C0003C480078012807D13948008800F1010033
:1005D00000B2374908800BE0364890F90000401C13
:1005E00006D133480088A0F1010000B230490880EC
:1005F0002E48B0F9002000212D4801F073FD2C4851
:10060000B0F9000040434FF0640190FBF1F000B2FC
:100610003A49088010BD3A48006820F47F202F49ED
:10062000C1F8040C0846D0F8040C40F40820C1F8C6
:10063000040C0846D0F80C0C40F4C050C1F80C0C67
:100640003048006810F4006F12D12F4800780A2853
:1006500012DA2D48007800F101002B490870084695
:1006600000780A2808DB4FF001002849087003E0F1
:100670004FF00000244908702248006810F4805FA1
:1006800051D1234800780A2851DA2148007800F136
:1006900001001F4908703DE0001002400074004056
:1006A000D8000020D6000020DA000020E000002062
:1006B000DC0000203200002034000020780B0020F5
:1006C00036000020880000209800002094000020C0
:1006D000D40000208C0000200008014000000140F0
:1006E000E6000020F0000020E80000200C08014097
:1006F0007A00002084000020E2000020DE000020BC
:10070000040C0140080C0140760000207800002015
:1007100077000020084600780A2808DB4FF0010027
:10072000FF49087003E04FF00000FE490870704771
:1007300000B5FB48007870B14FF00000F849087030
:10074000F948008838B94FF00000F8490880F849A6
:100750000880FFF7BEFE00BDF6490870704710B56F
:10076000F448007860B1F3480078A0F10100F14945
:1007700008700846007818B90021084601F030F9E1
:1007800010BD10B59EB0EC480078002845D1E64871
:100790000088F0B9E9A1EEA001F05EF9F148B0F9E6
:1007A00000003C2190FBF1F080B2044600222121A0
:1007B00001F0CCF8EB48B0F900003C2190FBF1F2DD
:1007C00001FB120080B204460022402101F0BEF875
:1007D00081E1E5A1E9A001F03FF9D348B0F90000BB
:1007E0000A2190FBF1F03C2190FBF1F080B204462D
:1007F000002201F0ABF8CC48B0F900000A2190FBD0
:10080000F1F03C2190FBF1F201FB120080B20446B2
:1008100000223E2101F09AF85DE1C74800780328E4
:100820007BD1DBA00090DFA00190E3A00290E7A0C5
:100830000390EBA00490EFA00590BF4A92F901202D
:10084000012303EB42025DF822201146BA4A92F9D5
:10085000012052005DF82220104601F0FDF8C14849
:10086000B0F900003C2190FBF1F080B20446002278
:10087000212101F06BF8BB48B0F900003C2190FB4E
:10088000F1F201FB120080B204460022402101F087
:100890005DF8DD48B0F900003C2190FBF1F080B23A
:1008A00004460022232101F051F8D748B0F9000096
:1008B0003C2190FBF1F201FB120080B204460022C1
:1008C000242101F043F8D148B0F900003C2190FB0D
:1008D000F1F080B204460022252101F037F8CB4820
:1008E000B0F900003C2190FBF1F201FB120080B254
:1008F000044600225E2101F029F800222821C44884
:10090000008880B201F022F800222921C148008825
:1009100080B201F01BF8DEE0FFE787480078152879
:1009200004D1BDA1C1A001F097F8D4E082480078BD
:10093000162835D1C248007800F10100C04908707E
:1009400008460078142811DD4FF0000008707A483E
:10095000007900F1010040B277490871084690F92A
:100960000400022802DD4FF000000871724800798F
:1009700020B9B4A1B8A001F06FF8ACE06E480079DE
:10098000012804D1B9A1BEA001F066F8A3E06A482D
:1009900000790228BFD1BFA1C3A001F05DF89AE0A1
:1009A0006548007802281DD1C4A1C9A001F054F8FF
:1009B000CC48007800F13000CB49C872C948407873
:1009C00000F130000873C748807800F130004873A8
:1009D0004FF05E01584890F9010000F11B00C24A37
:1009E000115478E054480078092804D1BFA1C4A06C
:1009F00001F032F86FE05048007804280BD17DA157
:100A0000C4A001F029F800222121C748008880B243
:100A100000F09CFF5FE0484800782C285BD175A16E
:100A200074A001F019F844484078F0BB00231A463E
:100A30001946012000F051FF0023022201217548D0
:100A4000008880B200F049FF00230F221946B74802
:100A5000008880B200F041FF00230F220121B4483A
:100A6000008880B200F039FF00230C221946B148FB
:100A7000008880B200F031FF00230C220121AE4833
:100A8000008880B200F029FF00230522194626487D
:100A9000008880B200F021FF002305220121A74831
:100AA000008880B200F019FF15E0FFE72248407887
:100AB000012806D100231A461946022000F00DFF36
:100AC00009E01D484078022805D100231A4619463E
:100AD000032000F002FF844801F0D6FA1EB010BDDA
:100AE0009748006860F0070096490860964880685B
:100AF00060F03000096800EA0100924908609348FC
:100B0000D0F8080C10F4006F04D10846006820F4F7
:100B1000807008608B480068401C00D018E11DE11F
:100B20007900002077000020E6000020E800002087
:100B3000F0000020630000205E00002020E2F0E5CD
:100B4000ECFF2020202030213A304020000000001F
:100B500020D3F1F2E0EDEEE2EBE5EDEDEEE5202065
:100B6000000000007A00002020EEF1F2E0EBEEF150
:100B7000FC20303C3A303E20000000002020C4EE33
:100B800020EEEAEEEDF7E0EDE8FF202000000000A7
:100B900020C4EBE8F2E5EBFCEDEEF1F2FC202020C6
:100BA0000000000020F1E5E0EDF1E020202021EC44
:100BB000304063200000000020D1F7E5F2F7E8EABA
:100BC00020202020202020200000000020F1E5E04F
:100BD000EDF1EEE220202020202020200000000067
:100BE00020C2FBF5EEE42020202020202020202021
:100BF0000000000020202020202020202020202075
:100C000020202020000000007E0000207C0000202A
:100C100080000020820000202020EAE0F0F2E020A6
:100C2000EFE0ECFFF2E82020000000002020CEF2F0
:100C3000F1F3F2F1F2E2F3E5F220202000000000EF
:100C40003B000020E8EDE8F6E8E0EBE8E7E8F0F349
:100C5000E5F2F1FF00000000CAE0F0F2E020EFE072
:100C6000ECFFF2E820EDE52000000000202020ED60
:100C7000E5E8F1EFF0E0E2EDE02C202000000000DC
:100C80002020C2EEE7ECEEE6EDEE20EEEDE02020D7
:100C900000000000F0EEE2E0EDE020E220464154EA
:100CA0003136202000000000E8EBE820EDE520EEE2
:100CB000F2F4EEF0ECE0F2E800000000202020EF7B
:100CC000E0F0EEEBFC20202020202020000000009F
:100CD0002020C2E2E5E4E8F2E520202020202020C8
:100CE000000000005100002000000020202020ED26
:100CF000E5E2E5F0EDFBE9212121202000000000E4
:100D00002020202020CFE0F0EEEBFC20202020202F
:100D10000000000020202020202020202021202052
:100D2000202020200000000084000020DC000020A3
:100D3000DE000020DA000020D8000020EC000020B7
:100D4000080C014068000020001001400000014034
:100D5000FF480068FF490968884238D04FF000001A
:100D6000FD490870FD480078042802DAFC48007844
:100D700058B1FC48007840B94FF00100FA490870BA
:100D8000F448006800B2F9490880F5480078F8494D
:100D9000097888420CDB4FF00100F3490870ED48F8
:100DA00000684FF67F7100EA010000B2EF49088049
:100DB0004FF00000EB4908704FF01400EC49087048
:100DC0004FF00000E5490870E549087042E0E0484E
:100DD0000068E049096888423BD1E048007800F1AA
:100DE0000100DE49087008460078042831DB4FF026
:100DF00000000870DA48007800F10100D849087056
:100E000008460078DA490978884222DBD148006830
:100E10004FF67F7100EA010000B2D44908804FF01C
:100E20000000CF4908704FF00100CF490870CD494C
:100E30000870C948007860B1CD4800784FEA60007A
:100E4000CB49087008460078022802DC4FF0020007
:100E5000087000BFBE480068BE490860C548806988
:100E600040F01800C3498861C34800686FF30B0065
:100E7000C249C1F8000CC048006840F6880140EA49
:100E80000100BE49C1F8000C0846D0F80C0C40F037
:100E90000700C1F80C0CBA480068BA490860BA48A3
:100EA000006820F47F00B84908600846006840F4F4
:100EB000080008600846C06840F03000C860AF48CD
:100EC000D0F8040C20F47F20AC49C1F8040C08468B
:100ED000D0F8040C40F40820C1F8040C0846D0F8FF
:100EE0000C0C40F4C050A649086070473EB59E48BF
:100EF000007800B992E2A548008800F1010000B234
:100F0000A24908809948B0F90000A0F57F41FA395C
:100F10000CD19F4800782C2804D04FF02C009C491D
:100F2000087003E04FF00000994908709848007875
:100F3000002876D18D48B0F9000000F5807081302E
:100F400028D19448008828BB9348008800EB800093
:100F50004FEA400000B2914908804FF00A004FF07C
:100F600000014FF064024FF00503CDE9002102902B
:100F70000A468948008800F1640001B24FF002007F
:100F8000FFF796F94FF00000854908804FF0010007
:100F9000804908807548B0F9000000F58070013084
:100FA00003D17C4908807D4908807048B0F9000071
:100FB000833005D100231A461946032000F02FFD87
:100FC0006A48B0F90000A0F57F41FD3905D17548A8
:100FD000008801B21E2000F075FD6448B0F90000E1
:100FE000A0F57F41FB3903D14FF00A006E4908702C
:100FF0005E48B0F90000A0F57F41EF390FD10A211A
:1010000001226A480088C0B20523CDE90121009081
:10101000614800880A3001B21046FFF749F9FCE147
:10102000FFE75B48007803287DD15048B0F9000005
:10103000801C10D156484078A0F1010040B25449BC
:1010400048704FF002024FF00001514800F10100DA
:1010500001F03DF8E1E14548B0F90000401D10D134
:101060004B48407800F1010040B2494948704FF0C8
:1010700002024FF00001464800F1010001F027F89C
:10108000CBE13A48B0F90000853004D14FF00500BB
:101090003F494870C1E13E484078002856D1334866
:1010A000B0F9000021301DD13B48B0F900004FF0ED
:1010B0000A0190FBF1F000F1010000EB80004FEA23
:1010C000400000B2344908804FF496724FF01E0180
:1010D000314801F007F83048B0F900100A2000F05C
:1010E000F1FC9AE12148B0F90000A1301FD12A4853
:1010F000B0F900004FF00A0190FBF1F000F101009F
:1011000000EB80004FEA400000B2234908804FF412
:1011100096724FF01E01204800F0E4FF1E48B0F91F
:1011200000100A2000E099E000F0CCFC75E10F48C7
:10113000B0F90000113050D11748B0F900004FF05D
:101140000A0190FBF1F0A0F1010031E068E000003D
:10115000680000206C000020730000207000002058
:101160007100002074000020750000206400002041
:101170007200002000100240000C014000000140FD
:101180000C0C0140F800002000100140020100207A
:101190005E000020F00000207A000020E600002021
:1011A000E8000020FC000020360000208200002023
:1011B00000EB80004FEA400000B2FB4908804FF48A
:1011C00096724FF01E01F84800F08CFFF648B0F917
:1011D00000100A2000F076FC1FE1F448B0F900008E
:1011E0009130A3D1F048B0F900004FF00A0190FB14
:1011F000F1F0A0F1010000EB80004FEA400000B2E6
:10120000E94908804FF496724FF01E01E64800F05D
:1012100069FFE548B0F900100A2000F053FCFCE03B
:10122000E348407801280BD1E048B0F90000833052
:10123000D2D100231A461946022000F0F0FBECE060
:10124000DB4840780228C7D1D848B0F90000833085
:10125000C2D10021084600F0C3FBDEE0D44800788C
:1012600002287DD14FF00100D2490870CF48B0F973
:101270000000801C04D0CD48B0F9000082300DD1B0
:10128000CB4890F90100CC49085C00F1010040B264
:10129000C74991F90110C84A505416E0C348B0F943
:1012A0000000401D04D0C148B0F9000085300CD1C9
:1012B000BF4890F90100C049085CA0F1010040B2AC
:1012C000BB4991F90110BC4A5054B94991F9011038
:1012D000B94A114408460922002100F0EDFEB34846
:1012E000B0F90000213010D1B148407800F1010080
:1012F00040B2AF4948704FF002024FF00001AC48D5
:1013000000F1010000F0D8FE53E0A848B0F9000059
:10131000113010D1A6484078A0F1010040B2A44994
:1013200048704FF002024FF00001A14800F10100A7
:1013300000F0C2FE3DE09D48B0F90000C01C38D16D
:101340009D4890F902009C4991F9011001EB81013F
:1013500000EB4100984991F9001001EBC10200E057
:1013600028E002EB011100EB81049148007802288B
:101370001FD1A4F50070F13813D10021084600F008
:101380002FFB00231A461946042000F048FB0F20CB
:10139000FFF7E2F94FF00000874908704870887045
:1013A00007E04FF00900824908704FF00F00FFF787
:1013B000D3F932E07E4800782C282ED17B48B0F952
:1013C0000000A0F57F41EF3910D179484078A0F1B5
:1013D000010040B2764948704FF002024FF0000120
:1013E000734800F1010000F067FE16E06F48B0F9A5
:1013F0000000A0F57F41DF390FD16D48407800F142
:10140000010040B26A4948704FF002024FF00001FB
:10141000674800F1010000F04FFE00BF4FF00000F0
:10142000664908703EBD10B565480068012807D1BF
:101430004FF0000063490860634908606049086034
:1014400060480068002846D06048008800F101002C
:101450005E49088008460088B0F5806F02DB4FF0D7
:10146000000008805A48008864280AD15948574922
:10147000098830F8110000F5004000B25649088094
:1014800011E054485149098830F911005349B1F924
:10149000001048434FF0640190FBF1F000F500406C
:1014A00000B24D4908804C48B0F900004C49086032
:1014B00046480088032803D14FF0010049490860DD
:1014C00042480088A0F50071033908D14FF00100AF
:1014D0004549086003E04FF4004041490860434833
:1014E0000088401C00B2414908802C2808DB4FF0DE
:1014F000000008804FF001003D49087002F006F836
:101500003C480088401C00B23A490880B0F5DC7FB6
:1015100048DD4FF0000008804FF0010036490870A8
:101520003648007800F10100C0B2344908700A283A
:1015300006DB4FF0000008704FF0010030490870E2
:1015400030480078401CC0B22E490870142812DBC5
:101550004FF0000008704FF001002B4908702B4835
:10156000007820B14FF000002849087003E04FF0E8
:1015700001002649087026480078401CC0B2244962
:10158000087032284EDB4FF0000008704FF0010069
:10159000204908702048007828B14FF000001E490B
:1015A00008703FE054E039E07A0000206400002039
:1015B0005E00002073000020510000207500002014
:1015C0009000002088000020A0000020D40000200F
:1015D000DC0000204C010020B0000020DE000020D4
:1015E0000C74004098000020940000204C00002063
:1015F0003C0000204A0000203D0000204600002062
:101600003F00002047000020400000204E00002046
:1016100048000020410000204F0000204FF0010052
:101620006649087066480078401CC0B2644908707A
:10163000642812DB4FF0000008704FF00100614990
:1016400008706148007820B14FF000005E490870D2
:1016500003E04FF001005C49087010BDFEF7B0FDDB
:101660004FF408704FF0E02148615848FEF70CFE37
:10167000FEF713FEFEF7FEFD4FF000005449087020
:1016800000F07CFA0C2253490A2000F03EFA0122B5
:10169000AFF64831504801F017FB504908708CE014
:1016A0004F48006888B14F48006840F480604E4958
:1016B000C1F80C0C4D4B4FF480624D494D4801F080
:1016C00081FB4FF00000464908604B480068012844
:1016D00005D14A4908604FF0000047490860484872
:1016E000006888B13F48006820F480603E49C1F836
:1016F0000C0C3E4B4FF4806242493E4801F062FBC5
:101700004FF000003E4908603B480068012807D1BF
:101710003A4908604FF00000374908602C490870CA
:101720003948007818B14FF0000037490870374841
:10173000007868B14FF0000034490870FFF7D0F925
:10174000FFF7D4FBFEF767FFFEF7F2FFFEF724FF7B
:101750002F48007870B14FF000002D490870FFF756
:1017600010F82C4800F026FCFEF7F9FFFEF7BAFE51
:10177000FEF763FE2848007818B14FF000002649B4
:1017800008701048007888B14FF000000D490870CB
:101790004FF00C020F494FF00A0000F0B6F91F4855
:1017A000008800F1010000B21C4908801C48007844
:1017B00018B14FF000001A49087071E74F0000207F
:1017C000490000204200002050000020A0860100B7
:1017D0005E0000207A0000204C0900203600002026
:1017E000940000200C0C0140000001400801002082
:1017F0004C010020780B00208C000020900000207D
:10180000980000204C0500203C0000203D000020F6
:101810003F0000200000002040000020F2000020D7
:101820000401002001464FF00002104600BF00F105
:101830000102D2B210469D4A125C8A4201D0282889
:10184000F5DB70474FF0050211464FF000021146DC
:1018500010E04FF00A02B0FBF2F302FB1302944BCC
:101860005A544FF00A02B0FBF2F2104601F10102A5
:10187000D2B211460529ECDB704710B501464FF096
:1018800001028C4B1A704FF00502104622E0894A83
:10189000127862B1421E864B9A5C42B9884206DDDC
:1018A0004FF02003A0F10102814CA3540EE0A0F1FF
:1018B00001027F4B9A5C02F13002D3B2A0F1010227
:1018C0007B4CA3544FF000027A4B1A70A0F1010236
:1018D000D2B210460028DADC10BD2DE9F043814673
:1018E0000F4690461D464846FFF7ACFF681CC0B245
:1018F000FFF7C3FF08EB0710C0B206464FF0000029
:1019000004461FE0AC4203DA6948005D6749885528
:10191000AC420FDB6648005D20280BD025B9644837
:10192000005D6249885505E06148015DA6F101004E
:101930005E4A1154A6F10100C0B2064604F101004E
:10194000C0B20446052CDDDBBDE8F0832DE9F04193
:1019500080460F4615464046FFF774FF681CC0B22C
:10196000FFF78BFF3846FFF75DFF06464FF000009C
:10197000044631E045B94E48005D202804D04C486B
:10198000005D4A4988551FE0AC4204DA4848005DD2
:101990004649885518E0AC420AD14FF02E00434921
:1019A00088554348015DA6F10100404A11540BE0FF
:1019B000AC4209DD3E48005D202805D03C48015D71
:1019C000A6F10100394A1154A6F10100C0B2064641
:1019D00004F10100C0B20446052CCBDBBDE8F08168
:1019E00010B5354A1288A2F1010212B2324B1A80A8
:1019F0001A461288024412B21A801A46B2F900201E
:101A000002EB82022D4B1A442D4B14681C60127994
:101A10001A711A4652780A4452B25A7010BD70B503
:101A2000254CB4F90050248804F1010424B2224E5C
:101A3000348005EB8504214D2C44214D2E68266011
:101A40002D7925711E4C20704CB21D4D6C7054B216
:101A50002C715CB2AC7070BD30B502464FF0000422
:101A6000234607E04FF02004104DEC5403F101042D
:101A7000E4B22346282BF5DB0C4807E01478047009
:101A800002F10104224600F1010420461478002CE2
:101A9000F4D107E00C78047001F10104214600F153
:101AA000010420460C78002CF4D130BD0000002049
:101AB000550000205A0000202C00002024010020A6
:101AC0005E00002070B505460C4600F074F8A020BA
:101AD00000F07CF900F0BAF800B113E0E8B200F0D1
:101AE00075F900F0B3F800B10CE0E0B200F06EF967
:101AF00000F0ACF8C4F30721084600F067F900F0E5
:101B0000A5F800BF00F0B4F970BD2DE9F04106461C
:101B10000D46174600F04FF8A02000F057F900F0EE
:101B200095F800B126E0F0B200F050F900F08EF820
:101B300000B11FE000F05FF8A12000F047F900F0CD
:101B400085F800B116E04FF0000409E000F0B4F8A9
:101B50002855012000F000F904F10100C0B204464C
:101B6000781EA042F2DC00F0A7F82855002000F013
:101B7000F3F800BF00F07CF9BDE8F081D0480068C0
:101B800020F07F40CF49C1F8000C0846D0F8000C87
:101B900040F0AA40C1F8000CCB48C06940F00800F2
:101BA000C949C861C748D0F80C0C40F0C000C5490D
:101BB000C1F80C0C704710B5C448006820F08000D4
:101BC000C049C1F80C0C0846D0F80C0C40F040009D
:101BD000C1F80C0C4FF00500FEF756FBB948D0F8E1
:101BE0000C0C20F04000B749C1F80C0C4FF0050078
:101BF000FEF74AFB10BD10B5B448006820F0400065
:101C0000B049C1F80C0C0846D0F80C0C40F080002C
:101C1000C1F80C0C4FF00500FEF736FBA948D0F8D0
:101C20000C0C40F04000A94908604FF00500FEF799
:101C30002BFBA448D0F80C0C20F08000A149C1F87F
:101C40000C0C4FF00500FEF71FFB10BD10B59F48B0
:101C5000006840F080009B49C1F80C0C0846D0F8A1
:101C60000C0C20F04000C1F80C0C4FF00300FEF704
:101C70000BFB9448D0F80C0C40F0400093490860EE
:101C80004FF00300FEF700FB9048001F006810F0C3
:101C9000800F02D04FF0010401E04FF000048B48A8
:101CA000006820F040008749C1F80C0C4FF0030099
:101CB000FEF7EAFA60B210BD70B54FF000000446BE
:101CC0008248006840F080007E49C1F80C0C4FF05B
:101CD000000005463CE07D48006820F0400079495E
:101CE000C1F80C0C0846D0F80C0C40F08000C1F88C
:101CF0000C0C4FF00300FEF7C7FA7248D0F80C0C3A
:101D000040F040006F49C1F80C0C4FF00200FEF7A4
:101D1000BBFA4FEA44604FEA106004466C48006822
:101D200010F0800F03D044F00100044602E004F0FC
:101D3000FE0004460120FEF7A7FA6448006820F080
:101D400040006049C1F80C0C05F10100C0B2054625
:101D5000082DC0DB204670BD10B504465B48006806
:101D600020F040005749C1F80C0C4FF00300FEF77B
:101D70008BFA14F0010F07D05448006820F080005F
:101D80005049C1F80C0C06E05048006840F0800053
:101D90004C49C1F80C0C0320FEF776FA4B4800685A
:101DA00040F040004749C1F80C0C4FF00300FEF72B
:101DB0006BFA4448D0F80C0C20F040004149C1F8BF
:101DC0000C0C4FF00100FEF75FFA10BD70B5044631
:101DD0003E48006820F040003A49C1F80C0C4FF032
:101DE0000300FEF751FA4FF00800054634E014F006
:101DF000800F07D03548006840F080003149C1F8B5
:101E00000C0C06E03148006820F080002D49C1F834
:101E10000C0C0320FEF738FA4FEA44604FEA1060DA
:101E200004462A48006840F040002649C1F80C0CDE
:101E30004FF00400FEF728FA2248D0F80C0C20F0EE
:101E400040002049C1F80C0C4FF00200FEF71CFACC
:101E5000A5F1010040B20546012DC8DA1B48006813
:101E600040F080001749C1F80C0C4FF0000070BD25
:101E700010B51648006820F080001249C1F80C0C1B
:101E80000846D0F80C0C40F04000C1F80C0C4FF0A4
:101E90000500FEF7F9F90B48D0F80C0C40F0800073
:101EA0000A4908604FF00500FEF7EEF90548D0F842
:101EB0000C0C40F080000349C1F80C0C10BD000070
:101EC000000C014000000140001002400C0C0140D9
:101ED000080C014000BF00BF0100A0F10102104644
:101EE000FAD1704710B504466448C06840F40060F9
:101EF0006249C8600846C06864F38910C8604FF042
:101F00000200FFF7E7FF5D48C06820F400605B490E
:101F1000C8604FF00200FFF7DDFF10BD10B50446AA
:101F20004FF0C800FFF7D6FF5448C06840F4806007
:101F30005249C8604FEA24110846FFF7D3FF2046F4
:101F4000FFF7D0FF10BD10B504462046FFF7E6FFAF
:101F500010BD10B5044640F2DC50FFF7BBFF474808
:101F6000C06820F480604549C8604FEA24110846E3
:101F7000FFF7B8FF2046FFF7B5FF10BD70B5044668
:101F80000D4605EB850004EBC000C0B2064606F026
:101F90007F0000F18000C0B206463046FFF7D9FF4F
:101FA00070BD10B50120FFF7D4FF00210846FFF7F0
:101FB000E5FF10BD70B506464FF00000054601462E
:101FC0000846FFF7DBFF00BF745D04B90DE0204653
:101FD000FFF7B9FF05F10100C0B20546102D03D18E
:101FE00001210020FFF7CAFFEEE770BD10B52448BD
:101FF000806940F0100022498861204800686FF332
:102000000F0040F04C501D490860084640681D49CB
:1020100000EA010043F2333140EA01001749486009
:1020200040F2DC50FFF756FF1448C06820F480608F
:102030001249C8604FF00300FFF754FF41F204005B
:10204000FFF748FF0320FFF74DFF6420FFF742FF33
:102050000320FFF747FF0220FFF744FF2820FFF788
:1020600078FF0C20FFF775FF0620FFF772FF402076
:10207000FFF76FFF8020FFF76CFF10BD00100140DD
:1020800000100240FF00F0FF4FF0000211460CE08C
:10209000425CA62A05DD425CA2F1A702054B9A5CD0
:1020A000425401F10102D2B21146425C002AEFD142
:1020B000704700001436000890F900308B4200DAB7
:1020C000027090F90030934200DD0170704790F982
:1020D00000308B4200DA017090F90030934200DD4D
:1020E00002707047B0F900308B4200DA0180B0F91D
:1020F0000030934200DD02807047B0F900308B421F
:1021000000DA0280B0F90030934200DD01807047B0
:1021100070B503460C4607E025781D7004F10105F3
:102120002C4603F101052B461500A2F101063246AB
:10213000F2D170BD30B5034603E0197003F101041C
:1021400023461400A2F101052A46F6D130BDF0B5B0
:1021500003461C460D464FF00006304600BF1600F1
:10216000A2F101073A460CD0277804F10106344663
:1021700095F800C005F101063546A7EB0C063000C6
:10218000EDD0F0BD024602E002F1010002461078F7
:1021900010B110788842F7D11078704770B50446B6
:1021A0000D464FF000000646A06AA84210D07EB946
:1021B0006178084601232A4604F12C0101F05BF9FD
:1021C00028B14FF0FF3005464FF001000646A562EA
:1021D000304670BD0246A1F1020001461069A0F12F
:1021E0000200884201D8002070479378506A01FBB2
:1021F0000300F9E72DE9F04705460C46022C02D30F
:102200002869A04202D84FF0010978E04FF0FF3969
:102210002878012804D0022834D003286AD148E065
:10222000274607EB57000746E86900EB57200146B1
:102230002846FFF7B3FF00B160E0384607F101011F
:102240000F46C0F3080105F12C0010F80180E86981
:1022500000EB572001462846FFF7A0FF00B14DE0F4
:10226000C7F3080105F12C00405C48EA00208046D5
:1022700014F0010F02D04FEA181001E0C8F30B0070
:1022800081463BE0E86900EB142001462846FFF751
:1022900085FF00B132E040F2FF1000EA440105F191
:1022A0002C0001EB00063078717840EA012081466D
:1022B00024E0E86900EBD41001462846FFF76EFFE2
:1022C00000B11BE040F2FF1000EA840105F12C0090
:1022D00001EB0006F0784FEA0060B17840EA014077
:1022E000717840EA0120317840EA010020F0704026
:1022F000814603E04FF00100814600BF00BF484621
:10230000BDE8F0872DE9F04104460E46E680A0685E
:102310000546012D03D020680069A84202D802209A
:10232000BDE8F08135B920680078032802D1206823
:10233000006A054645B920680089B04201D80220EC
:10234000EEE72068076A21E0206880784FEA0018ED
:1023500014E0216808462946FFF74CFF0546681C33
:1023600001D10120DCE7022D03D320680069A842D7
:1023700001D80220D4E7A6EB080006464645E8D27D
:10238000216808462946FFF725FF0746E5600FB993
:102390000220C5E707EB16102061206800F12C0031
:1023A00006F00F0100EB411060614FF00000B7E74D
:1023B0002DE9F04104460F46E08800F10100064691
:1023C0003004000C01D0206910B90420BDE8F08170
:1023D00016F00F0F31D1206900F101002061E06893
:1023E00028B920680089B04227D80420EEE7206889
:1023F0008078A0F1010010EA161F1ED1E268114694
:1024000022681046FFF7F6FE0546012D01D802208E
:10241000DCE7681C01D10120D8E720680069A842E8
:1024200004D80FB90420D1E70420CFE7E560216884
:1024300008462946FFF7CEFE2061E680206800F1BD
:102440002C0006F00F0100EB411060614FF000001E
:10245000BCE710B502468C7ECB7E44EA03231846C7
:102460001378032B06D10C7D4B7D44EA032340EA0D
:102470000343184610BD2DE9F04104464FF000011A
:102480002046FFF73FFF054615B12846BDE8F0811D
:1024900000BF2269114622681046FFF77FFE0546FD
:1024A00005B119E0666937781FB94FF00400054699
:1024B00012E0F07A10F0080F07D1A06901460B2254
:1024C0003046FFF744FE00B906E000212046FFF742
:1024D0006FFF0546002DDCD000BF2846D6E72DE96A
:1024E000F047044689464FF0040005462BE0226978
:1024F000114622681046FFF751FE054605B125E05A
:10250000D4F8148098F800701FB94FF00400054605
:102510001CE098F80B0000F03F06E52F0CD000BF40
:102520000F2E09D026F02000082801D1012000E05C
:102530000020484500D109E000212046FFF738FF80
:10254000054605B102E020690028D0D100BF15B1D1
:102550004FF0000020612846BDE8F087F0B5044642
:1025600001F109000246206900283BD06669304627
:102570004FF000031AE01E4603F101073B46865D5B
:102580003546202D00D111E0052D02D14FF0E50692
:102590003546092B05D14FF02E06167002F10106C3
:1025A0003246157002F10106324600BF0B2BE2D312
:1025B000C67A0E72C67F4FEA0667867F47EA0647ED
:1025C000467F47EA0626077F46EA07060E60077E33
:1025D000467E47EA06268E80877DC67D47EA062628
:1025E000CE8000BF4FF000001070F0BD2DE9F35F0A
:1025F00001980068804602E008F10100804698F8E2
:1026000000002F28F8D098F800005C28F4D000983B
:1026100085690B2220212846FFF78CFD4FF000062C
:102620003746B1464FF0080B18F809002E282AD17A
:1026300000BF484609F10101894618F800402E2CD8
:1026400002D1B9F1030F00D305E0384607F10101CB
:102650000F462C54EDE700BF2F2C06D05C2C04D085
:10266000202C02DD0620BDE8FC9F08EB0901019843
:102670000160202C02DC4FF0240001E04FF020002C
:10268000E8720020EFE700BF484609F101018946E2
:1026900018F800000446202C03DD2F2C01D05C2C00
:1026A00000D167E02E2C01D05F4512D3BBF1080F9B
:1026B00001D12E2C01D00620D5E74FF008000746A7
:1026C0004FF00B0083464FEA86604FEA10600646E3
:1026D000DAE7802C02DB46F003000646812C01DBA2
:1026E0009F2C03DDE02C25DBFC2C23DC484609F184
:1026F0000101894618F800A0BAF1400F02DBBAF1D7
:102700007E0F05DDBAF1800F06DBBAF1FC0F03DCAA
:10271000ABF10100B84201D80620A4E7384607F122
:1027200001010F462C54384607F101010F4605F808
:1027300000A01EE02146F8A0FFF724FD08B1062006
:1027400091E7412C05DB5A2C03DC46F002000646DB
:102750000AE0612C08DB7A2C06DC46F00100064614
:10276000A4F12000C0B20446384607F101010F462B
:102770002C5489E700BF08EB090101980160202C67
:1027800002DC4FF0040001E04FF00000C0B204464C
:102790000FB9062067E72878E52802D14FF0050039
:1027A0002870BBF1080F04D14FEA86604FEA106031
:1027B000064606F00300012802D144F0100004464A
:1027C00006F00C00042802D144F008000446EC7224
:1027D000002048E72DE9F3410446019800782F28AE
:1027E00003D0019800785C2807D1019800F101001E
:1027F00001904FF00000A06002E02068C068A06077
:1028000001980078202808D200212046FFF77AFDA1
:1028100005464FF0000060613BE000BF01A9204683
:10282000FFF7E4FE054605B132E02046FFF723FE40
:102830000546A069C67ABDB1042D14D116F0200F4B
:102840000BD04FF00000A060606116F0040F00D1C3
:10285000E4E74FF00000054605E016F0040F02D152
:102860004FF00500054613E016F0040F00D00FE00E
:102870006769F87A10F0100F03D14FF00500054694
:1028800006E0216808463946FFF7E3FDA060C5E78A
:1028900000BF2846BDE8FC8170B502464FF0FF3509
:1028A000284615681DB3116802E001F101052946AB
:1028B0000D78212D02D30D783A2DF6D10D783A2DD1
:1028C00012D115682C46257804F101063446A5F18D
:1028D00030030A2B07D28C4205D123B9184601F1E7
:1028E00001052946156070BD4FF00005284600BF60
:1028F000F9E770B504460D464FF0000020714FF027
:10290000FF30A06229462046FFF748FC08B10320AB
:1029100070BD94F82A1294F82B0241EA0020A0F529
:102920002A41553901D00220F2E794F865000106EA
:1029300094F8640041EA004194F8630041EA002001
:1029400094F86210084320F07F407749884201D113
:102950000020DDE794F88100010694F8800041EA48
:10296000004194F87F0041EA002094F87E1008436B
:1029700020F07F406C49884201D10020C8E7012047
:10298000C6E72DE9F74F88B04FF0000108980160C5
:102990000998FFF781FF07900798002803DA0B20BA
:1029A0000BB0BDE8F08F6149079851F820400CB991
:1029B0000C20F5E708980460207858B16178084643
:1029C00000F052FD0690069810F0010F02D100BFF2
:1029D0000020E5E74FF000002070079860706178F4
:1029E000084600F073FC0690069810F0010F01D025
:1029F0000320D5E700BF4FF0000841462046FFF70F
:102A000078FF0546012D02D0002D3ED13DE04FF06C
:102A1000000006461AE004F5F57101EB06110846C0
:102A2000017961B1C17A4FEA0162817A42EA0142D9
:102A3000417A42EA0121027A41EA020101E04FF0C3
:102A400000014DF8261006F101000646042EE2D3DF
:102A50004FF00000064616B1A6F10100064600BF81
:102A60005DF826008046B8F1000F04D041462046AC
:102A7000FFF73FFF01E04FF00200C0B205461DB175
:102A8000701C06460428EBD300BF032D01D10120A2
:102A900086E70DB10D2083E73720015D94F83800FB
:102AA00041EA0020B0F5007F01D00D2078E74FF01B
:102AB0004200015D94F8430041EA002787B994F889
:102AC00053004FEA006194F8520041EA004194F843
:102AD000510041EA002094F8501040EA01000746F6
:102AE00067614FF03C00005DE070E078012804D0A1
:102AF000E078022801D00D2052E7E07847434FF0FC
:102B00003900005DA070A07820B1A078A0F101018B
:102B100008420DD00D2043E7222A2B2C3A3B3C3DA6
:102B20003E3F5B5D7C7F0000464154000C0100206D
:102B30004FF03D00015D94F83E0041EA0020208105
:102B4000208910F00F0F01D00D2029E74FF03F0032
:102B5000015D94F8400041EA0029B9F1000F10D15D
:102B600094F84F004FEA006194F84E0041EA0041AA
:102B700094F84D0041EA002094F84C1040EA01001E
:102B800081464FF03A00015D94F83B0041EA002B8A
:102B9000BBF1000F01D10D2002E70BEB07002189EB
:102BA00000EB111005900598814501D20D20F7E644
:102BB0000598A9EB0000A178B0FBF1FABAF1000F7B
:102BC00001D10D20ECE64FF00100054640F6F6700D
:102BD000824502D34FF0020005464FF6F67082455B
:102BE00002D34FF0030005460AF102002061C4F849
:102BF000188008EB0B00E061059840446062032DEB
:102C000019D1208908B10D20CAE694F85B004FEA7B
:102C1000006194F85A0041EA004194F8590041EAF1
:102C2000002094F8581040EA0100206220694FEA21
:102C30008000049015E0208908B90D20B0E6E06915
:102C400038442062022D03D120694FEA400007E09A
:102C5000206900F00100216901EB410100EB510006
:102C600004906169049800F2FF10B1EB502F01D27B
:102C70000D2095E62570B448008800F1010080B26F
:102C8000B1490880E0804FF00000E06000BF87E6B7
:102C900070B505462C464CB1206838B120680078E4
:102CA00020B12068C088A188884201D0092070BD69
:102CB00021684978084600F0D7FB10F0010F01D0D9
:102CC0000320F4E70020F2E7F7B582B01646039838
:102CD000019001A8FFF7E0FD0546002D02DA0B2068
:102CE00005B0F0BD994850F8254014B14FF00000F0
:102CF0002070029818B14FF00000029908709349B3
:102D0000029841F82500029808B1012E01D0002058
:102D1000E6E7002203A902A8FFF733FE074638467C
:102D2000DEE7F7B58AB00446174614B909200DB09E
:102D3000F0BD4FF00000206007F0010007464FF0A3
:102D400000020BA903A8FFF71CFE0646002E37D190
:102D5000CDF824D003A80B99FFF73CFD0646089D4B
:102D60006EB9089805461DB94FF00600064606E004
:102D7000E87A10F0100F02D04FF004000646FEB9BA
:102D8000A7714FF00000E071039908462946FFF74C
:102D900060FB2061E87F4FEA0061A87F41EA0041C3
:102DA000687F41EA0020297F40EA0100E0604FF09F
:102DB0000000A060A061039820602068C088A08007
:102DC0003046B4E72DE9FF4F83B0044615469946D7
:102DD000049800904FF00000C9F800002046FFF76B
:102DE00057FF0290029818B1029807B0BDE8F08F23
:102DF000E07908B1E079F8E7A07910F0010F01D18E
:102E00000720F2E7D4E90210A0EB0100019001983D
:102E1000854201D90198054691E0A068C005C00D22
:102E20006AD120688078A0F10100A16800EA5120F1
:102E300000F0FF08B8F1000F1BD1A06810B920699D
:102E4000834606E06269114622681046FFF7D2F910
:102E50008346BBF1020F03D24FF00200E071C4E7DA
:102E60001BF1010003D14FF00100E071BDE7C4F890
:102E700014B06269114622681046FFF7ABF90746A5
:102E80001FB94FF00200E071AFE707EB08000746FB
:102E90004FEA55208246BAF1000F1BD008EB0A001A
:102EA00021688978884204D920688078A0EB0800DE
:102EB000824621684978084653463A46009900F010
:102EC000DAFA18B14FF00100E0718EE74FEA4A20BC
:102ED000064626E0A069B8420DD021684978084628
:102EE00001233A4604F11C0100F0C5FA18B14FF075
:102EF0000100E07179E7A761A068C0F30800C0F5A0
:102F000000700646AE4200D92E46A068C0F3080203
:102F100004F11C001044014632460098FFF7F8F80F
:102F200000BF009830440090A0683044A060D9F8F9
:102F300000003044C9F80000A5EB06000546002D4E
:102F40007FF46BAF002050E7100100200C0100203F
:102F5000FB48806940F48050F949886108468069DF
:102F600040F0040088610846806940F010008861E4
:102F7000F448006820F4706040F44070F149086043
:102F8000F148006820F4700040F43000EF49C1F8C7
:102F900000084FF04000C1F81008EB48006820F02E
:102FA000706040F00060C1F80008E748006820F059
:102FB000704040F03040E44908604FF00100E349C0
:102FC000C1F81008E048006820F00F0040F0080049
:102FD000DD4908604FF45170DD4908804FF0100062
:102FE000DC4908604FF00A00DB49086000BFDA489E
:102FF00000680028FBD170470146D548818100BF99
:10300000D348008910F0800FFAD1D1488089C0B22E
:10301000704710B50A46CE4B1B8823F04003CC4CBA
:10302000238023461B8843F4046323804FF6FF73F9
:10303000A381A2F102031A4600BF00BFC44B1B8943
:1030400013F0800FFAD1C24B99894FF6FF73C04C31
:10305000A38141704FEA2123037000F10203184657
:10306000A2F102031A00E8D100BFB94B1B8913F08B
:10307000800FFAD1B64B9B89194641704FEA212344
:103080000370B34B1B8823F40463B14C23802346A5
:103090001B8843F04003238010BD10B5AC4B1B8848
:1030A00023F04003AA4C238023461B8843F4046387
:1030B00023804378047843EA04231A46A44B9A8178
:1030C00000F102031846A1F10203194600BF43783C
:1030D000047843EA04231A4600BF9D4B1B8913F072
:1030E000800FFAD19A4B9B89994B9A8100F1020388
:1030F0001846A1F102031900E9D100BF944B1B89C6
:1031000013F0800FFAD1924B9B89914B1B8823F4CB
:1031100004638F4C238023461B8843F040032380A5
:1031200010BD70B505468D48056000BFFF20FFF754
:1031300063FF0446FF2C03D0884800680028F5D1BF
:10314000FF2C01D1012070BD0020FCE710B54FF02D
:103150001000804908604FF0FF00FFF74DFF10BDE1
:1031600010B54FF480107B4908604FF0FF00FFF767
:1031700043FF4FF4FA70FFF7D4FF08B1012010BDF0
:10318000FFF7E4FF0020FAE770B505460E464FF062
:10319000C8007149086000BFFF20FFF72DFF0446FB
:1031A000FF2C03D16C4800680028F5D1FE2C01D01B
:1031B000002070BD31462846FFF72BFFFF20FFF7A8
:1031C0001BFFFF20FFF718FF0120F2E770B506464E
:1031D0000C464FF4FA70FFF7A4FF08B9002070BD49
:1031E0002046FFF709FFFD2C14D04FF40071304644
:1031F000FFF753FFFF20FFF7FFFEFF20FFF7FCFE66
:10320000FF20FFF7F9FE054605F01F00052801D055
:103210000020E4E70120E2E72DE9F04104460D46F5
:1032200014F0800F0ED004F07F0004464FF0000130
:103230004FF03700FFF7F0FF0646012E02DD304663
:10324000BDE8F0810C2C06D0FFF780FFFFF788FF68
:1032500008B9FF20F4E744F040010846FFF7CCFE30
:10326000290E0846FFF7C8FEC5F307410846FFF7D9
:10327000C3FEC5F307210846FFF7BEFEE8B2FFF71D
:10328000BBFE4FF0010714B94FF095000746082C1C
:1032900002D14FF0870007463846FFF7ADFE0C2CF1
:1032A00002D1FF20FFF7A8FE4FF00A00074600BF3B
:1032B000FF20FFF7A1FE064616F0800F04D0A7F10D
:1032C0000100C0B20700F3D13046B9E7F8B50746B0
:1032D0000FB10120F8BDFFF73BFE2148007810F048
:1032E000020F02D01E480078F4E71948008820F049
:1032F000380040F02800164908804FF00A0406E024
:10330000FF20FFF779FEA4F10100C0B20446002CB3
:10331000F6D1264621460846FFF77EFF012863D1F5
:103320004FF47A700C4908604FF4D5714FF00800E3
:10333000FFF772FF012858D14FF0000004461AE051
:103340000010024000100140000801400000014050
:103350000030014010080140180100201C0100202D
:1033600014010020FF20FFF747FE0DF8040004F1D0
:103370000100C0B20446042CF4DB9DF802000128D1
:1033800059D19DF80300AA2855D100BF784800689C
:1033900030B14FF08041A920FFF73EFF0028F5D162
:1033A00073480068002846D000213A20FFF734FF18
:1033B000D0B94FF00000044608E0FF20FFF71CFEE4
:1033C0000DF8040004F10100C0B20446042CF4DB43
:1033D0009DF8000010F0400F02D04FF00C0001E00B
:1033E0004FF00400C0B2064625E00021A920FFF7F7
:1033F00013FF012805DC4FF0020006464FF0A90537
:1034000003E04FF001000646054600BF584800683B
:1034100028B100212846FFF7FFFE0028F6D15448C6
:10342000006828B14FF400711020FFF7F5FE10B1CD
:103430004FF0000006464F480670FFF787FE66B162
:103440004D48008820F038004B4908804B480078F0
:1034500020F001004949087003E04FF0010047499E
:1034600008704648007835E7014609B101207047E9
:1034700042480078FBE72DE9F04107460D46164625
:103480001C4607B914B90420BDE8F0813B48007818
:1034900010F0010F01D00320F6E73648007810F055
:1034A000080F02D14FEA46200646012C0DD13146C5
:1034B0001120FFF7B1FE08BB61022846FFF764FE4A
:1034C000E0B14FF00000044618E031461220FFF74B
:1034D000A3FE98B900BF4FF400712846FFF754FED1
:1034E00000B906E005F500700546A4F101000400EE
:1034F000F1D100BF00210C20FFF78EFEFFF726FE62
:103500000CB1012000E00020C0B2BDE7184A1268EB
:1035100092B2114629B1A1F1010292B21146144BA7
:103520001A60174A126892B2114661B1A1F1010204
:1035300092B21146124B1A601A4612681AB94FF02D
:103540000102104B1A700D4A1278104620F0040246
:1035500010460D4A126812F0010F03D120F002024A
:10356000104602E040F003021046044A1070704713
:10357000180100202001002000300140140100202B
:103580001C0100200401002008080140704770471A
:103590007047754600F028F8AE4605006946534668
:1035A00020F00700854618B020B5FCF7FBFDBDE80C
:1035B00020404FF000064FF000074FF000084FF09A
:1035C000000B21F00701AC46ACE8C009ACE8C0092B
:1035D000ACE8C009ACE8C0098D4670470446AFF3BB
:1035E00000802046FCF7CBFD00487047940D00207A
:1035F00000487047980D002001491820ABBEFEE737
:1036000026000200704710B5FFF7F2FF4FF00001EF
:10361000016010BDFDA2FFAAC8ACADAEAFB0B1D77E
:1036200069B4B5FEDFB5CCBAC9BCBDBEBF41A042CE
:10363000A1E045A3A4A5A64BA74D484FA8504354CD
:10364000A9AA58E1ABACE2ADAEC4AFB0B161B2B3C0
:10365000B4E365B6B7B8B9BABBBCBD6FBE7063BFE3
:1036600079AA78E5C0C1E6C2C3C4C5C6C7000000D8
:103670009036000800000020240100002801000806
:10368000B437000824010020D40E000044010008D3
:103690002A2E2E2E2E2E2E2E2E2E2E2E2E2E2E2E4E
:1036A000402E2E2E2E2E2E2E2E2E2E2E2E2E2E2036
:1036B00000000000000000003200000000000A00CE
:1036C000020200006400050019000600000000006E
:1036D00000000000000000000000000000000000EA
:1036E00000000000000000000000000000000000DA
:1036F00000000000000000000000000000000000CA
:1037000000000000000000000000000000000000B9
:1037100000000000000000000000000000000000A9
:103720000000000000000000000000000000000099
:103730000000000000000000000000000000000089
:103740000000000000000000000000000000000079
:103750000000000000000000000000000000000069
:103760000000000000000000000000000000000059
:103770000000000000000000000000000000000049
:103780000000000000000000000000000000000039
:103790000000000000000000000000000000000029
:1037A0000000000001000000000000000000000018
:0437B0000000000015
:04000005080000ED02
:00000001FF
