:020000040800F2
:10000000F00F00208D010008910100089301000805
:100010009501000897010008990100080000000000
:100020000000000000000000000000009B0100082C
:100030009D010008000000009F010008A3150008B2
:10004000A3010008A3010008A3010008A301000800
:10005000A3010008A3010008A3010008A3010008F0
:10006000A3010008A3010008A3010008A3010008E0
:10007000A3010008A3010008A3010008A3010008D0
:10008000A3010008A3010008A3010008A3010008C0
:10009000A3010008A3010008A3010008A3010008B0
:1000A000A3010008A3010008A3010008A3010008A0
:1000B000A3010008A3010008A3010008A301000890
:1000C000A3010008A3010008A3010008A301000880
:1000D000A3010008A3010008A3010008A301000870
:1000E000A3010008A3010008A301000800F002F822
:1000F00000F03CF80AA090E8000C82448344AAF186
:100100000107DA4501D100F031F8AFF2090EBAE883
:100110000F0013F0010F18BFFB1A43F0010318473B
:100120003433000054330000103A24BF78C878C13B
:10013000FAD8520724BF30C830C144BF04680C60ED
:10014000704700000023002400250026103A28BF35
:1001500078C1FBD8520728BF30C148BF0B60704739
:100160001FB503F042F91FBD10B510BD03F001F932
:100170001146FFF7F5FF01F0FAFA03F01FF903B497
:10018000FFF7F2FF03BC03F029F90000084800471D
:10019000FEE7FEE7FEE7FEE7FEE7FEE7FEE7FEE737
:1001A000FEE7FEE703480449024A044B704700009B
:1001B000ED000008F00D0020F00F0020F00D0020F1
:1001C00000BF12202149086000BF00BF204821491C
:1001D00048602148086000BF00BF1E48006810F05A
:1001E000007FFAD000BF1B48406800F00C000828D0
:1001F000F9D100BF00BF19484FF0E0214861062047
:100200000861002088610846006940F0010008612B
:1002100000BF00BF0F48806940F008000D498861A9
:100220004FF06E400E4908604FF440700D49C1F820
:10023000040C0848806940F01000064988614FF0BE
:10024000000009490860486000BF70470020024074
:100250000284120000100240820000017FA9030006
:10026000000C0140000001400010014010B501F0F9
:10027000E6FE01F0C3FE0021084601F0AFFE10BD0E
:1002800000EB800100BF4A1E1100FCD17047F84806
:10029000C06940F00050F649C8610120F549086086
:1002A00070472DE9FF5F05460E4617469846DDE983
:1002B0000FABDDF8389006EB8600400000B2EE4947
:1002C00008800020ED490880BAF1000F02D1EC4906
:1002D000088008E00BEB8B00E7490988A1EB4000A0
:1002E00000B2E7490880E748A0F8009037B9E6482F
:1002F000A0F800900020E549087011E01420E249C0
:1003000008800120E1490870642008FB00F0DD4905
:10031000B1F90010143990FBF1F000B2DC4908800B
:100320002C4630208DF800008DF801008DF8020079
:100330008DF803008DF804008DF805008DF8060097
:100340008DF807002E208DF8080077208DF8090021
:1003500061208DF80A0076208DF80B0000208DF8C2
:100360000C000A2094FBF0F100FB11403030C0B2C9
:100370008DF807000A2094FBF0F004B20A2094FBE9
:10038000F0F100FB11403030C0B28DF806000A20B9
:1003900094FBF0F004B20A2094FBF0F100FB114052
:1003A0003030C0B28DF805000A2094FBF0F004B2A2
:1003B0000A2094FBF0F100FB11403030C0B28DF800
:1003C000040001226946B34802F009FCB2490870F2
:1003D0000120B2490860B2490860B2490860FA20B9
:1003E000B14908800020B1490860BDE8FF9FA248DC
:1003F0000088F8B1A048B0F90000A049B1F9001098
:10040000884217DD9D480088401C00B29B49088047
:100410000846B0F900009849B1F90010884209DB9C
:100420000020954908809549088097490880012057
:100430009E49086092480088E8B19148B0F90000F0
:100440008E49B1F90010884215D1FF208F490870FC
:100450008948B0F900008A49B1F90010401A00EB50
:10046000800041008748B0F900000A3891FBF0F0A5
:1004700000B287490880704701208C49086000203D
:100480007E490880704710B58948006820F47040A4
:100490008849C1F800080846D0F8000840F4005028
:1004A000C1F800088448008888B183480088401E4D
:1004B00000B2814908808148006840F008007D4909
:1004C000C1F80C084FF000007D49088006E07B4829
:1004D000006820F008007749C1F80C087948B0F9A5
:1004E0000000401F00EB80007349B1F90010B1EB30
:1004F000400F11D174480088401C00B27249088036
:1005000042F20F720021704801F017FE6E48B0F9F8
:100510000010142001F02AFB10BD10B56B480088B4
:10052000401C00B2694908800846B0F900005849EB
:10053000B1F9001088421FDB00206449088053484D
:100540000078012806D150480088401C00B24E496E
:1005500008800AE04D4890F90000401C05D14A4847
:100560000088401E00B2484908804648B0F9002083
:100570000021454801F0D6FD4348B0F90000404352
:10058000642190FBF1F000B25149088010BD3EB5E6
:1005900050480088D8B350480088C0B34848008805
:1005A000401C00B2464908800846B0F900004A499C
:1005B000B1F9001088422EDB0020414908804748ED
:1005C0000088401C00B2454908804548B0F9002029
:1005D0000121424801F0B1FD3E48B0F9000005217B
:1005E00090FBF1F0C4B23B48B0F9000090FBF1F091
:1005F000C5B2012232212B4636488DE81600B0F9EB
:1006000000103648B0F90000FFF74BFE03E0FFE7AB
:1006100000202B4908803EBD3248006820F47F202E
:100620002449C1F8040C0846D0F8040C40F4082012
:10063000C1F8040C0846D0F80C0C40F4C050C1F8C6
:100640000C0C2948006810F4006F53D1274800783B
:100650000A2852DA25480078401C244908700846C8
:1006600000780A2849DB01202149087045E0000094
:100670000010024000740040D8000020D600002086
:10068000DA000020E0000020DC0000203200002022
:1006900034000020700B002036000020880000206D
:1006A0009800002094000020D40000208C0000203E
:1006B0000008014000000140E60000200C08014055
:1006C000380000207A00002084000020E200002092
:1006D000DE0000207C0000207E000020EC000020D6
:1006E00080000020040C0140080C0140760000202E
:1006F000780000200020FF490870FF48006810F4CF
:10070000805F10D1FD4800780A280FDAFB48007896
:10071000401CFA490870084600780A2806DB0120C8
:10072000F749087002E00020F449087070470EB5E0
:10073000F448007840B30020F2490870F24800887D
:1007400000EB8000400000B2F0490880F0480088CB
:10075000401C00B2EE490880EE48B0F900200121AB
:10076000EB4801F0EAFC0A230122EB480088C1B201
:100770008DE80E000523E44800880A3001B2E44801
:10078000B0F90000FFF78DFDDD48007830B10020A2
:10079000DB490870DD490880FFF76EFE0EBDDF49BA
:1007A0000870704710B5DD48007858B1DB48007814
:1007B000401EDA4908700846007818B9002108463A
:1007C00001F071F910BD10B59EB0D5480078E8BBB6
:1007D000CE480088F0B9D3A1D7A001F09EF9CA484D
:1007E000B0F900003C2190FBF1F084B200222121FD
:1007F000204601F017F9C448B0F900003C2190FBF5
:10080000F1F201FB120084B200224021204601F0E7
:1008100009F9E3E2CDA1D2A001F07FF9BB48B0F91C
:1008200000000A2190FBF1F03C2190FBF1F084B232
:100830000022204601F0F6F8B448B0F900000A2181
:1008400090FBF1F03C2190FBF1F200E008E001FBAD
:10085000120084B200223E21204601F0E3F8BDE2FE
:10086000AF48007803287ED1C2A00090C6A00190B6
:10087000CAA00290CEA00390BEA00490D1A0059083
:10088000D5A00690D9A00790DDA00890E1A009901E
:10089000E5A00A90E9A00B90EDA00C90F1A00D90BE
:1008A0009F4A92F90120012303EB42025DF82210D6
:1008B0009B4A92F9012052005DF8220001F02DF9C7
:1008C0009148B0F900003C2190FBF1F084B2002285
:1008D0002121204601F0A6F88B48B0F900003C2108
:1008E00090FBF1F201FB120084B20022402120466D
:1008F00001F098F8E048B0F900003C2190FBF1F0DD
:1009000084B200222321204601F08CF8DA48B0F9A5
:1009100000003C2190FBF1F201FB120084B20022A6
:100920002421204601F07EF8D448B0F900003C2193
:1009300090FBF1F084B200222521204601F072F8EC
:10094000CE48B0F900003C2190FBF1F201FB12000F
:1009500084B200225E21204601F064F800222821A2
:100960006C48008800E00AE080B201F05BF80022E9
:1009700029216948008880B201F054F82EE26848C5
:100980000078152804D1BEA1C2A001F0C6F825E266
:1009900063480078162831D1C3480078401CC2490A
:1009A00008700846007814280EDD002008705C48A6
:1009B0000079401C40B25A490871084690F9040079
:1009C000022801DD002008715548007920B9B7A13F
:1009D000BBA001F0A2F801E251480079012804D13E
:1009E000BCA1C1A001F099F8F8E14D4800790228B6
:1009F00003D1C2A1C6A001F090F8EFE14848007809
:100A0000022818D1C7A1CCA001F087F8CF48007800
:100A10003030CF49C872CD48407830300873CB4869
:100A20008078303048735E213D4890F901001B30DA
:100A3000C74A1154D2E13A480078092804D1C5A127
:100A4000C9A001F06AF8C9E13548007804280BD143
:100A500084A1CAA001F061F800222121CC480088BD
:100A600080B200F0DFFFB9E12D4800782C2840D19A
:100A70007CA17CA001F051F829484078C0BB00233C
:100A80001A461946012000F09CFF00230222012192
:100A90002148008880B200F094FF00230F221946FD
:100AA000BC48008880B200F08CFF00230F22012197
:100AB000B948008880B200F084FF00230C22194658
:100AC000B648008880B200F07CFF00230C22012190
:100AD000B348008880B200F074FF00230522194655
:100AE0000A48008880B200F06CFF0023052259E11B
:100AF0005FE173E176000020080C014077000020E0
:100B000079000020780000207A000020E600002014
:100B1000EA00002080000020820000206300002006
:100B20005E00002020E2F0E5ECFF202020203021B4
:100B30003A3040200000000020D3F1F2E0EDEEE278
:100B4000EBE5EDEDEEE520200000000020EEF1F2F7
:100B5000E0EBEEF1FC20303C3A303E20000000009B
:100B60002020C4EE20EEEAEEEDF7E0EDE8FF2020D5
:100B70000000000020C4EBE8F2E5EBFCEDEEF1F242
:100B8000FC2020200000000020F1E5E0EDF1E02055
:100B9000202021EC304063200000000020CFE5F051
:100BA000E8EEE4E8F7EDEEF1F2FC202000000000B2
:100BB00020E4E5ECEEE8E3F0FB2023EC3024F12028
:100BC0000000000020E4E5ECEEE8E3F0FB2025EC7B
:100BD000305EF1200000000020C3F0EEECEAEEF100
:100BE000F2FC2020202020200000000020E7E2F37B
:100BF000EAE02020202020202029202000000000E2
:100C000020CAEEEBE8F7E5F1F2E2EE20202020200A
:100C10000000000020F4E0E9EBEEE220202020209C
:100C2000202820200000000020D1F7E5F2F7E8EAB4
:100C300020202020202020200000000020F1E5E0DE
:100C4000EDF1EEE2202020202020202000000000F6
:100C500020C2FBF5EEE420202020202020202020B0
:100C60000000000020202020202020202020202004
:100C700020202020000000007E0000207C000020BA
:100C80002020EAE0F0F2E020EFE0ECFFF2E82020A4
:100C9000000000002020CEF2F1F3F2F1F2E2F3E5E1
:100CA000F2202020000000003B000020E8EDE8F6E4
:100CB000E8E0EBE8E7E8F0F3E5F2F1FF0000000020
:100CC000CAE0F0F2E020EFE0ECFFF2E820EDE520F2
:100CD00000000000202020EDE5E8F1EFF0E0E2ED7B
:100CE000E02C2020000000002020C2EEE7ECEEE621
:100CF000EDEE20EEEDE0202000000000F0EEE2E05E
:100D0000EDE020E220464154313620200000000072
:100D1000E8EBE820EDE520EEF2F4EEF0ECE0F2E8AE
:100D200000000000202020EFE0F0EEEBFC2020206F
:100D300020202020000000002020C2E2E5E4E8F2AC
:100D4000E52020202020202000000000510000206D
:100D500000000020202020EDE5E2E5F0EDFBE92198
:100D600021212020000000002020202020CFE0F0C2
:100D7000EEEBFC202020202000000000202020207E
:100D800020202020202120202020202000000000E2
:100D900084000020DC000020DE000020DA000020BB
:100DA000D80000200121FF48008880B200F009FE31
:100DB00014E0FD484078012806D100231A46194660
:100DC000022000F0FEFD09E0F7484078022805D136
:100DD00000231A461946032000F0F3FDF34801F002
:100DE00079F91EB010BDF248006860F00700F149C3
:100DF0000860F148806860F03000096800EA01008E
:100E0000EC49086008460068401C05D008460068A8
:100E1000EA49096888422ED00020E9490870E9486B
:100E20000078042802DAE848007848B1E7480078FA
:100E300030B90120E6490870E0480068E5490870CB
:100E4000E1480078E4490978884208DB0120E0495C
:100E50000870DA48006800F07F00DE490870002062
:100E6000DA4908701420DC4908700020D549087060
:100E7000D549087038E0CF480068D04909688842F1
:100E800031D1D0480078401CCE490870084600781F
:100E9000042828DB00200870CB480078401CCA4991
:100EA000087008460078CC49097888421BDBC348A3
:100EB000006800F07F00C74908700020C249087030
:100EC0000120C3490870C1490870BD48007850B17D
:100ED000C14800784010C0490870084600780228D0
:100EE00001DC0220087000BFB2480068B349086006
:100EF000BA48806940F01800B8498861B84800686D
:100F00006FF30B00B749C1F8000CB548006840F614
:100F1000880140EA0100B349C1F8000C0846D0F846
:100F20000C0C40F00700C1F80C0CAF480068AF494A
:100F30000860A148006820F47F009F4908600846C7
:100F4000006840F4080008600846C06840F03000BF
:100F5000C86070473EB59E48007800B91DE39D48C3
:100F60000078FA280AD1904800782C2803D02C2049
:100F70008D49087002E000208B4908708A4800788B
:100F800070BB944800787D2805D100231A46194685
:100F9000032000F0A6FD8F480078FD2805D1944875
:100FA000008801B21E2000F0E1FD8A480078FB288D
:100FB00002D10A208F49087086480078EF280ED1A8
:100FC0000A2301228C480088C1B28DE80E00052357
:100FD0008A4800880A3001B21046FFF762F9DBE266
:100FE00071480078032869D17A480078FE280CD12E
:100FF0006D484078401E40B26B494870062200217F
:101000006948401C01F083F8C6E272480078FB286A
:101010000CD165484078401C40B2634948700622B4
:1010200000216148401C01F072F8B5E2694800787F
:101030007B2803D105205C494870ADE25A484078CE
:10104000D8BB64480078DF2819D16C48B0F900009B
:101050000A2190FBF1F0401C00EB8000400000B240
:10106000664908804FF496721E21644801F05AF8D0
:101070006248B0F900100A2000F078FD8CE2554873
:1010800000785F281BD15D48B0F900000A2190FB71
:10109000F1F0401C00EB8000400000B2574908808E
:1010A0004FF496721E21554801F03CF85348B0F9B0
:1010B00000100A2000F05AFD6EE23CE0B1E1454824
:1010C0000078EF2819D14D48B0F900000A2190FBB3
:1010D000F1F0401E00EB8000400000B2474908805C
:1010E0004FF496721E21454801F01CF84348B0F9B0
:1010F00000100A2000F03AFD4EE2364800786F28D2
:1011000018D13E48B0F900000A2190FBF1F0401ED2
:1011100000EB8000400000B2384908804FF496721E
:101120001E21364800F0FEFF3448B0F900100A20B6
:1011300000F01CFD30E21C48407801287ED1254893
:101140000078DF2819D12E48B0F900000A2190FB61
:10115000F1F0401C00EB8000400000B228490880FC
:101160004FF496720021264800F0DCFF2448B0F9C5
:1011700000100E2000F0FAFC0EE2164800785F28FE
:101180004AD11F48B0F900000A2190FBF1F0401C41
:1011900000EB8000400000B2194908804FF49672BD
:1011A00000212FE0EA0000205E0000200000002067
:1011B000080C014068000020001001406C00002075
:1011C00073000020700000207100002074000020D7
:1011D0007500002064000020720000200010024012
:1011E000000C0140000001400C0C0140F400002004
:1011F000F800002036000020820000207A00002045
:101200007E000020FC4800F08DFFFB48B0F9001084
:101210000E2000F0ABFCBFE1F8480078EF281BD1AE
:10122000F548B0F900000A2190FBF1F0401E00EBF8
:101230008000400000B2F049088000E02AE04FF44E
:1012400096720021EC4800F06DFFEB48B0F90010F9
:101250000E2000F08BFC9FE1E84800786F2818D141
:10126000E548B0F900000A2190FBF1F0401E00EBC8
:101270008000400000B2E04908804FF496720021DF
:10128000DD4800F04FFFDC48B0F900100E2000F000
:101290006DFC81E1DA484078022833D1D7480078E4
:1012A000DF2803D0D54800785F2811D1D5480088C1
:1012B000401C00B2D34908803C220021D14800F0F4
:1012C00031FFD048B0F900100C2000F04FFC63E172
:1012D000CA480078EF2803D0C84800786F2810D19A
:1012E000C8480088401E00B2C64908803C22002140
:1012F000C44800F017FFC348B0F900100C2000F0FC
:1013000035FC49E1BE484078032836D1BB48007817
:10131000DF2803D0B94800785F2811D1BA48008887
:10132000401C00B2B849088064220A21B64800F087
:10133000F9FEB548B0F90010122000F017FC18E0D3
:10134000AE480078EF2803D0AC4800786F2810D161
:10135000AD480088401E00B2AB49088064220A21D3
:10136000A94800F0DFFEA848B0F90010122000F0F4
:10137000FDFB0120A54908700EE1A1484078042832
:1013800033D19E480078DF2803D09C4800785F283E
:1013900011D19F480088401C00B29D49088014224A
:1013A00001219B4800F0BEFE9948B0F900101020C2
:1013B00000F0DCFBF0E091480078EF2803D08F4884
:1013C00000786F2810D192480088401E00B29049E2
:1013D0000880142201218E4800F0A4FE8C48B0F948
:1013E0000010102000F0C2FBD6E0854840780528A8
:1013F0000AD1824800787D2805D100231A46194673
:10140000022000F06EFBC7E07D484078062807D137
:101410007A4800787D2803D10021084600F043FB7C
:10142000BAE07748007802287ED101207749087019
:1014300072480078FE2803D0704800787E280CD1CE
:101440006F4890F901007349085C401C40B26C4938
:1014500091F901106F4A505413E068480078FB2856
:1014600003D0664800787B280BD1654890F90100CD
:101470006849085C401E40B2614991F90110654A13
:1014800050545F4991F90110624A881809220021DD
:1014900000F032FE59480078DF280CD158484078D7
:1014A000401C40B256494870022200215448401C5A
:1014B00000F022FE4AE051480078EF280CD1504855
:1014C0004078401E40B24E494870022200214C48EC
:1014D000401C00F011FE39E048480078FD2835D165
:1014E0004C4890F902004B4991F9011001EB810140
:1014F00000EB4100474991F9001001EBC10202EBFA
:10150000011100EB81043E48007802281ED1A4F5A9
:101510000070F13814D10021084600F0C4FA00230D
:101520001A461946042000E011E000F0DAFA0F2014
:10153000FFF735F90020374908704870887005E0DA
:1015400009202F4908700F20FFF729F924E02C48C3
:1015500000782C2820D129480078EF280CD1284881
:101560004078401E40B2264948700222002124489B
:10157000401C00F0C1FD0FE020480078DF280BD1AF
:101580001F484078401C40B21D494870022200218B
:101590001B48401C00F0B0FD00BF00201E49087031
:1015A0003EBD10B51D480068012806D100201C4929
:1015B00008601C4908601949086019480068D0B1E2
:1015C00019480088401C1849088008460088B0F572
:1015D000806F01DB002008801448008864282BD12C
:1015E00013481149098830F8110000F5004000B295
:1015F0001049088031E046E07E00002064000020B1
:101600005E0000207C00002082000020730000208B
:101610008000002051000020750000209000002074
:1016200088000020A0000020D4000020DC00002062
:1016300044010020B00000209C489D49098830F9F1
:1016400011009C49B1F900104843642190FBF1F06E
:1016500000F5004000B2984908809748B0F90000B2
:101660009649086092480088032802D101209449D5
:1016700008608F480088A0F50071033907D1012068
:101680009049086003E04FF400408C4908608E48A0
:101690000088401C00B28C4908802C2806DB002002
:1016A000088001208949087001F028FE88480088D8
:1016B000401C00B286490880B0F5DC7F56DD002072
:1016C000088001208349087083480078401CC0B21C
:1016D000814908700A2804DB0020087001207F4936
:1016E00008707F480078401CC0B27D4908701428FB
:1016F0000EDB0020087001207A4908707A480078D3
:1017000018B100207849087002E00120764908707D
:1017100076480078401CC0B27449087032280EDB4D
:10172000002008700120724908707248007818B1D2
:1017300000207049087002E001206E4908706E4870
:101740000078401CC0B26C49087064280EDB002091
:1017500008700120694908706948007818B10020B4
:101760006749087002E001206549087010BDFEF766
:1017700027FD4FF408704FF0E02148616148FEF703
:101780007FFDFEF784FDFEF771FD00205E490870C5
:1017900000F044FA0C225D490A2000F009FA012207
:1017A000AFF670415A4801F0EFF95A4908707BE0F2
:1017B0004448006880B15848006840F48060574948
:1017C000C1F80C0C564B4FF480623849554801F073
:1017D00049FA00203B49086053480068012804D1B9
:1017E000524908600020504908603548006880B1BF
:1017F0004948006820F480604849C1F80C0C484B07
:101800004FF480624A49474801F02CFA00202C49E5
:10181000086045480068012806D144490860002056
:1018200041490860384908702848007810B1002004
:10183000264908702748007860B1002025490870C3
:10184000FFF7D1FAFFF786FBFEF7E6FEFEF76FFF24
:10185000FEF763FE2148007868B100201F49087038
:10186000FEF7B1FF334800F0D2FBFEF79BFFFEF717
:101870000AFEFEF7BCFD1B48007810B10020194994
:1018800008701E48007848B100201C4908700C22DE
:101890001E490A2000F08CF9FEF779FE26480078F0
:1018A00010B100202449087082E7000044010020A4
:1018B000D4000020DE000020B00000200C740040A6
:1018C00098000020940000204C0000203C000020E4
:1018D0004A0000203D000020460000203F0000207C
:1018E00047000020400000204E000020480000205B
:1018F000410000204F00002049000020420000204D
:1019000050000020A08601005E0000207A00002028
:1019100044090020360000200C0C0140000001406A
:1019200000010020700B00208C000020900000209F
:101930004405002000000020FD000020014600209A
:1019400000BF421CD0B2834A125C8A4201D02828D0
:10195000F7DB7047052100210BE00A22B0FBF2F310
:1019600002FB13027C4B5A540A22B0FBF2F04A1CD1
:10197000D1B20529F1DB704710B501460122774B42
:101980001A7005201AE0754A127852B1421E724B45
:101990009A5C32B9884204DD2023421E6E4CA35467
:1019A0000AE0421E6C4B9A5C3032D3B2421E6A4C43
:1019B000A3540022694B1A70421ED0B20028E2DC08
:1019C00010BD2DE9F04381460F4690461D4648461E
:1019D000FFF7C0FF681CC0B2FFF7CEFF08EB07108F
:1019E000C6B200241AE0AC4203DA5B48005D5949F4
:1019F0008855AC420EDB5848005D20280AD025B936
:101A00005548005D5349885504E05348015D701EF8
:101A1000504A1154701EC6B2601CC4B2052CE2DBE1
:101A2000BDE8F0832DE9F04180460F46154640465B
:101A3000FFF790FF681CC0B2FFF79EFF3846FFF724
:101A40007DFF064600242AE045B94348005D202872
:101A500004D04148005D3F4988551CE0AC4204DA9F
:101A60003D48005D3B49885515E0AC4208D12E2029
:101A7000384988553848015D701E364A11540AE0CD
:101A8000AC4208DD3448005D202804D03248015DB6
:101A9000701E304A1154701EC6B2601CC4B2052CB0
:101AA000D2DBBDE8F08110B52D4A1288521E12B269
:101AB0002B4B1A801A461288024412B21A801A4618
:101AC000B2F9002002EB8202264B1A44264B14681E
:101AD0001C6012791A711A4652780A4452B25A702E
:101AE00010BD70B51E4CB4F900502488641C24B29B
:101AF0001B4E348005EB85041A4D2C441A4D2E687C
:101B000026602D792571184C20704CB2164D6C70E2
:101B100054B22C715CB2AC7070BD30B5024600237B
:101B200004E020240B4DEC545C1CE3B2282BF8DBC2
:101B3000084803E012F8014B00F8014B1478002C20
:101B4000F8D103E011F8014B00F8014B0C78002CA0
:101B5000F8D130BD00000020550000205A000020C0
:101B60002C0000201C0100205E00002070B50546FE
:101B70000C4600F070F8A02000F068F900F0B4F80E
:101B800000B112E0E8B200F061F900F0ADF800B188
:101B90000BE0E0B200F05AF900F0A6F8C4F3072019
:101BA00000F054F900F0A0F800BF00F099F970BD02
:101BB0002DE9F04106460D46174600F04CF8A020EE
:101BC00000F044F900F090F800B123E0F0B200F02A
:101BD0003DF900F089F800B11CE000F05BF8A120AD
:101BE00000F034F900F080F800B113E0002407E0C1
:101BF00000F0ADF82855012000F0EFF8601CC4B2E9
:101C0000781EA042F4DC00F0A2F82855002000F075
:101C1000E4F800BF00F064F9BDE8F081C448006852
:101C200020F07F40C349C1F8000C0846D0F8000CF2
:101C300040F0AA40C1F8000CBF48C06940F008005D
:101C4000BD49C861BB48D0F80C0C40F0C000B94990
:101C5000C1F80C0C704710B5B848006820F080003F
:101C6000B449C1F80C0C0846D0F80C0C40F0400008
:101C7000C1F80C0C4FF00500FEF702FBAD48D0F8A0
:101C80000C0C20F04000AB49C1F80C0C0520FEF70D
:101C9000F7FA10BD10B5A948006820F04000A5492A
:101CA000C1F80C0C0846D0F80C0C40F08000C1F8CC
:101CB0000C0C4FF00500FEF7E3FA9E48D0F80C0C30
:101CC00040F040009D4908604FF00500FEF7D8FA4B
:101CD0009848D0F80C0C20F080009649C1F80C0C04
:101CE0000520FEF7CDFA10BD10B59448006840F00D
:101CF00080009049C1F80C0C0846D0F80C0C20F07C
:101D00004000C1F80C0C4FF00300FEF7B9FA894807
:101D1000D0F80C0C40F04000884908604FF00300F8
:101D2000FEF7AEFA8648006810F0800F01D001245B
:101D300000E000248148006820F040007D49C1F89F
:101D40000C0C4FF00300FEF79BFA60B210BD70B5AB
:101D500000247A48006840F080007649C1F80C0CF5
:101D60004FF0000535E07548006820F040007149EB
:101D7000C1F80C0C0846D0F80C0C40F08000C1F8FB
:101D80000C0C4FF00300FEF77BFA6A48D0F80C0CFD
:101D900040F040006749C1F80C0C0220FEF770FAD1
:101DA0006006040E6648006810F0800F02D044F010
:101DB000010401E004F0FE040120FEF761FA5F482F
:101DC000006820F040005B49C1F80C0C05F10100EF
:101DD000C5B2082DC7DB204670BD10B50446574874
:101DE000006820F040005349C1F80C0C4FF003008C
:101DF000FEF746FA14F0010F07D05048006820F0B3
:101E000080004C49C1F80C0C06E04C48006840F0DA
:101E100080004849C1F80C0C0320FEF731FA47480E
:101E2000006840F040004349C1F80C0C4FF003003B
:101E3000FEF726FA3F48D0F80C0C20F040003D4950
:101E4000C1F80C0C0120FEF71BFA10BD70B504465A
:101E50003A48006820F040003649C1F80C0C4FF0B9
:101E60000300FEF70DFA08252EE014F0800F07D0CE
:101E70003248006840F080002E49C1F80C0C06E0A2
:101E80002E48006820F080002A49C1F80C0C03207D
:101E9000FEF7F6F96006040E2848006840F040009E
:101EA0002449C1F80C0C4FF00400FEF7E9F9214871
:101EB000D0F80C0C20F040001E49C1F80C0C022098
:101EC000FEF7DEF9681E45B2012DCEDA1B48006828
:101ED00040F080001749C1F80C0C4FF0000070BDB5
:101EE00010B51648006820F080001249C1F80C0CAB
:101EF0000846D0F80C0C40F04000C1F80C0C4FF034
:101F00000500FEF7BDF90B48D0F80C0C40F080003E
:101F10000A4908604FF00500FEF7B2F90548D0F80D
:101F20000C0C40F080000349C1F80C0C10BD0000FF
:101F3000000C014000000140001002400C0C014068
:101F4000080C014000BF00BF0100A0F10100FBD15F
:101F5000704710B504465C48C06840F400605A49B8
:101F6000C8600846C06864F38910C8600220FFF7A3
:101F7000E9FF5548C06820F400605349C86002205A
:101F8000FFF7E0FF10BD10B50446C820FFF7DAFFE9
:101F90004D48C06840F480604B49C8602011FFF78D
:101FA000D8FF2046FFF7D5FF10BD10B504462046E8
:101FB000FFF7E9FF10BD10B5044640F2DC50FFF713
:101FC000C1FF4148C06820F480603F49C8602011CB
:101FD000FFF7BFFF2046FFF7BCFF10BD70B50446FA
:101FE0000D4605EB850004EBC000C6B206F07F008D
:101FF0008030C6B23046FFF7DEFF70BD10B501205D
:10200000FFF7D9FF00210846FFF7E8FF10BD70B5C4
:102010000646002500210846FFF7E0FF00BF745D7B
:1020200004B90BE02046FFF7C0FF681CC5B2102DB5
:1020300003D101210020FFF7D1FFF0E770BD10B5FB
:102040002248806940F01000204988611E480068DD
:102050006FF30F0040F04C501B4908600846406881
:102060001B49084043F2333108431749486040F2A6
:10207000DC50FFF767FF1448C06820F48060124905
:10208000C8600320FFF765FF41F20400FFF75AFF25
:102090000320FFF75EFF6420FFF754FF0320FFF7E4
:1020A00058FF0220FFF755FF2820FFF784FF0C2080
:1020B000FFF781FF0620FFF77EFF4020FFF77BFF41
:1020C0008020FFF778FF10BD001001400010024093
:1020D000FF00F0FF002109E0425CA62A04DD425C1B
:1020E000A73A044B9A5C42544A1CD1B2425C002A83
:1020F000F2D17047F833000890F900308B4200DAD3
:10210000027090F90030934200DD0170704790F941
:1021100000308B4200DA017090F90030934200DD0C
:1021200002707047B0F900308B4200DA0180B0F9DC
:102130000030934200DD02807047B0F900308B42DE
:1021400000DA0280B0F90030934200DD0180704770
:1021500070B503460C4603E014F8015B03F8015B1D
:102160001500A2F10102F7D170BD30B5034601E0C0
:1021700003F8011B1400A2F10102F9D130BDF0B542
:1021800003461C460D46002000BF1600A2F10102C6
:1021900007D014F8017B15F801CBA7EB0C06300033
:1021A000F3D0F0BD024600E0521C107810B1107858
:1021B0008842F9D11078704770B504460D46002664
:1021C000A06AA8420BD056B9607801232A4604F1D0
:1021D0002C0101F04EF808B1751E0126A5623046AB
:1021E00070BD0246891E1069801E884201D80020F9
:1021F00070479378506A01FB0300F9E72DE9F04737
:1022000005460C46022C02D32869A04202D84FF0A2
:10221000010969E04FF0FF392878012804D002282D
:102220002ED003285CD13FE0274607EB5707E8692B
:1022300000EB57212846FFF7BFFF00B153E03846B7
:102240007F1CC0F3080105F12C0010F80180E8693B
:1022500000EB57212846FFF7AFFF00B143E0C7F37B
:10226000080105F12C00405C48EA002814F0010F39
:1022700002D04FEA181001E0C8F30B00814632E0AB
:10228000E86900EB14212846FFF796FF00B12AE029
:1022900040F2FF1000EA440105F12C000E183078DE
:1022A000717840EA01291EE0E86900EBD411284664
:1022B000FFF782FF00B116E040F2FF1000EA840150
:1022C00005F12C000E18F0780006B17840EA0140C4
:1022D000717840EA01203178084320F0704902E02B
:1022E0004FF0010900BF00BF4846BDE8F0872DE967
:1022F000F04104460E46E680A568012D03D0206813
:102300000069A84202D80220BDE8F0812DB92068FA
:102310000078032801D12068056A45B92068008942
:10232000B04201D80220EFE72068076A1EE020686B
:1023300080784FEA001812E029462068FFF75EFF18
:102340000546681C01D10120DEE7022D03D3206879
:102350000069A84201D80220D6E7A6EB0806464548
:10236000EAD229462068FFF73CFF0746E5600FB92F
:102370000220C9E707EB1610206120682C3006F018
:102380000F0100EB411060610020BDE72DE9F04135
:1023900004460F46E088461C3004000C01D020693A
:1023A00010B90420BDE8F08116F00F0F2CD1206980
:1023B000401C2061E06828B920680089B04223D819
:1023C0000420EFE720688078401E10EA161F1BD11A
:1023D000E1682068FFF712FF0546012D01D80220B1
:1023E000E0E7681C01D10120DCE720680069A84211
:1023F00004D80FB90420D5E70420D3E7E5602946C7
:102400002068FFF7EEFE2061E68020682C3006F0A1
:102410000F0100EB411060610020C3E710B50246D8
:102420008C7ECB7E44EA03201378032B05D10C7DF0
:102430004B7D44EA032340EA034010BD2DE9F041FF
:10244000044600212046FFF752FF054615B12846F5
:10245000BDE8F08100BF21692068FFF7ADFE0546A9
:1024600005B116E0666937780FB9042511E0F07AF6
:1024700010F0080F06D10B223046A169FFF77FFE4E
:1024800000B906E000212046FFF780FF0546002D39
:10249000E1D000BF2846DBE72DE9F0470446894636
:1024A000042527E021692068FFF786FE054605B16F
:1024B00023E0D4F8148098F800700FB904251CE0CC
:1024C00098F80B0000F03F06E52F0CD000BF0F2E50
:1024D00009D026F02000082801D1012000E00020CA
:1024E000484500D109E000212046FFF74FFF05468F
:1024F00005B102E020690028D4D100BF0DB1002051
:1025000020612846BDE8F087F0B5044601F10902D4
:10251000206968B36069002310E01E465B1C855D7E
:10252000202D00D10AE0052D00D1E525092B02D18F
:102530002E2602F8016B02F8015B00BF0B2BECD3D7
:10254000C67A0E72C67F3706867F47EA0647467F01
:1025500047EA0626077F3E430E60077E467E47EA2F
:1025600006268E80877DC67D47EA0626CE8000BF80
:1025700000201070F0BD2DE9F35F0198D0F80080C5
:1025800001E008F1010898F800002F28F9D098F828
:1025900000005C28F5D0009885690B222021284690
:1025A000FFF7E3FD00263746B1464FF0080B18F859
:1025B00009002E2825D100BF484609F1010918F865
:1025C00000402E2C02D1B9F1030F00D303E03846AE
:1025D0007F1C2C54F0E700BF2F2C06D05C2C04D0BD
:1025E000202C02DD0620BDE8FC9F08EB09010198C4
:1025F0000160202C01DC242000E02020E872002073
:10260000F1E700BF484609F1010918F80040202C05
:1026100003DD2F2C01D05C2C00D156E02E2C01D0F4
:102620005F450CD3BBF1080F01D12E2C01D0062041
:10263000D9E708274FF00B0BB006060EE2E7802C17
:1026400001DB46F00306812C01DB9F2C03DDE02C2F
:1026500020DBFC2C1EDC484609F1010918F800A01B
:10266000BAF1400F02DBBAF17E0F05DDBAF1800F3F
:1026700006DBBAF1FC0F03DCABF10100B84201D874
:102680000620B0E738467F1C2C5438467F1C05F8DE
:1026900000A019E02146FCA0FFF784FD08B1062048
:1026A000A1E7412C04DB5A2C02DC46F0020608E0CC
:1026B000612C06DB7A2C04DC46F00106A4F1200034
:1026C000C4B238467F1C2C549CE700BF08EB0901BC
:1026D00001980160202C01DC042000E00020C4B23D
:1026E0000FB906207FE72878E52801D1052028705A
:1026F000BBF1080F01D1B006060E06F00300012859
:1027000001D144F0100406F00C00042801D144F07B
:102710000804EC72002066E72DE9F34104460198B5
:1027200000782F2803D0019800785C2805D1019803
:10273000401C01900020A06002E02068C068A060FA
:1027400001980078202807D200212046FFF7CFFD0E
:1027500005460020606133E000BF01A92046FFF775
:102760000AFF054605B12AE02046FFF767FE054649
:10277000A069C67A95B1042D0FD116F0200F08D0AC
:102780000020A060606116F0040F00D1E5E700258D
:1027900003E016F0040F00D1052510E016F0040F39
:1027A00000D00CE06769F87A10F0100F01D1052510
:1027B00005E039462068FFF731FEA060CDE700BF95
:1027C0002846BDE8FC8170B502464FF0FF30156821
:1027D000DDB1116800E0491C0D78212D02D30D7880
:1027E0003A2DF8D10D783A2D0ED1146814F8015B0A
:1027F000A5F130030A2B06D28C4204D11BB918462E
:102800004D1C2946156070BD002000BFFBE770B568
:1028100004460D4600202071401EA0622946204635
:10282000FFF7CAFC08B1032070BD94F82A1294F88F
:102830002B0241EA0020A0F52A41553901D002209F
:10284000F2E794F86500010694F8640041EA00415B
:1028500094F8630041EA002094F86210084320F0E5
:102860007F408D49884201D10020DDE794F8810046
:10287000010694F8800041EA004194F87F0041EAA3
:10288000002094F87E10084320F07F40824988425F
:1028900001D10020C8E70120C6E72DE9F74F88B035
:1028A0000021089801600998FFF78DFF07900798AD
:1028B000002803DA0B200BB0BDE8F08F77490798AA
:1028C00051F820400CB90C20F5E7089804602078F6
:1028D00050B1607800F0C6FC0690069810F0010F29
:1028E00002D100BF0020E6E700202070079860704A
:1028F000607800F001FC0690069810F0010F01D0FE
:102900000320D8E700BF4FF0000841462046FFF7FC
:102910007EFF0546012D01D07DBB2EE0002614E090
:1029200004F5F57101EB0610017951B1C17A0A067F
:10293000817A42EA0142417A42EA0121027A114354
:1029400000E000214DF82610761C042EE8D3002666
:1029500006B1761E00BF5DF82680B8F1000F04D0E6
:1029600041462046FFF753FF00E00220C5B21DB1EB
:10297000701C06460428EED300BF032D01D10120B0
:1029800099E70DB10D2096E73720015D94F83800E6
:1029900041EA0020B0F5007F01D00D208BE74220F6
:1029A000015D94F8430041EA002777B994F8530099
:1029B000010694F8520041EA004194F8510041EABE
:1029C000002094F8501040EA010767613C20005D48
:1029D000E070E078012804D0E078022801D00D20D2
:1029E00069E7E07847433920005DA070A07818B10E
:1029F000A078411E084201D00D205CE73D20015D1A
:102A000094F83E0041EA00202081208910F00F0F49
:102A100001D00D204FE73F20015D94F8400041EACE
:102A20000029B9F1000F0ED194F84F00010694F877
:102A30004E0041EA004194F84D0041EA002094F82C
:102A40004C1040EA01093A20015D94F83B0041EA4C
:102A5000002BBBF1000F01D10D202CE70BEB070081
:102A6000218900EB111005900598814501D20D20B8
:102A700021E70598A9EB0000A178B0FBF1FABAF1C3
:102A8000000F0DD10D2016E7222A2B2C3A3B3C3D9E
:102A90003E3F5B5D7C7F0000464154000401002006
:102AA000012540F6F670824500D302254FF6F670F8
:102AB000824500D303250AF102002061C4F8188082
:102AC00008EB0B00E061059840446062032D16D1CD
:102AD000208908B10D20EEE694F85B00010694F819
:102AE0005A0041EA004194F8590041EA002094F864
:102AF00058100843206220698000049014E0208967
:102B000008B90D20D7E6E06938442062022D02D1D1
:102B10002069400007E0206900F00100216901EB15
:102B2000410100EB510004906169049800F2FF102C
:102B3000B1EB502F01D20D20BDE625709E480088D4
:102B4000401C80B29C490880E0800020E06000BF0B
:102B5000B1E670B505462C464CB1206838B1206806
:102B6000007820B12068C088A188884201D009205F
:102B700070BD2168487800F075FB10F0010F01D09E
:102B80000320F5E70020F3E7F7B582B01646039877
:102B9000019001A8FFF717FE0546002D02DA0B2071
:102BA00005B0F0BD854850F825400CB100202070DC
:102BB000029810B10020029908708049029841F8EB
:102BC0002500029808B1012E01D00020E8E700227C
:102BD00003A902A8FFF761FE07463846E0E7F7B50C
:102BE0008AB00446174614B909200DB0F0BD002084
:102BF000206007F0010700220BA903A8FFF74DFE94
:102C000006466EBBCDF824D003A80B99FFF784FDD0
:102C10000646089D46B9089D0DB9062604E0E87AE7
:102C200010F0100F00D00426D6B9A7710020E07173
:102C300029460398FFF7F2FB2061E87F0106A87F91
:102C400041EA0041687F41EA0020297F0843E060B3
:102C50000020A060A061039820602068C088A08048
:102C60003046C2E72DE9FF4F83B00446154699462A
:102C7000049800900020C9F800002046FFF769FF83
:102C80000290029818B1029807B0BDE8F08FE07981
:102C900008B1E079F8E7A07910F0010F01D1072021
:102CA000F2E7D4E90210401A01900198854200D958
:102CB000019D7CE0A068C005C00D59D120688078D6
:102CC000401EA16800EA512000F0FF08B8F1000F93
:102CD00017D1A06810B9D4F810B004E06169206879
:102CE000FFF78CFA8346BBF1020F02D20220E0719B
:102CF000CAE71BF1010002D10120E071C4E7C4F86A
:102D000014B061692068FFF76CFA074617B9022012
:102D1000E071B9E747444FEA552ABAF1000F17D0DE
:102D200008EB0A0021688978884203D920688078F6
:102D3000A0EB080A2168487853463A46009900F00B
:102D400098FA10B10120E0719EE74FEA4A2622E08E
:102D5000A069B8420BD02168487801233A4604F1B3
:102D60001C0100F086FA10B10120E0718CE7A76128
:102D7000A068C0F30800C0F50076AE4200D92E4628
:102D8000A068C0F3080204F11C0011183246009834
:102D9000FFF7DEF900BF009830440090A06830448F
:102DA000A060D9F800003044C9F80000AD1B002D28
:102DB00080D1002068E70000080100200401002005
:102DC000FA48806940F48050F84988610846806973
:102DD00040F0040088610846806940F01000886176
:102DE000F348006820F4706040F44070F0490860D7
:102DF000F048006820F4700040F43000EE49C1F85B
:102E000000084FF04000C1F81008EA48006820F0C0
:102E1000706040F00060C1F80008E648006820F0EB
:102E2000704040F03040E34908604FF00100E24953
:102E3000C1F81008DF48006820F00F0040F00800DB
:102E4000DC4908604FF45170DC4908804FF01000F5
:102E5000DB4908604FF00A00DA49086000BFD94832
:102E600000680028FBD170470146D448818100BF2B
:102E7000D248008910F0800FFAD1D0488089C0B2C2
:102E8000704710B50A46CD4B1B8823F04003CB4C4E
:102E9000238023461B8843F4046323804FF6FF738B
:102EA000A381921E00BF00BFC44B1B8913F0800F8B
:102EB000FAD1C24B99894FF6FF73C04CA381417080
:102EC0000B120370801C931E1A00ECD100BFBB4B89
:102ED0001B8913F0800FFAD1B84B998941700B12FE
:102EE0000370B64B1B8823F40463B44C2380234641
:102EF0001B8843F04003238010BD10B5AF4B1B88E7
:102F000023F04003AD4C238023461B8843F4046325
:102F100023804378047843EA0422A84B9A81801CDA
:102F2000891E00BF4378047843EA042200BFA34B04
:102F30001B8913F0800FFAD1A04B9B899F4B9A817C
:102F4000801C8B1E1900EDD100BF9C4B1B8913F018
:102F5000800FFAD1994B9B89984B1B8823F404630B
:102F6000964C238023461B8843F04003238010BDEA
:102F700070B505469448056000BFFF20FFF774FF59
:102F80000446FF2C03D0904800680028F5D1FF2CA0
:102F900001D1012070BD0020FCE710B51020884948
:102FA00008604FF0FF00FFF75FFF10BD10B54FF452
:102FB0008010834908604FF0FF00FFF755FF4FF482
:102FC000FA70FFF7D5FF08B1012010BDFFF7E5FF4C
:102FD0000020FAE770B505460E46C820794908601A
:102FE00000BFFF20FFF740FF0446FF2C03D17548C8
:102FF00000680028F5D1FE2C01D0002070BD3146BC
:103000002846FFF73EFFFF20FFF72EFFFF20FFF7C8
:103010002BFF0120F2E770B506460C464FF4FA701C
:10302000FFF7A6FF08B9002070BD2046FFF71CFF80
:10303000FD2C14D04FF400713046FFF75EFFFF20E7
:10304000FFF712FFFF20FFF70FFFFF20FFF70CFF36
:10305000054605F01F00052801D00020E4E7012007
:10306000E2E72DE9F04104460D4614F0800F0BD045
:1030700004F07F0400213720FFF7F3FF0646012EFE
:1030800002DD3046BDE8F0810C2C06D0FFF785FF4D
:10309000FFF78CFF08B9FF20F4E744F04000FFF78A
:1030A000E3FE280EFFF7E0FEC5F30740FFF7DCFE66
:1030B000C5F30720FFF7D8FEE8B2FFF7D5FE0127DA
:1030C00004B99527082C00D187273846FFF7CCFE96
:1030D0000C2C02D1FF20FFF7C7FE0A2700BFFF20FC
:1030E000FFF7C2FE064616F0800F03D0781EC0B26E
:1030F0000700F4D13046C5E7F8B507460FB1012007
:10310000F8BDFFF75DFE3148007810F0020F02D0E5
:103110002E480078F4E72948008820F0380040F075
:103120002800264908800A2404E0FF20FFF79CFEBF
:10313000601EC4B2002CF8D1002600210846FFF71B
:1031400090FF012876D14FF47A701E4908604FF441
:10315000D5710820FFF785FF01284CD100BF06E09C
:10316000FF20FFF781FE0DF80400601CC4B2042CA0
:10317000F6DB9DF8020001285CD19DF80300AA2827
:1031800058D100BF0F48006830B14FF08041A920EE
:10319000FFF767FF0028F5D10A48006850B3002107
:1031A0003A20FFF75EFF28BB002418E00010024021
:1031B00000100140000801400000014000300140C3
:1031C0001008014010010020140100200C01002013
:1031D000FF20FFF749FE0DF80400601CC4B2042C68
:1031E000F6DB9DF8000010F0400F01D00C2000E04D
:1031F0000420C6B21EE00021A920FFF732FF0128FB
:1032000002DC0226A92501E00126012500BF504865
:10321000006828B100212846FFF723FF0028F6D1D7
:103220004B48006828B14FF400711020FFF719FFD8
:1032300000B1002647480670FFF7AFFE66B146486A
:10324000008820F03800444908804448007820F085
:1032500001004249087002E00120404908703F48DF
:1032600000784DE7014609B1012070473B480078DE
:10327000FBE72DE9F04107460D4616461C4607B907
:1032800014B90420BDE8F0813448007810F0010F33
:1032900001D00320F6E72F48007810F0080F00D186
:1032A0007602012C0BD131461120FFF7DAFEE8B986
:1032B00061022846FFF78EFEC0B1002416E03146B9
:1032C0001220FFF7CEFE88B900BF4FF400712846E8
:1032D000FFF780FE00B904E005F50075601E0400EC
:1032E000F3D100BF00210C20FFF7BBFEFFF755FE16
:1032F0000CB1012000E00020C0B2C3E7144A1268FC
:1033000091B221B14A1E92B21146114B1A60144A71
:10331000126891B251B14A1E92B21146104B1A6016
:103320001A46126812B901220E4B1A700B4A107815
:1033300020F004000C4A126812F0010F02D120F0B4
:10334000020001E040F00300044A107070470000E2
:103350001001002018010020003001400C01002065
:1033600014010020FD00002008080140704770474C
:103370007047754600F028F8AE460500694653468A
:1033800020F00700854618B020B5FCF70BFFBDE81C
:1033900020404FF000064FF000074FF000084FF0BC
:1033A000000B21F00701AC46ACE8C009ACE8C0094D
:1033B000ACE8C009ACE8C0098D4670470446AFF3DD
:1033C00000802046FCF7DBFE004870478C0D002093
:1033D00001487047704700BF900D00200149182038
:1033E000ABBEFEE726000200704710B5FFF7F0FF06
:1033F0004FF00001016010BDFDA2FFAAC8ACADAE48
:10340000AFB0B1D769B4B5FEDFB5CCBAC9BCBDBEEB
:10341000BF41A042A1E045A3A4A5A64BA74D484F9C
:10342000A8504354A9AA58E1ABACE2ADAEC4AFB0CA
:10343000B161B2B3B4E365B6B7B8B9BABBBCBD6FDE
:10344000BE7063BF79AA78E5C0C1E6C2C3C4C5C671
:10345000C700000074340008000000201C010000B8
:1034600028010008903500081C010020D40E00003F
:10347000440100082A2E2E2E2E2E2E2E2E2E2E2EDB
:103480002E2E2E2E402E2E2E2E2E2E2E2E2E2E2E4A
:103490002E2E2E2000000000000000003200000050
:1034A00000000A0002020000640005001900060086
:1034B000000000000000000000000000000000000C
:1034C00000000000000000000000000000000000FC
:1034D00000000000000000000000000000000000EC
:1034E00000000000000000000000000000000000DC
:1034F00000000000000000000000000000000000CC
:1035000000000000000000000000000000000000BB
:1035100000000000000000000000000000000000AB
:10352000000000000000000000000000000000009B
:10353000000000000000000000000000000000008B
:10354000000000000000000000000000000000007B
:10355000000000000000000000000000000000006B
:10356000000000000000000000000000000000005B
:10357000000000000000000000000000000000004B
:10358000010000000000000000000000000000003A
:04000005080000ED02
:00000001FF
